{"abi":[{"anonymous":false,"inputs":[{"indexed":false,"internalType":"uint256","name":"taskId","type":"uint256"},{"indexed":false,"internalType":"uint256","name":"iteration","type":"uint256"},{"indexed":false,"internalType":"address","name":"rootAggregator","type":"address"},{"indexed":false,"internalType":"bool","name":"complete","type":"bool"}],"name":"IterationComplete","type":"event"},{"anonymous":false,"inputs":[{"indexed":false,"internalType":"uint256","name":"taskId","type":"uint256"},{"indexed":false,"internalType":"uint256","name":"requiredUsers","type":"uint256"},{"indexed":false,"internalType":"uint256","name":"totalIterations","type":"uint256"},{"indexed":false,"internalType":"uint256","name":"fundingAmount","type":"uint256"}],"name":"TaskInitialized","type":"event"},{"anonymous":false,"inputs":[{"indexed":false,"internalType":"uint256","name":"taskId","type":"uint256"},{"indexed":false,"internalType":"address","name":"rootAggregator","type":"address"},{"components":[{"internalType":"address","name":"userAddress","type":"address"},{"internalType":"enum MainContract.Role","name":"role","type":"uint8"},{"internalType":"string","name":"ip","type":"string"}],"indexed":false,"internalType":"struct MainContract.TreeNode[]","name":"tree","type":"tuple[]"}],"name":"TreeStructureGenerated","type":"event"},{"anonymous":false,"inputs":[{"indexed":false,"internalType":"uint256","name":"taskId","type":"uint256"},{"indexed":false,"internalType":"address","name":"user","type":"address"},{"indexed":false,"internalType":"string","name":"ip","type":"string"}],"name":"UserAdded","type":"event"},{"inputs":[{"internalType":"uint256","name":"taskId","type":"uint256"},{"internalType":"address","name":"userAddress","type":"address"},{"internalType":"string","name":"ip","type":"string"}],"name":"addUser","outputs":[],"stateMutability":"nonpayable","type":"function"},{"inputs":[{"internalType":"uint256","name":"taskId","type":"uint256"}],"name":"completeIteration","outputs":[],"stateMutability":"nonpayable","type":"function"},{"inputs":[],"name":"entropy","outputs":[{"internalType":"uint256","name":"","type":"uint256"}],"stateMutability":"view","type":"function"},{"inputs":[{"internalType":"uint256","name":"taskId","type":"uint256"}],"name":"getRootAggregatorAddress","outputs":[{"internalType":"address","name":"","type":"address"}],"stateMutability":"view","type":"function"},{"inputs":[{"internalType":"uint256","name":"requiredUsers","type":"uint256"},{"internalType":"uint256","name":"totalIterations","type":"uint256"},{"internalType":"uint256","name":"fundingAmount","type":"uint256"}],"name":"initTask","outputs":[],"stateMutability":"nonpayable","type":"function"},{"inputs":[],"name":"nextTaskId","outputs":[{"internalType":"uint256","name":"","type":"uint256"}],"stateMutability":"view","type":"function"},{"inputs":[{"internalType":"uint256","name":"","type":"uint256"}],"name":"tasks","outputs":[{"internalType":"uint256","name":"id","type":"uint256"},{"internalType":"uint256","name":"requiredUsers","type":"uint256"},{"internalType":"uint256","name":"currentIteration","type":"uint256"},{"internalType":"uint256","name":"totalIterations","type":"uint256"},{"internalType":"uint256","name":"fundingAmount","type":"uint256"},{"internalType":"bool","name":"isInitialized","type":"bool"},{"internalType":"bool","name":"isFull","type":"bool"},{"internalType":"enum MainContract.TaskStatus","name":"status","type":"uint8"}],"stateMutability":"view","type":"function"}],"bytecode":"60806040524260025534801561001457600080fd5b50611167806100246000396000f3fe608060405234801561001057600080fd5b506004361061007d5760003560e01c8063a04fccd51161005b578063a04fccd514610121578063df886bcf14610134578063fdc3d8d714610147578063fe2fc83c1461015057600080fd5b806347ce07cc146100825780635a232dfd1461009e5780638d977672146100b3575b600080fd5b61008b60025481565b6040519081526020015b60405180910390f35b6100b16100ac366004610b49565b61017b565b005b61010d6100c1366004610b75565b60016020819052600091825260409091208054918101546002820154600383015460048401546007909401549293919290919060ff808216916101008104821691620100009091041688565b604051610095989796959493929190610ba4565b6100b161012f366004610b75565b61021f565b6100b1610142366004610c11565b6103eb565b61008b60005481565b61016361015e366004610b75565b61073c565b6040516001600160a01b039091168152602001610095565b6000805480825260016020818152604080852093845583830188905560038401879055600484018690556007840180546002860187905562ffffff191690931790925592548151908152928301869052820184905260608201839052907f4763fc6c5dfee67f966a1c46c5a30319897c10d0f43e5922a75a24cc223a34319060800160405180910390a160008054908061021483610d00565b919050555050505050565b600081815260016020526040902060038101546002820154111561028a5760405162461bcd60e51b815260206004820152601860248201527f416c6c20697465726174696f6e7320636f6d706c65746564000000000000000060448201526064015b60405180910390fd5b6102938261073c565b6001600160a01b0316336001600160a01b03161461030b5760405162461bcd60e51b815260206004820152602f60248201527f4f6e6c7920526f6f742041676772656761746f722063616e20636f6d706c657460448201526e32903a34329034ba32b930ba34b7b760891b6064820152608401610281565b806003015481600201541015610329576103248261077f565b61033d565b60078101805462ff00001916620100001790555b7e532d572723b77bde7d24864991774e5ec17c4b544c0246f4b1c7f4e8d54b6e8282600201548360060160008154811061037957610379610d19565b60009182526020909120600290910201546001600160a01b03166001600786015462010000900460ff1660018111156103b4576103b4610b8e565b6040805195865260208601949094526001600160a01b03909216928401929092521460608201526080015b60405180910390a15050565b6000838152600160205260409020600781015460ff166104445760405162461bcd60e51b815260206004820152601460248201527315185cdac81b9bdd081a5b9a5d1a585b1a5e995960621b6044820152606401610281565b60018101546005820154106104925760405162461bcd60e51b815260206004820152601460248201527315185cdac81a5cc8185b1c9958591e48199d5b1b60621b6044820152606401610281565b604080516060810182526001600160a01b038581168252600060208084018281529484018790526005860180546001810182559083529120835160029283029091018054919093166001600160a01b03198216811784559451939492939284926001600160a81b03199092161790600160a01b90849081111561051757610517610b8e565b0217905550604082015160018201906105309082610dba565b50505060018101546005820154036106fb5760078101805461ff001916610100179055600581015460005b818110156106ef5782600601604051806060016040528085600501848154811061058757610587610d19565b600091825260208083206002909202909101546001600160a01b03168352919091019081526020018560050184815481106105c4576105c4610d19565b906000526020600020906002020160010180546105e090610d2f565b80601f016020809104026020016040519081016040528092919081815260200182805461060c90610d2f565b80156106595780601f1061062e57610100808354040283529160200191610659565b820191906000526020600020905b81548152906001019060200180831161063c57829003601f168201915b505050919092525050815460018101835560009283526020928390208251600292830290910180546001600160a01b039092166001600160a01b031983168117825594840151939490939284926001600160a81b03191690911790600160a01b9084908111156106cb576106cb610b8e565b0217905550604082015160018201906106e49082610dba565b50505060010161055b565b506106f98561077f565b505b7f143c3536e28d56a1fac3d14af6dfd6931ab7363840dd200d22b6b16b2664655984848460405161072e93929190610e7a565b60405180910390a150505050565b6000818152600160205260408120600681018054839061075e5761075e610d19565b60009182526020909120600290910201546001600160a01b03169392505050565b60008181526001602052604090206007810154610100900460ff166107d95760405162461bcd60e51b815260206004820152601060248201526f15185cdac81a5cc81b9bdd08199d5b1b60821b6044820152606401610281565b6107e2826107fd565b6002810180549060006107f483610d00565b91905055505050565b60008181526001602081905260408220600681015490929161081e91610ee0565b90505b8015610ae357600682015460009061083a908390610ee0565b6108449042610ef9565b90506000604051806060016040528085600601858154811061086857610868610d19565b6000918252602091829020600290910201546001600160a01b031682526006870180549290910191869081106108a0576108a0610d19565b6000918252602090912060029182020154600160a01b900460ff16908111156108cb576108cb610b8e565b81526020018560060185815481106108e5576108e5610d19565b9060005260206000209060020201600101805461090190610d2f565b80601f016020809104026020016040519081016040528092919081815260200182805461092d90610d2f565b801561097a5780601f1061094f5761010080835404028352916020019161097a565b820191906000526020600020905b81548152906001019060200180831161095d57829003601f168201915b5050505050815250905083600601828154811061099957610999610d19565b90600052602060002090600202018460060184815481106109bc576109bc610d19565b600091825260209091208254600292830290910180546001600160a01b031981166001600160a01b0390931692831782558454919360ff600160a01b93849004169385936001600160a81b03199093161791908490811115610a2057610a20610b8e565b0217905550600181810190610a3790840182610f1b565b5090505080846006018381548110610a5157610a51610d19565b60009182526020918290208351600292830290910180546001600160a01b039092166001600160a01b0319831681178255938501519093909284926001600160a81b03191690911790600160a01b908490811115610ab157610ab1610b8e565b021790555060408201516001820190610aca9082610dba565b5090505050508080610adb90610ff6565b915050610821565b507f63a35d37247ff97e2bf84c9f8658f07329e2f1379712f021e2a795d414e1a6f58282600601600081548110610b1c57610b1c610d19565b60009182526020909120600290910201546040516103df92916001600160a01b031690600686019061100d565b600080600060608486031215610b5e57600080fd5b505081359360208301359350604090920135919050565b600060208284031215610b8757600080fd5b5035919050565b634e487b7160e01b600052602160045260246000fd5b60006101008201905089825288602083015287604083015286606083015285608083015284151560a083015283151560c083015260028310610be857610be8610b8e565b8260e08301529998505050505050505050565b634e487b7160e01b600052604160045260246000fd5b600080600060608486031215610c2657600080fd5b8335925060208401356001600160a01b0381168114610c4457600080fd5b9150604084013567ffffffffffffffff80821115610c6157600080fd5b818601915086601f830112610c7557600080fd5b813581811115610c8757610c87610bfb565b604051601f8201601f19908116603f01168101908382118183101715610caf57610caf610bfb565b81604052828152896020848701011115610cc857600080fd5b8260208601602083013760006020848301015280955050505050509250925092565b634e487b7160e01b600052601160045260246000fd5b600060018201610d1257610d12610cea565b5060010190565b634e487b7160e01b600052603260045260246000fd5b600181811c90821680610d4357607f821691505b602082108103610d6357634e487b7160e01b600052602260045260246000fd5b50919050565b601f821115610db5576000816000526020600020601f850160051c81016020861015610d925750805b601f850160051c820191505b81811015610db157828155600101610d9e565b5050505b505050565b815167ffffffffffffffff811115610dd457610dd4610bfb565b610de881610de28454610d2f565b84610d69565b602080601f831160018114610e1d5760008415610e055750858301515b600019600386901b1c1916600185901b178555610db1565b600085815260208120601f198616915b82811015610e4c57888601518255948401946001909101908401610e2d565b5085821015610e6a5787850151600019600388901b60f8161c191681555b5050505050600190811b01905550565b8381526000602060018060a01b038516602084015260606040840152835180606085015260005b81811015610ebd57858101830151858201608001528201610ea1565b506000608082860101526080601f19601f83011685010192505050949350505050565b81810381811115610ef357610ef3610cea565b92915050565b600082610f1657634e487b7160e01b600052601260045260246000fd5b500690565b818103610f26575050565b610f308254610d2f565b67ffffffffffffffff811115610f4857610f48610bfb565b610f5681610de28454610d2f565b6000601f821160018114610f8a5760008315610f725750848201545b600019600385901b1c1916600184901b178455610fef565b600085815260209020601f19841690600086815260209020845b83811015610fc45782860154825560019586019590910190602001610fa4565b5085831015610fe25781850154600019600388901b60f8161c191681555b50505060018360011b0184555b5050505050565b60008161100557611005610cea565b506000190190565b60006060820185835260018060a01b03808616602085015260606040850152818554808452608093508386019150838160051b870101600088815260208120815b8481101561112057898403607f190186528154878116855260a01c60ff166003811061107c5761107c610b8e565b602085015260606040850152600182018054849061109981610d2f565b80606089015260018216600081146110b857600181146110d257611104565b60ff198316898e015281151560051b89018d019350611104565b84885260208820885b838110156110fc5781548f828d0101526001820191506020810190506110db565b8a018e019450505b505050602097909701969450506002919091019060010161104e565b50919b9a505050505050505050505056fea2646970667358221220a7a18435d8c7cdcf97350467d0f00295ade8e8bdba93e091c8575e66345da16764736f6c63430008170033","bytecodeSha1":"7ca91f0972234c0cbe9fe628678b009847e8d8f0","compiler":{"evm_version":"istanbul","optimizer":{"enabled":true,"runs":200},"version":"0.8.23+commit.f704f362"},"contractName":"MainContract","language":"Solidity","natspec":{"kind":"dev","methods":{},"version":1},"opcodes":"PUSH1 0x80 PUSH1 0x40 MSTORE CALLVALUE DUP1 ISZERO PUSH2 0x10 JUMPI PUSH1 0x0 DUP1 REVERT JUMPDEST POP PUSH1 0x4 CALLDATASIZE LT PUSH2 0x7D JUMPI PUSH1 0x0 CALLDATALOAD PUSH1 0xE0 SHR DUP1 PUSH4 0xA04FCCD5 GT PUSH2 0x5B JUMPI DUP1 PUSH4 0xA04FCCD5 EQ PUSH2 0x121 JUMPI DUP1 PUSH4 0xDF886BCF EQ PUSH2 0x134 JUMPI DUP1 PUSH4 0xFDC3D8D7 EQ PUSH2 0x147 JUMPI DUP1 PUSH4 0xFE2FC83C EQ PUSH2 0x150 JUMPI PUSH1 0x0 DUP1 REVERT JUMPDEST DUP1 PUSH4 0x47CE07CC EQ PUSH2 0x82 JUMPI DUP1 PUSH4 0x5A232DFD EQ PUSH2 0x9E JUMPI DUP1 PUSH4 0x8D977672 EQ PUSH2 0xB3 JUMPI JUMPDEST PUSH1 0x0 DUP1 REVERT JUMPDEST PUSH2 0x8B PUSH1 0x2 SLOAD DUP2 JUMP JUMPDEST PUSH1 0x40 MLOAD SWAP1 DUP2 MSTORE PUSH1 0x20 ADD JUMPDEST PUSH1 0x40 MLOAD DUP1 SWAP2 SUB SWAP1 RETURN JUMPDEST PUSH2 0xB1 PUSH2 0xAC CALLDATASIZE PUSH1 0x4 PUSH2 0xB49 JUMP JUMPDEST PUSH2 0x17B JUMP JUMPDEST STOP JUMPDEST PUSH2 0x10D PUSH2 0xC1 CALLDATASIZE PUSH1 0x4 PUSH2 0xB75 JUMP JUMPDEST PUSH1 0x1 PUSH1 0x20 DUP2 SWAP1 MSTORE PUSH1 0x0 SWAP2 DUP3 MSTORE PUSH1 0x40 SWAP1 SWAP2 KECCAK256 DUP1 SLOAD SWAP2 DUP2 ADD SLOAD PUSH1 0x2 DUP3 ADD SLOAD PUSH1 0x3 DUP4 ADD SLOAD PUSH1 0x4 DUP5 ADD SLOAD PUSH1 0x7 SWAP1 SWAP5 ADD SLOAD SWAP3 SWAP4 SWAP2 SWAP3 SWAP1 SWAP2 SWAP1 PUSH1 0xFF DUP1 DUP3 AND SWAP2 PUSH2 0x100 DUP2 DIV DUP3 AND SWAP2 PUSH3 0x10000 SWAP1 SWAP2 DIV AND DUP9 JUMP JUMPDEST PUSH1 0x40 MLOAD PUSH2 0x95 SWAP9 SWAP8 SWAP7 SWAP6 SWAP5 SWAP4 SWAP3 SWAP2 SWAP1 PUSH2 0xBA4 JUMP JUMPDEST PUSH2 0xB1 PUSH2 0x12F CALLDATASIZE PUSH1 0x4 PUSH2 0xB75 JUMP JUMPDEST PUSH2 0x21F JUMP JUMPDEST PUSH2 0xB1 PUSH2 0x142 CALLDATASIZE PUSH1 0x4 PUSH2 0xC11 JUMP JUMPDEST PUSH2 0x3EB JUMP JUMPDEST PUSH2 0x8B PUSH1 0x0 SLOAD DUP2 JUMP JUMPDEST PUSH2 0x163 PUSH2 0x15E CALLDATASIZE PUSH1 0x4 PUSH2 0xB75 JUMP JUMPDEST PUSH2 0x73C JUMP JUMPDEST PUSH1 0x40 MLOAD PUSH1 0x1 PUSH1 0x1 PUSH1 0xA0 SHL SUB SWAP1 SWAP2 AND DUP2 MSTORE PUSH1 0x20 ADD PUSH2 0x95 JUMP JUMPDEST PUSH1 0x0 DUP1 SLOAD DUP1 DUP3 MSTORE PUSH1 0x1 PUSH1 0x20 DUP2 DUP2 MSTORE PUSH1 0x40 DUP1 DUP6 KECCAK256 SWAP4 DUP5 SSTORE DUP4 DUP4 ADD DUP9 SWAP1 SSTORE PUSH1 0x3 DUP5 ADD DUP8 SWAP1 SSTORE PUSH1 0x4 DUP5 ADD DUP7 SWAP1 SSTORE PUSH1 0x7 DUP5 ADD DUP1 SLOAD PUSH1 0x2 DUP7 ADD DUP8 SWAP1 SSTORE PUSH3 0xFFFFFF NOT AND SWAP1 SWAP4 OR SWAP1 SWAP3 SSTORE SWAP3 SLOAD DUP2 MLOAD SWAP1 DUP2 MSTORE SWAP3 DUP4 ADD DUP7 SWAP1 MSTORE DUP3 ADD DUP5 SWAP1 MSTORE PUSH1 0x60 DUP3 ADD DUP4 SWAP1 MSTORE SWAP1 PUSH32 0x4763FC6C5DFEE67F966A1C46C5A30319897C10D0F43E5922A75A24CC223A3431 SWAP1 PUSH1 0x80 ADD PUSH1 0x40 MLOAD DUP1 SWAP2 SUB SWAP1 LOG1 PUSH1 0x0 DUP1 SLOAD SWAP1 DUP1 PUSH2 0x214 DUP4 PUSH2 0xD00 JUMP JUMPDEST SWAP2 SWAP1 POP SSTORE POP POP POP POP POP JUMP JUMPDEST PUSH1 0x0 DUP2 DUP2 MSTORE PUSH1 0x1 PUSH1 0x20 MSTORE PUSH1 0x40 SWAP1 KECCAK256 PUSH1 0x3 DUP2 ADD SLOAD PUSH1 0x2 DUP3 ADD SLOAD GT ISZERO PUSH2 0x28A JUMPI PUSH1 0x40 MLOAD PUSH3 0x461BCD PUSH1 0xE5 SHL DUP2 MSTORE PUSH1 0x20 PUSH1 0x4 DUP3 ADD MSTORE PUSH1 0x18 PUSH1 0x24 DUP3 ADD MSTORE PUSH32 0x416C6C20697465726174696F6E7320636F6D706C657465640000000000000000 PUSH1 0x44 DUP3 ADD MSTORE PUSH1 0x64 ADD JUMPDEST PUSH1 0x40 MLOAD DUP1 SWAP2 SUB SWAP1 REVERT JUMPDEST PUSH2 0x293 DUP3 PUSH2 0x73C JUMP JUMPDEST PUSH1 0x1 PUSH1 0x1 PUSH1 0xA0 SHL SUB AND CALLER PUSH1 0x1 PUSH1 0x1 PUSH1 0xA0 SHL SUB AND EQ PUSH2 0x30B JUMPI PUSH1 0x40 MLOAD PUSH3 0x461BCD PUSH1 0xE5 SHL DUP2 MSTORE PUSH1 0x20 PUSH1 0x4 DUP3 ADD MSTORE PUSH1 0x2F PUSH1 0x24 DUP3 ADD MSTORE PUSH32 0x4F6E6C7920526F6F742041676772656761746F722063616E20636F6D706C6574 PUSH1 0x44 DUP3 ADD MSTORE PUSH15 0x32903A34329034BA32B930BA34B7B7 PUSH1 0x89 SHL PUSH1 0x64 DUP3 ADD MSTORE PUSH1 0x84 ADD PUSH2 0x281 JUMP JUMPDEST DUP1 PUSH1 0x3 ADD SLOAD DUP2 PUSH1 0x2 ADD SLOAD LT ISZERO PUSH2 0x329 JUMPI PUSH2 0x324 DUP3 PUSH2 0x77F JUMP JUMPDEST PUSH2 0x33D JUMP JUMPDEST PUSH1 0x7 DUP2 ADD DUP1 SLOAD PUSH3 0xFF0000 NOT AND PUSH3 0x10000 OR SWAP1 SSTORE JUMPDEST PUSH31 0x532D572723B77BDE7D24864991774E5EC17C4B544C0246F4B1C7F4E8D54B6E DUP3 DUP3 PUSH1 0x2 ADD SLOAD DUP4 PUSH1 0x6 ADD PUSH1 0x0 DUP2 SLOAD DUP2 LT PUSH2 0x379 JUMPI PUSH2 0x379 PUSH2 0xD19 JUMP JUMPDEST PUSH1 0x0 SWAP2 DUP3 MSTORE PUSH1 0x20 SWAP1 SWAP2 KECCAK256 PUSH1 0x2 SWAP1 SWAP2 MUL ADD SLOAD PUSH1 0x1 PUSH1 0x1 PUSH1 0xA0 SHL SUB AND PUSH1 0x1 PUSH1 0x7 DUP7 ADD SLOAD PUSH3 0x10000 SWAP1 DIV PUSH1 0xFF AND PUSH1 0x1 DUP2 GT ISZERO PUSH2 0x3B4 JUMPI PUSH2 0x3B4 PUSH2 0xB8E JUMP JUMPDEST PUSH1 0x40 DUP1 MLOAD SWAP6 DUP7 MSTORE PUSH1 0x20 DUP7 ADD SWAP5 SWAP1 SWAP5 MSTORE PUSH1 0x1 PUSH1 0x1 PUSH1 0xA0 SHL SUB SWAP1 SWAP3 AND SWAP3 DUP5 ADD SWAP3 SWAP1 SWAP3 MSTORE EQ PUSH1 0x60 DUP3 ADD MSTORE PUSH1 0x80 ADD JUMPDEST PUSH1 0x40 MLOAD DUP1 SWAP2 SUB SWAP1 LOG1 POP POP JUMP JUMPDEST PUSH1 0x0 DUP4 DUP2 MSTORE PUSH1 0x1 PUSH1 0x20 MSTORE PUSH1 0x40 SWAP1 KECCAK256 PUSH1 0x7 DUP2 ADD SLOAD PUSH1 0xFF AND PUSH2 0x444 JUMPI PUSH1 0x40 MLOAD PUSH3 0x461BCD PUSH1 0xE5 SHL DUP2 MSTORE PUSH1 0x20 PUSH1 0x4 DUP3 ADD MSTORE PUSH1 0x14 PUSH1 0x24 DUP3 ADD MSTORE PUSH20 0x15185CDAC81B9BDD081A5B9A5D1A585B1A5E9959 PUSH1 0x62 SHL PUSH1 0x44 DUP3 ADD MSTORE PUSH1 0x64 ADD PUSH2 0x281 JUMP JUMPDEST PUSH1 0x1 DUP2 ADD SLOAD PUSH1 0x5 DUP3 ADD SLOAD LT PUSH2 0x492 JUMPI PUSH1 0x40 MLOAD PUSH3 0x461BCD PUSH1 0xE5 SHL DUP2 MSTORE PUSH1 0x20 PUSH1 0x4 DUP3 ADD MSTORE PUSH1 0x14 PUSH1 0x24 DUP3 ADD MSTORE PUSH20 0x15185CDAC81A5CC8185B1C9958591E48199D5B1B PUSH1 0x62 SHL PUSH1 0x44 DUP3 ADD MSTORE PUSH1 0x64 ADD PUSH2 0x281 JUMP JUMPDEST PUSH1 0x40 DUP1 MLOAD PUSH1 0x60 DUP2 ADD DUP3 MSTORE PUSH1 0x1 PUSH1 0x1 PUSH1 0xA0 SHL SUB DUP6 DUP2 AND DUP3 MSTORE PUSH1 0x0 PUSH1 0x20 DUP1 DUP5 ADD DUP3 DUP2 MSTORE SWAP5 DUP5 ADD DUP8 SWAP1 MSTORE PUSH1 0x5 DUP7 ADD DUP1 SLOAD PUSH1 0x1 DUP2 ADD DUP3 SSTORE SWAP1 DUP4 MSTORE SWAP2 KECCAK256 DUP4 MLOAD PUSH1 0x2 SWAP3 DUP4 MUL SWAP1 SWAP2 ADD DUP1 SLOAD SWAP2 SWAP1 SWAP4 AND PUSH1 0x1 PUSH1 0x1 PUSH1 0xA0 SHL SUB NOT DUP3 AND DUP2 OR DUP5 SSTORE SWAP5 MLOAD SWAP4 SWAP5 SWAP3 SWAP4 SWAP3 DUP5 SWAP3 PUSH1 0x1 PUSH1 0x1 PUSH1 0xA8 SHL SUB NOT SWAP1 SWAP3 AND OR SWAP1 PUSH1 0x1 PUSH1 0xA0 SHL SWAP1 DUP5 SWAP1 DUP2 GT ISZERO PUSH2 0x517 JUMPI PUSH2 0x517 PUSH2 0xB8E JUMP JUMPDEST MUL OR SWAP1 SSTORE POP PUSH1 0x40 DUP3 ADD MLOAD PUSH1 0x1 DUP3 ADD SWAP1 PUSH2 0x530 SWAP1 DUP3 PUSH2 0xDBA JUMP JUMPDEST POP POP POP PUSH1 0x1 DUP2 ADD SLOAD PUSH1 0x5 DUP3 ADD SLOAD SUB PUSH2 0x6FB JUMPI PUSH1 0x7 DUP2 ADD DUP1 SLOAD PUSH2 0xFF00 NOT AND PUSH2 0x100 OR SWAP1 SSTORE PUSH1 0x5 DUP2 ADD SLOAD PUSH1 0x0 JUMPDEST DUP2 DUP2 LT ISZERO PUSH2 0x6EF JUMPI DUP3 PUSH1 0x6 ADD PUSH1 0x40 MLOAD DUP1 PUSH1 0x60 ADD PUSH1 0x40 MSTORE DUP1 DUP6 PUSH1 0x5 ADD DUP5 DUP2 SLOAD DUP2 LT PUSH2 0x587 JUMPI PUSH2 0x587 PUSH2 0xD19 JUMP JUMPDEST PUSH1 0x0 SWAP2 DUP3 MSTORE PUSH1 0x20 DUP1 DUP4 KECCAK256 PUSH1 0x2 SWAP1 SWAP3 MUL SWAP1 SWAP2 ADD SLOAD PUSH1 0x1 PUSH1 0x1 PUSH1 0xA0 SHL SUB AND DUP4 MSTORE SWAP2 SWAP1 SWAP2 ADD SWAP1 DUP2 MSTORE PUSH1 0x20 ADD DUP6 PUSH1 0x5 ADD DUP5 DUP2 SLOAD DUP2 LT PUSH2 0x5C4 JUMPI PUSH2 0x5C4 PUSH2 0xD19 JUMP JUMPDEST SWAP1 PUSH1 0x0 MSTORE PUSH1 0x20 PUSH1 0x0 KECCAK256 SWAP1 PUSH1 0x2 MUL ADD PUSH1 0x1 ADD DUP1 SLOAD PUSH2 0x5E0 SWAP1 PUSH2 0xD2F JUMP JUMPDEST DUP1 PUSH1 0x1F ADD PUSH1 0x20 DUP1 SWAP2 DIV MUL PUSH1 0x20 ADD PUSH1 0x40 MLOAD SWAP1 DUP2 ADD PUSH1 0x40 MSTORE DUP1 SWAP3 SWAP2 SWAP1 DUP2 DUP2 MSTORE PUSH1 0x20 ADD DUP3 DUP1 SLOAD PUSH2 0x60C SWAP1 PUSH2 0xD2F JUMP JUMPDEST DUP1 ISZERO PUSH2 0x659 JUMPI DUP1 PUSH1 0x1F LT PUSH2 0x62E JUMPI PUSH2 0x100 DUP1 DUP4 SLOAD DIV MUL DUP4 MSTORE SWAP2 PUSH1 0x20 ADD SWAP2 PUSH2 0x659 JUMP JUMPDEST DUP3 ADD SWAP2 SWAP1 PUSH1 0x0 MSTORE PUSH1 0x20 PUSH1 0x0 KECCAK256 SWAP1 JUMPDEST DUP2 SLOAD DUP2 MSTORE SWAP1 PUSH1 0x1 ADD SWAP1 PUSH1 0x20 ADD DUP1 DUP4 GT PUSH2 0x63C JUMPI DUP3 SWAP1 SUB PUSH1 0x1F AND DUP3 ADD SWAP2 JUMPDEST POP POP POP SWAP2 SWAP1 SWAP3 MSTORE POP POP DUP2 SLOAD PUSH1 0x1 DUP2 ADD DUP4 SSTORE PUSH1 0x0 SWAP3 DUP4 MSTORE PUSH1 0x20 SWAP3 DUP4 SWAP1 KECCAK256 DUP3 MLOAD PUSH1 0x2 SWAP3 DUP4 MUL SWAP1 SWAP2 ADD DUP1 SLOAD PUSH1 0x1 PUSH1 0x1 PUSH1 0xA0 SHL SUB SWAP1 SWAP3 AND PUSH1 0x1 PUSH1 0x1 PUSH1 0xA0 SHL SUB NOT DUP4 AND DUP2 OR DUP3 SSTORE SWAP5 DUP5 ADD MLOAD SWAP4 SWAP5 SWAP1 SWAP4 SWAP3 DUP5 SWAP3 PUSH1 0x1 PUSH1 0x1 PUSH1 0xA8 SHL SUB NOT AND SWAP1 SWAP2 OR SWAP1 PUSH1 0x1 PUSH1 0xA0 SHL SWAP1 DUP5 SWAP1 DUP2 GT ISZERO PUSH2 0x6CB JUMPI PUSH2 0x6CB PUSH2 0xB8E JUMP JUMPDEST MUL OR SWAP1 SSTORE POP PUSH1 0x40 DUP3 ADD MLOAD PUSH1 0x1 DUP3 ADD SWAP1 PUSH2 0x6E4 SWAP1 DUP3 PUSH2 0xDBA JUMP JUMPDEST POP POP POP PUSH1 0x1 ADD PUSH2 0x55B JUMP JUMPDEST POP PUSH2 0x6F9 DUP6 PUSH2 0x77F JUMP JUMPDEST POP JUMPDEST PUSH32 0x143C3536E28D56A1FAC3D14AF6DFD6931AB7363840DD200D22B6B16B26646559 DUP5 DUP5 DUP5 PUSH1 0x40 MLOAD PUSH2 0x72E SWAP4 SWAP3 SWAP2 SWAP1 PUSH2 0xE7A JUMP JUMPDEST PUSH1 0x40 MLOAD DUP1 SWAP2 SUB SWAP1 LOG1 POP POP POP POP JUMP JUMPDEST PUSH1 0x0 DUP2 DUP2 MSTORE PUSH1 0x1 PUSH1 0x20 MSTORE PUSH1 0x40 DUP2 KECCAK256 PUSH1 0x6 DUP2 ADD DUP1 SLOAD DUP4 SWAP1 PUSH2 0x75E JUMPI PUSH2 0x75E PUSH2 0xD19 JUMP JUMPDEST PUSH1 0x0 SWAP2 DUP3 MSTORE PUSH1 0x20 SWAP1 SWAP2 KECCAK256 PUSH1 0x2 SWAP1 SWAP2 MUL ADD SLOAD PUSH1 0x1 PUSH1 0x1 PUSH1 0xA0 SHL SUB AND SWAP4 SWAP3 POP POP POP JUMP JUMPDEST PUSH1 0x0 DUP2 DUP2 MSTORE PUSH1 0x1 PUSH1 0x20 MSTORE PUSH1 0x40 SWAP1 KECCAK256 PUSH1 0x7 DUP2 ADD SLOAD PUSH2 0x100 SWAP1 DIV PUSH1 0xFF AND PUSH2 0x7D9 JUMPI PUSH1 0x40 MLOAD PUSH3 0x461BCD PUSH1 0xE5 SHL DUP2 MSTORE PUSH1 0x20 PUSH1 0x4 DUP3 ADD MSTORE PUSH1 0x10 PUSH1 0x24 DUP3 ADD MSTORE PUSH16 0x15185CDAC81A5CC81B9BDD08199D5B1B PUSH1 0x82 SHL PUSH1 0x44 DUP3 ADD MSTORE PUSH1 0x64 ADD PUSH2 0x281 JUMP JUMPDEST PUSH2 0x7E2 DUP3 PUSH2 0x7FD JUMP JUMPDEST PUSH1 0x2 DUP2 ADD DUP1 SLOAD SWAP1 PUSH1 0x0 PUSH2 0x7F4 DUP4 PUSH2 0xD00 JUMP JUMPDEST SWAP2 SWAP1 POP SSTORE POP POP POP JUMP JUMPDEST PUSH1 0x0 DUP2 DUP2 MSTORE PUSH1 0x1 PUSH1 0x20 DUP2 SWAP1 MSTORE PUSH1 0x40 DUP3 KECCAK256 PUSH1 0x6 DUP2 ADD SLOAD SWAP1 SWAP3 SWAP2 PUSH2 0x81E SWAP2 PUSH2 0xEE0 JUMP JUMPDEST SWAP1 POP JUMPDEST DUP1 ISZERO PUSH2 0xAE3 JUMPI PUSH1 0x6 DUP3 ADD SLOAD PUSH1 0x0 SWAP1 PUSH2 0x83A SWAP1 DUP4 SWAP1 PUSH2 0xEE0 JUMP JUMPDEST PUSH2 0x844 SWAP1 TIMESTAMP PUSH2 0xEF9 JUMP JUMPDEST SWAP1 POP PUSH1 0x0 PUSH1 0x40 MLOAD DUP1 PUSH1 0x60 ADD PUSH1 0x40 MSTORE DUP1 DUP6 PUSH1 0x6 ADD DUP6 DUP2 SLOAD DUP2 LT PUSH2 0x868 JUMPI PUSH2 0x868 PUSH2 0xD19 JUMP JUMPDEST PUSH1 0x0 SWAP2 DUP3 MSTORE PUSH1 0x20 SWAP2 DUP3 SWAP1 KECCAK256 PUSH1 0x2 SWAP1 SWAP2 MUL ADD SLOAD PUSH1 0x1 PUSH1 0x1 PUSH1 0xA0 SHL SUB AND DUP3 MSTORE PUSH1 0x6 DUP8 ADD DUP1 SLOAD SWAP3 SWAP1 SWAP2 ADD SWAP2 DUP7 SWAP1 DUP2 LT PUSH2 0x8A0 JUMPI PUSH2 0x8A0 PUSH2 0xD19 JUMP JUMPDEST PUSH1 0x0 SWAP2 DUP3 MSTORE PUSH1 0x20 SWAP1 SWAP2 KECCAK256 PUSH1 0x2 SWAP2 DUP3 MUL ADD SLOAD PUSH1 0x1 PUSH1 0xA0 SHL SWAP1 DIV PUSH1 0xFF AND SWAP1 DUP2 GT ISZERO PUSH2 0x8CB JUMPI PUSH2 0x8CB PUSH2 0xB8E JUMP JUMPDEST DUP2 MSTORE PUSH1 0x20 ADD DUP6 PUSH1 0x6 ADD DUP6 DUP2 SLOAD DUP2 LT PUSH2 0x8E5 JUMPI PUSH2 0x8E5 PUSH2 0xD19 JUMP JUMPDEST SWAP1 PUSH1 0x0 MSTORE PUSH1 0x20 PUSH1 0x0 KECCAK256 SWAP1 PUSH1 0x2 MUL ADD PUSH1 0x1 ADD DUP1 SLOAD PUSH2 0x901 SWAP1 PUSH2 0xD2F JUMP JUMPDEST DUP1 PUSH1 0x1F ADD PUSH1 0x20 DUP1 SWAP2 DIV MUL PUSH1 0x20 ADD PUSH1 0x40 MLOAD SWAP1 DUP2 ADD PUSH1 0x40 MSTORE DUP1 SWAP3 SWAP2 SWAP1 DUP2 DUP2 MSTORE PUSH1 0x20 ADD DUP3 DUP1 SLOAD PUSH2 0x92D SWAP1 PUSH2 0xD2F JUMP JUMPDEST DUP1 ISZERO PUSH2 0x97A JUMPI DUP1 PUSH1 0x1F LT PUSH2 0x94F JUMPI PUSH2 0x100 DUP1 DUP4 SLOAD DIV MUL DUP4 MSTORE SWAP2 PUSH1 0x20 ADD SWAP2 PUSH2 0x97A JUMP JUMPDEST DUP3 ADD SWAP2 SWAP1 PUSH1 0x0 MSTORE PUSH1 0x20 PUSH1 0x0 KECCAK256 SWAP1 JUMPDEST DUP2 SLOAD DUP2 MSTORE SWAP1 PUSH1 0x1 ADD SWAP1 PUSH1 0x20 ADD DUP1 DUP4 GT PUSH2 0x95D JUMPI DUP3 SWAP1 SUB PUSH1 0x1F AND DUP3 ADD SWAP2 JUMPDEST POP POP POP POP POP DUP2 MSTORE POP SWAP1 POP DUP4 PUSH1 0x6 ADD DUP3 DUP2 SLOAD DUP2 LT PUSH2 0x999 JUMPI PUSH2 0x999 PUSH2 0xD19 JUMP JUMPDEST SWAP1 PUSH1 0x0 MSTORE PUSH1 0x20 PUSH1 0x0 KECCAK256 SWAP1 PUSH1 0x2 MUL ADD DUP5 PUSH1 0x6 ADD DUP5 DUP2 SLOAD DUP2 LT PUSH2 0x9BC JUMPI PUSH2 0x9BC PUSH2 0xD19 JUMP JUMPDEST PUSH1 0x0 SWAP2 DUP3 MSTORE PUSH1 0x20 SWAP1 SWAP2 KECCAK256 DUP3 SLOAD PUSH1 0x2 SWAP3 DUP4 MUL SWAP1 SWAP2 ADD DUP1 SLOAD PUSH1 0x1 PUSH1 0x1 PUSH1 0xA0 SHL SUB NOT DUP2 AND PUSH1 0x1 PUSH1 0x1 PUSH1 0xA0 SHL SUB SWAP1 SWAP4 AND SWAP3 DUP4 OR DUP3 SSTORE DUP5 SLOAD SWAP2 SWAP4 PUSH1 0xFF PUSH1 0x1 PUSH1 0xA0 SHL SWAP4 DUP5 SWAP1 DIV AND SWAP4 DUP6 SWAP4 PUSH1 0x1 PUSH1 0x1 PUSH1 0xA8 SHL SUB NOT SWAP1 SWAP4 AND OR SWAP2 SWAP1 DUP5 SWAP1 DUP2 GT ISZERO PUSH2 0xA20 JUMPI PUSH2 0xA20 PUSH2 0xB8E JUMP JUMPDEST MUL OR SWAP1 SSTORE POP PUSH1 0x1 DUP2 DUP2 ADD SWAP1 PUSH2 0xA37 SWAP1 DUP5 ADD DUP3 PUSH2 0xF1B JUMP JUMPDEST POP SWAP1 POP POP DUP1 DUP5 PUSH1 0x6 ADD DUP4 DUP2 SLOAD DUP2 LT PUSH2 0xA51 JUMPI PUSH2 0xA51 PUSH2 0xD19 JUMP JUMPDEST PUSH1 0x0 SWAP2 DUP3 MSTORE PUSH1 0x20 SWAP2 DUP3 SWAP1 KECCAK256 DUP4 MLOAD PUSH1 0x2 SWAP3 DUP4 MUL SWAP1 SWAP2 ADD DUP1 SLOAD PUSH1 0x1 PUSH1 0x1 PUSH1 0xA0 SHL SUB SWAP1 SWAP3 AND PUSH1 0x1 PUSH1 0x1 PUSH1 0xA0 SHL SUB NOT DUP4 AND DUP2 OR DUP3 SSTORE SWAP4 DUP6 ADD MLOAD SWAP1 SWAP4 SWAP1 SWAP3 DUP5 SWAP3 PUSH1 0x1 PUSH1 0x1 PUSH1 0xA8 SHL SUB NOT AND SWAP1 SWAP2 OR SWAP1 PUSH1 0x1 PUSH1 0xA0 SHL SWAP1 DUP5 SWAP1 DUP2 GT ISZERO PUSH2 0xAB1 JUMPI PUSH2 0xAB1 PUSH2 0xB8E JUMP JUMPDEST MUL OR SWAP1 SSTORE POP PUSH1 0x40 DUP3 ADD MLOAD PUSH1 0x1 DUP3 ADD SWAP1 PUSH2 0xACA SWAP1 DUP3 PUSH2 0xDBA JUMP JUMPDEST POP SWAP1 POP POP POP POP DUP1 DUP1 PUSH2 0xADB SWAP1 PUSH2 0xFF6 JUMP JUMPDEST SWAP2 POP POP PUSH2 0x821 JUMP JUMPDEST POP PUSH32 0x63A35D37247FF97E2BF84C9F8658F07329E2F1379712F021E2A795D414E1A6F5 DUP3 DUP3 PUSH1 0x6 ADD PUSH1 0x0 DUP2 SLOAD DUP2 LT PUSH2 0xB1C JUMPI PUSH2 0xB1C PUSH2 0xD19 JUMP JUMPDEST PUSH1 0x0 SWAP2 DUP3 MSTORE PUSH1 0x20 SWAP1 SWAP2 KECCAK256 PUSH1 0x2 SWAP1 SWAP2 MUL ADD SLOAD PUSH1 0x40 MLOAD PUSH2 0x3DF SWAP3 SWAP2 PUSH1 0x1 PUSH1 0x1 PUSH1 0xA0 SHL SUB AND SWAP1 PUSH1 0x6 DUP7 ADD SWAP1 PUSH2 0x100D JUMP JUMPDEST PUSH1 0x0 DUP1 PUSH1 0x0 PUSH1 0x60 DUP5 DUP7 SUB SLT ISZERO PUSH2 0xB5E JUMPI PUSH1 0x0 DUP1 REVERT JUMPDEST POP POP DUP2 CALLDATALOAD SWAP4 PUSH1 0x20 DUP4 ADD CALLDATALOAD SWAP4 POP PUSH1 0x40 SWAP1 SWAP3 ADD CALLDATALOAD SWAP2 SWAP1 POP JUMP JUMPDEST PUSH1 0x0 PUSH1 0x20 DUP3 DUP5 SUB SLT ISZERO PUSH2 0xB87 JUMPI PUSH1 0x0 DUP1 REVERT JUMPDEST POP CALLDATALOAD SWAP2 SWAP1 POP JUMP JUMPDEST PUSH4 0x4E487B71 PUSH1 0xE0 SHL PUSH1 0x0 MSTORE PUSH1 0x21 PUSH1 0x4 MSTORE PUSH1 0x24 PUSH1 0x0 REVERT JUMPDEST PUSH1 0x0 PUSH2 0x100 DUP3 ADD SWAP1 POP DUP10 DUP3 MSTORE DUP9 PUSH1 0x20 DUP4 ADD MSTORE DUP8 PUSH1 0x40 DUP4 ADD MSTORE DUP7 PUSH1 0x60 DUP4 ADD MSTORE DUP6 PUSH1 0x80 DUP4 ADD MSTORE DUP5 ISZERO ISZERO PUSH1 0xA0 DUP4 ADD MSTORE DUP4 ISZERO ISZERO PUSH1 0xC0 DUP4 ADD MSTORE PUSH1 0x2 DUP4 LT PUSH2 0xBE8 JUMPI PUSH2 0xBE8 PUSH2 0xB8E JUMP JUMPDEST DUP3 PUSH1 0xE0 DUP4 ADD MSTORE SWAP10 SWAP9 POP POP POP POP POP POP POP POP POP JUMP JUMPDEST PUSH4 0x4E487B71 PUSH1 0xE0 SHL PUSH1 0x0 MSTORE PUSH1 0x41 PUSH1 0x4 MSTORE PUSH1 0x24 PUSH1 0x0 REVERT JUMPDEST PUSH1 0x0 DUP1 PUSH1 0x0 PUSH1 0x60 DUP5 DUP7 SUB SLT ISZERO PUSH2 0xC26 JUMPI PUSH1 0x0 DUP1 REVERT JUMPDEST DUP4 CALLDATALOAD SWAP3 POP PUSH1 0x20 DUP5 ADD CALLDATALOAD PUSH1 0x1 PUSH1 0x1 PUSH1 0xA0 SHL SUB DUP2 AND DUP2 EQ PUSH2 0xC44 JUMPI PUSH1 0x0 DUP1 REVERT JUMPDEST SWAP2 POP PUSH1 0x40 DUP5 ADD CALLDATALOAD PUSH8 0xFFFFFFFFFFFFFFFF DUP1 DUP3 GT ISZERO PUSH2 0xC61 JUMPI PUSH1 0x0 DUP1 REVERT JUMPDEST DUP2 DUP7 ADD SWAP2 POP DUP7 PUSH1 0x1F DUP4 ADD SLT PUSH2 0xC75 JUMPI PUSH1 0x0 DUP1 REVERT JUMPDEST DUP2 CALLDATALOAD DUP2 DUP2 GT ISZERO PUSH2 0xC87 JUMPI PUSH2 0xC87 PUSH2 0xBFB JUMP JUMPDEST PUSH1 0x40 MLOAD PUSH1 0x1F DUP3 ADD PUSH1 0x1F NOT SWAP1 DUP2 AND PUSH1 0x3F ADD AND DUP2 ADD SWAP1 DUP4 DUP3 GT DUP2 DUP4 LT OR ISZERO PUSH2 0xCAF JUMPI PUSH2 0xCAF PUSH2 0xBFB JUMP JUMPDEST DUP2 PUSH1 0x40 MSTORE DUP3 DUP2 MSTORE DUP10 PUSH1 0x20 DUP5 DUP8 ADD ADD GT ISZERO PUSH2 0xCC8 JUMPI PUSH1 0x0 DUP1 REVERT JUMPDEST DUP3 PUSH1 0x20 DUP7 ADD PUSH1 0x20 DUP4 ADD CALLDATACOPY PUSH1 0x0 PUSH1 0x20 DUP5 DUP4 ADD ADD MSTORE DUP1 SWAP6 POP POP POP POP POP POP SWAP3 POP SWAP3 POP SWAP3 JUMP JUMPDEST PUSH4 0x4E487B71 PUSH1 0xE0 SHL PUSH1 0x0 MSTORE PUSH1 0x11 PUSH1 0x4 MSTORE PUSH1 0x24 PUSH1 0x0 REVERT JUMPDEST PUSH1 0x0 PUSH1 0x1 DUP3 ADD PUSH2 0xD12 JUMPI PUSH2 0xD12 PUSH2 0xCEA JUMP JUMPDEST POP PUSH1 0x1 ADD SWAP1 JUMP JUMPDEST PUSH4 0x4E487B71 PUSH1 0xE0 SHL PUSH1 0x0 MSTORE PUSH1 0x32 PUSH1 0x4 MSTORE PUSH1 0x24 PUSH1 0x0 REVERT JUMPDEST PUSH1 0x1 DUP2 DUP2 SHR SWAP1 DUP3 AND DUP1 PUSH2 0xD43 JUMPI PUSH1 0x7F DUP3 AND SWAP2 POP JUMPDEST PUSH1 0x20 DUP3 LT DUP2 SUB PUSH2 0xD63 JUMPI PUSH4 0x4E487B71 PUSH1 0xE0 SHL PUSH1 0x0 MSTORE PUSH1 0x22 PUSH1 0x4 MSTORE PUSH1 0x24 PUSH1 0x0 REVERT JUMPDEST POP SWAP2 SWAP1 POP JUMP JUMPDEST PUSH1 0x1F DUP3 GT ISZERO PUSH2 0xDB5 JUMPI PUSH1 0x0 DUP2 PUSH1 0x0 MSTORE PUSH1 0x20 PUSH1 0x0 KECCAK256 PUSH1 0x1F DUP6 ADD PUSH1 0x5 SHR DUP2 ADD PUSH1 0x20 DUP7 LT ISZERO PUSH2 0xD92 JUMPI POP DUP1 JUMPDEST PUSH1 0x1F DUP6 ADD PUSH1 0x5 SHR DUP3 ADD SWAP2 POP JUMPDEST DUP2 DUP2 LT ISZERO PUSH2 0xDB1 JUMPI DUP3 DUP2 SSTORE PUSH1 0x1 ADD PUSH2 0xD9E JUMP JUMPDEST POP POP POP JUMPDEST POP POP POP JUMP JUMPDEST DUP2 MLOAD PUSH8 0xFFFFFFFFFFFFFFFF DUP2 GT ISZERO PUSH2 0xDD4 JUMPI PUSH2 0xDD4 PUSH2 0xBFB JUMP JUMPDEST PUSH2 0xDE8 DUP2 PUSH2 0xDE2 DUP5 SLOAD PUSH2 0xD2F JUMP JUMPDEST DUP5 PUSH2 0xD69 JUMP JUMPDEST PUSH1 0x20 DUP1 PUSH1 0x1F DUP4 GT PUSH1 0x1 DUP2 EQ PUSH2 0xE1D JUMPI PUSH1 0x0 DUP5 ISZERO PUSH2 0xE05 JUMPI POP DUP6 DUP4 ADD MLOAD JUMPDEST PUSH1 0x0 NOT PUSH1 0x3 DUP7 SWAP1 SHL SHR NOT AND PUSH1 0x1 DUP6 SWAP1 SHL OR DUP6 SSTORE PUSH2 0xDB1 JUMP JUMPDEST PUSH1 0x0 DUP6 DUP2 MSTORE PUSH1 0x20 DUP2 KECCAK256 PUSH1 0x1F NOT DUP7 AND SWAP2 JUMPDEST DUP3 DUP2 LT ISZERO PUSH2 0xE4C JUMPI DUP9 DUP7 ADD MLOAD DUP3 SSTORE SWAP5 DUP5 ADD SWAP5 PUSH1 0x1 SWAP1 SWAP2 ADD SWAP1 DUP5 ADD PUSH2 0xE2D JUMP JUMPDEST POP DUP6 DUP3 LT ISZERO PUSH2 0xE6A JUMPI DUP8 DUP6 ADD MLOAD PUSH1 0x0 NOT PUSH1 0x3 DUP9 SWAP1 SHL PUSH1 0xF8 AND SHR NOT AND DUP2 SSTORE JUMPDEST POP POP POP POP POP PUSH1 0x1 SWAP1 DUP2 SHL ADD SWAP1 SSTORE POP JUMP JUMPDEST DUP4 DUP2 MSTORE PUSH1 0x0 PUSH1 0x20 PUSH1 0x1 DUP1 PUSH1 0xA0 SHL SUB DUP6 AND PUSH1 0x20 DUP5 ADD MSTORE PUSH1 0x60 PUSH1 0x40 DUP5 ADD MSTORE DUP4 MLOAD DUP1 PUSH1 0x60 DUP6 ADD MSTORE PUSH1 0x0 JUMPDEST DUP2 DUP2 LT ISZERO PUSH2 0xEBD JUMPI DUP6 DUP2 ADD DUP4 ADD MLOAD DUP6 DUP3 ADD PUSH1 0x80 ADD MSTORE DUP3 ADD PUSH2 0xEA1 JUMP JUMPDEST POP PUSH1 0x0 PUSH1 0x80 DUP3 DUP7 ADD ADD MSTORE PUSH1 0x80 PUSH1 0x1F NOT PUSH1 0x1F DUP4 ADD AND DUP6 ADD ADD SWAP3 POP POP POP SWAP5 SWAP4 POP POP POP POP JUMP JUMPDEST DUP2 DUP2 SUB DUP2 DUP2 GT ISZERO PUSH2 0xEF3 JUMPI PUSH2 0xEF3 PUSH2 0xCEA JUMP JUMPDEST SWAP3 SWAP2 POP POP JUMP JUMPDEST PUSH1 0x0 DUP3 PUSH2 0xF16 JUMPI PUSH4 0x4E487B71 PUSH1 0xE0 SHL PUSH1 0x0 MSTORE PUSH1 0x12 PUSH1 0x4 MSTORE PUSH1 0x24 PUSH1 0x0 REVERT JUMPDEST POP MOD SWAP1 JUMP JUMPDEST DUP2 DUP2 SUB PUSH2 0xF26 JUMPI POP POP JUMP JUMPDEST PUSH2 0xF30 DUP3 SLOAD PUSH2 0xD2F JUMP JUMPDEST PUSH8 0xFFFFFFFFFFFFFFFF DUP2 GT ISZERO PUSH2 0xF48 JUMPI PUSH2 0xF48 PUSH2 0xBFB JUMP JUMPDEST PUSH2 0xF56 DUP2 PUSH2 0xDE2 DUP5 SLOAD PUSH2 0xD2F JUMP JUMPDEST PUSH1 0x0 PUSH1 0x1F DUP3 GT PUSH1 0x1 DUP2 EQ PUSH2 0xF8A JUMPI PUSH1 0x0 DUP4 ISZERO PUSH2 0xF72 JUMPI POP DUP5 DUP3 ADD SLOAD JUMPDEST PUSH1 0x0 NOT PUSH1 0x3 DUP6 SWAP1 SHL SHR NOT AND PUSH1 0x1 DUP5 SWAP1 SHL OR DUP5 SSTORE PUSH2 0xFEF JUMP JUMPDEST PUSH1 0x0 DUP6 DUP2 MSTORE PUSH1 0x20 SWAP1 KECCAK256 PUSH1 0x1F NOT DUP5 AND SWAP1 PUSH1 0x0 DUP7 DUP2 MSTORE PUSH1 0x20 SWAP1 KECCAK256 DUP5 JUMPDEST DUP4 DUP2 LT ISZERO PUSH2 0xFC4 JUMPI DUP3 DUP7 ADD SLOAD DUP3 SSTORE PUSH1 0x1 SWAP6 DUP7 ADD SWAP6 SWAP1 SWAP2 ADD SWAP1 PUSH1 0x20 ADD PUSH2 0xFA4 JUMP JUMPDEST POP DUP6 DUP4 LT ISZERO PUSH2 0xFE2 JUMPI DUP2 DUP6 ADD SLOAD PUSH1 0x0 NOT PUSH1 0x3 DUP9 SWAP1 SHL PUSH1 0xF8 AND SHR NOT AND DUP2 SSTORE JUMPDEST POP POP POP PUSH1 0x1 DUP4 PUSH1 0x1 SHL ADD DUP5 SSTORE JUMPDEST POP POP POP POP POP JUMP JUMPDEST PUSH1 0x0 DUP2 PUSH2 0x1005 JUMPI PUSH2 0x1005 PUSH2 0xCEA JUMP JUMPDEST POP PUSH1 0x0 NOT ADD SWAP1 JUMP JUMPDEST PUSH1 0x0 PUSH1 0x60 DUP3 ADD DUP6 DUP4 MSTORE PUSH1 0x1 DUP1 PUSH1 0xA0 SHL SUB DUP1 DUP7 AND PUSH1 0x20 DUP6 ADD MSTORE PUSH1 0x60 PUSH1 0x40 DUP6 ADD MSTORE DUP2 DUP6 SLOAD DUP1 DUP5 MSTORE PUSH1 0x80 SWAP4 POP DUP4 DUP7 ADD SWAP2 POP DUP4 DUP2 PUSH1 0x5 SHL DUP8 ADD ADD PUSH1 0x0 DUP9 DUP2 MSTORE PUSH1 0x20 DUP2 KECCAK256 DUP2 JUMPDEST DUP5 DUP2 LT ISZERO PUSH2 0x1120 JUMPI DUP10 DUP5 SUB PUSH1 0x7F NOT ADD DUP7 MSTORE DUP2 SLOAD DUP8 DUP2 AND DUP6 MSTORE PUSH1 0xA0 SHR PUSH1 0xFF AND PUSH1 0x3 DUP2 LT PUSH2 0x107C JUMPI PUSH2 0x107C PUSH2 0xB8E JUMP JUMPDEST PUSH1 0x20 DUP6 ADD MSTORE PUSH1 0x60 PUSH1 0x40 DUP6 ADD MSTORE PUSH1 0x1 DUP3 ADD DUP1 SLOAD DUP5 SWAP1 PUSH2 0x1099 DUP2 PUSH2 0xD2F JUMP JUMPDEST DUP1 PUSH1 0x60 DUP10 ADD MSTORE PUSH1 0x1 DUP3 AND PUSH1 0x0 DUP2 EQ PUSH2 0x10B8 JUMPI PUSH1 0x1 DUP2 EQ PUSH2 0x10D2 JUMPI PUSH2 0x1104 JUMP JUMPDEST PUSH1 0xFF NOT DUP4 AND DUP10 DUP15 ADD MSTORE DUP2 ISZERO ISZERO PUSH1 0x5 SHL DUP10 ADD DUP14 ADD SWAP4 POP PUSH2 0x1104 JUMP JUMPDEST DUP5 DUP9 MSTORE PUSH1 0x20 DUP9 KECCAK256 DUP9 JUMPDEST DUP4 DUP2 LT ISZERO PUSH2 0x10FC JUMPI DUP2 SLOAD DUP16 DUP3 DUP14 ADD ADD MSTORE PUSH1 0x1 DUP3 ADD SWAP2 POP PUSH1 0x20 DUP2 ADD SWAP1 POP PUSH2 0x10DB JUMP JUMPDEST DUP11 ADD DUP15 ADD SWAP5 POP POP JUMPDEST POP POP POP PUSH1 0x20 SWAP8 SWAP1 SWAP8 ADD SWAP7 SWAP5 POP POP PUSH1 0x2 SWAP2 SWAP1 SWAP2 ADD SWAP1 PUSH1 0x1 ADD PUSH2 0x104E JUMP JUMPDEST POP SWAP2 SWAP12 SWAP11 POP POP POP POP POP POP POP POP POP POP POP JUMP INVALID LOG2 PUSH5 0x6970667358 0x22 SLT KECCAK256 0xA7 LOG1 DUP5 CALLDATALOAD 0xD8 0xC7 0xCD 0xCF SWAP8 CALLDATALOAD DIV PUSH8 0xD0F00295ADE8E8BD 0xBA SWAP4 0xE0 SWAP2 0xC8 JUMPI 0x5E PUSH7 0x345DA16764736F PUSH13 0x63430008170033000000000000 ","sha1":"9ae7c780538b5fa0591fec70011140004c0e2589","source":"// SPDX-License-Identifier: MIT\npragma solidity ^0.8.9;\n\ncontract MainContract {\n    enum Role { Worker, SubAggregator, RootAggregator }\n    enum TaskStatus { Pending, Completed }\n\n    struct User {\n        address userAddress;\n        Role role;\n        string ip;\n    }\n\n    struct TreeNode {\n        address userAddress;\n        Role role;\n        string ip;\n    }\n\n    struct Task {\n        uint256 id;\n        uint256 requiredUsers;\n        uint256 currentIteration;\n        uint256 totalIterations;\n        uint256 fundingAmount;\n        User[] users;\n        TreeNode[] tree;\n        bool isInitialized;\n        bool isFull; \n        TaskStatus status;\n        mapping(address => uint256) contributions;\n    }\n\n    uint256 public nextTaskId;\n    mapping(uint256 => Task) public tasks;\n\n    event TaskInitialized(uint256 taskId, uint256 requiredUsers, uint256 totalIterations, uint256 fundingAmount);\n    event UserAdded(uint256 taskId, address user, string ip);\n    event IterationComplete(uint256 taskId, uint256 iteration, address rootAggregator, bool complete);\n    event TreeStructureGenerated(uint256 taskId, address rootAggregator, TreeNode[] tree);\n\n    function initTask(uint256 requiredUsers, uint256 totalIterations, uint256 fundingAmount) public {\n        Task storage newTask = tasks[nextTaskId];\n        newTask.id = nextTaskId;\n        newTask.requiredUsers = requiredUsers;\n        newTask.totalIterations = totalIterations;\n        newTask.fundingAmount = fundingAmount;\n        newTask.isInitialized = true;\n        newTask.isFull = false;\n        newTask.currentIteration = 0;\n        newTask.status = TaskStatus.Pending;\n\n        emit TaskInitialized(nextTaskId, requiredUsers, totalIterations, fundingAmount);\n        nextTaskId++;\n    }\n\n    function addUser(uint256 taskId, address userAddress, string memory ip) public {\n        Task storage task = tasks[taskId];\n        require(task.isInitialized, \"Task not initialized\");\n        require(task.users.length < task.requiredUsers, \"Task is already full\");\n\n        task.users.push(User({ userAddress: userAddress, role: Role.Worker, ip: ip}));\n        if (task.users.length == task.requiredUsers) {\n            task.isFull = true;\n            uint256 numUsers = task.users.length;\n            for (uint256 i = 0; i < numUsers; i++) {\n                task.tree.push(TreeNode({\n                    userAddress: task.users[i].userAddress,\n                    role: Role.Worker,\n                    ip: task.users[i].ip\n                }));\n            }\n            startIteration(taskId);\n        }\n\n        emit UserAdded(taskId, userAddress, ip);\n    }\n\n    function startIteration(uint256 taskId) internal {\n        Task storage task = tasks[taskId];\n        require(task.isFull, \"Task is not full\");\n        generateTreeStructure(taskId);\n        task.currentIteration++;\n    }\n\n    /*\n    function completeIteration(uint256 taskId, address[] memory contributors, uint256[] memory values) public {\n        Task storage task = tasks[taskId];\n        require(task.currentIteration <= task.totalIterations, \"All iterations completed\");\n        require(msg.sender == getRootAggregatorAddress(taskId), \"Only Root Aggregator can complete the iteration\");\n\n        uint256 totalContributionForIteration = 1000;\n        for (uint256 i = 0; i < contributors.length; i++) {\n            uint256 contributionPercentage = (values[i] * 100) / totalContributionForIteration;\n            task.contributions[contributors[i]] += contributionPercentage;\n        }\n\n        if (task.currentIteration < task.totalIterations) {\n            startIteration(taskId);\n        } else {\n            distributeFunds(taskId);\n            task.status = TaskStatus.Completed;\n        }\n\n        emit IterationComplete(taskId, task.currentIteration, task.tree[0].userAddress);\n    }\n    */\n\n    function completeIteration(uint256 taskId) public {\n        Task storage task = tasks[taskId];\n        require(task.currentIteration <= task.totalIterations, \"All iterations completed\");\n        require(msg.sender == getRootAggregatorAddress(taskId), \"Only Root Aggregator can complete the iteration\");\n\n        if (task.currentIteration < task.totalIterations) {\n            startIteration(taskId);\n        } else {\n            // distributeFunds(taskId);\n            task.status = TaskStatus.Completed;\n        }\n\n        emit IterationComplete(taskId, task.currentIteration, task.tree[0].userAddress, task.status == TaskStatus.Completed);\n    }\n\n    function distributeFunds(uint256 taskId) internal {\n        Task storage task = tasks[taskId];\n        uint256 totalFund = task.fundingAmount;\n\n        for (uint256 i = 0; i < task.users.length; i++) {\n            address userAddress = task.users[i].userAddress;\n            uint256 userContributionPercentage = task.contributions[userAddress];\n            uint256 userShare = (totalFund * userContributionPercentage) / 100;\n            payable(userAddress).transfer(userShare);\n        }\n    }\n\n    uint256 public entropy = block.timestamp;\n\n    function generateTreeStructure(uint256 taskId) internal {\n        Task storage task = tasks[taskId];\n        \n\n        for(uint256 i = task.tree.length -1 ; i > 0; i--) {\n\n            uint256 swapIndex = block.timestamp % (task.tree.length - i);\n\n            TreeNode memory temp = TreeNode({\n                userAddress: task.tree[i].userAddress,\n                role: task.tree[i].role,\n                ip: task.tree[i].ip\n            });\n\n            task.tree[i] = task.tree[swapIndex];\n            task.tree[swapIndex] = temp;\n        }\n\n        emit TreeStructureGenerated(taskId, task.tree[0].userAddress, task.tree);\n    }\n\n    function getRootAggregatorAddress(uint256 taskId) public view returns (address) {\n        Task storage task = tasks[taskId];\n        return task.tree[0].userAddress;\n    }\n}\n","sourcePath":"contracts/MainContract.sol","type":"contract"}