{
  "abi": [
    {
      "anonymous": false,
      "inputs": [
        {
          "indexed": false,
          "internalType": "uint256",
          "name": "taskId",
          "type": "uint256"
        },
        {
          "indexed": false,
          "internalType": "uint256",
          "name": "iteration",
          "type": "uint256"
        },
        {
          "indexed": false,
          "internalType": "address",
          "name": "rootAggregator",
          "type": "address"
        }
      ],
      "name": "IterationComplete",
      "type": "event"
    },
    {
      "anonymous": false,
      "inputs": [
        {
          "indexed": false,
          "internalType": "uint256",
          "name": "taskId",
          "type": "uint256"
        },
        {
          "indexed": false,
          "internalType": "uint256",
          "name": "requiredUsers",
          "type": "uint256"
        },
        {
          "indexed": false,
          "internalType": "uint256",
          "name": "totalIterations",
          "type": "uint256"
        },
        {
          "indexed": false,
          "internalType": "uint256",
          "name": "fundingAmount",
          "type": "uint256"
        }
      ],
      "name": "TaskInitialized",
      "type": "event"
    },
    {
      "anonymous": false,
      "inputs": [
        {
          "indexed": false,
          "internalType": "uint256",
          "name": "taskId",
          "type": "uint256"
        },
        {
          "indexed": false,
          "internalType": "address",
          "name": "rootAggregator",
          "type": "address"
        },
        {
          "components": [
            {
              "internalType": "address",
              "name": "userAddress",
              "type": "address"
            },
            {
              "internalType": "enum MainContract.Role",
              "name": "role",
              "type": "uint8"
            },
            {
              "internalType": "uint256",
              "name": "leftChild",
              "type": "uint256"
            },
            {
              "internalType": "uint256",
              "name": "rightChild",
              "type": "uint256"
            },
            {
              "internalType": "string",
              "name": "ip",
              "type": "string"
            }
          ],
          "indexed": false,
          "internalType": "struct MainContract.TreeNode[]",
          "name": "tree",
          "type": "tuple[]"
        }
      ],
      "name": "TreeStructureGenerated",
      "type": "event"
    },
    {
      "anonymous": false,
      "inputs": [
        {
          "indexed": false,
          "internalType": "uint256",
          "name": "taskId",
          "type": "uint256"
        },
        {
          "indexed": false,
          "internalType": "address",
          "name": "user",
          "type": "address"
        },
        {
          "indexed": false,
          "internalType": "string",
          "name": "ip",
          "type": "string"
        }
      ],
      "name": "UserAdded",
      "type": "event"
    },
    {
      "inputs": [
        {
          "internalType": "uint256",
          "name": "taskId",
          "type": "uint256"
        },
        {
          "internalType": "address",
          "name": "userAddress",
          "type": "address"
        },
        {
          "internalType": "string",
          "name": "ip",
          "type": "string"
        }
      ],
      "name": "addUser",
      "outputs": [],
      "stateMutability": "nonpayable",
      "type": "function"
    },
    {
      "inputs": [
        {
          "internalType": "uint256",
          "name": "taskId",
          "type": "uint256"
        },
        {
          "internalType": "address[]",
          "name": "contributors",
          "type": "address[]"
        },
        {
          "internalType": "uint256[]",
          "name": "values",
          "type": "uint256[]"
        }
      ],
      "name": "completeIteration",
      "outputs": [],
      "stateMutability": "nonpayable",
      "type": "function"
    },
    {
      "inputs": [
        {
          "internalType": "uint256",
          "name": "taskId",
          "type": "uint256"
        }
      ],
      "name": "getRootAggregatorAddress",
      "outputs": [
        {
          "internalType": "address",
          "name": "",
          "type": "address"
        }
      ],
      "stateMutability": "view",
      "type": "function"
    },
    {
      "inputs": [
        {
          "internalType": "uint256",
          "name": "requiredUsers",
          "type": "uint256"
        },
        {
          "internalType": "uint256",
          "name": "totalIterations",
          "type": "uint256"
        },
        {
          "internalType": "uint256",
          "name": "fundingAmount",
          "type": "uint256"
        }
      ],
      "name": "initTask",
      "outputs": [
        {
          "internalType": "uint256",
          "name": "",
          "type": "uint256"
        }
      ],
      "stateMutability": "nonpayable",
      "type": "function"
    },
    {
      "inputs": [],
      "name": "nextTaskId",
      "outputs": [
        {
          "internalType": "uint256",
          "name": "",
          "type": "uint256"
        }
      ],
      "stateMutability": "view",
      "type": "function"
    },
    {
      "inputs": [
        {
          "internalType": "uint256",
          "name": "",
          "type": "uint256"
        }
      ],
      "name": "tasks",
      "outputs": [
        {
          "internalType": "uint256",
          "name": "id",
          "type": "uint256"
        },
        {
          "internalType": "uint256",
          "name": "requiredUsers",
          "type": "uint256"
        },
        {
          "internalType": "uint256",
          "name": "currentIteration",
          "type": "uint256"
        },
        {
          "internalType": "uint256",
          "name": "totalIterations",
          "type": "uint256"
        },
        {
          "internalType": "uint256",
          "name": "fundingAmount",
          "type": "uint256"
        },
        {
          "internalType": "bool",
          "name": "isInitialized",
          "type": "bool"
        },
        {
          "internalType": "bool",
          "name": "isFull",
          "type": "bool"
        },
        {
          "internalType": "enum MainContract.TaskStatus",
          "name": "status",
          "type": "uint8"
        }
      ],
      "stateMutability": "view",
      "type": "function"
    }
  ],
  "bytecode": "608060405234801561001057600080fd5b50611225806100206000396000f3fe608060405234801561001057600080fd5b50600436106100625760003560e01c80635a232dfd146100675780637c9c90071461008d5780638d977672146100a2578063df886bcf14610110578063fdc3d8d714610123578063fe2fc83c1461012c575b600080fd5b61007a610075366004610b48565b610157565b6040519081526020015b60405180910390f35b6100a061009b366004610c6a565b6101fe565b005b6100fc6100b0366004610d35565b60016020819052600091825260409091208054918101546002820154600383015460048401546007909401549293919290919060ff808216916101008104821691620100009091041688565b604051610084989796959493929190610d64565b6100a061011e366004610dbb565b610446565b61007a60005481565b61013f61013a366004610d35565b6105f8565b6040516001600160a01b039091168152602001610084565b6000805480825260016020818152604080852093845583830188905560038401879055600484018690556007840180546002860187905562ffffff191690931790925583548251908152908101879052908101859052606081018490527f4763fc6c5dfee67f966a1c46c5a30319897c10d0f43e5922a75a24cc223a34319060800160405180910390a16000805490806101f083610e80565b909155505054949350505050565b60008381526001602052604090206003810154600282015411156102695760405162461bcd60e51b815260206004820152601860248201527f416c6c20697465726174696f6e7320636f6d706c65746564000000000000000060448201526064015b60405180910390fd5b610272846105f8565b6001600160a01b0316336001600160a01b0316146102ea5760405162461bcd60e51b815260206004820152602f60248201527f4f6e6c7920526f6f742041676772656761746f722063616e20636f6d706c657460448201526e32903a34329034ba32b930ba34b7b760891b6064820152608401610260565b6103e860005b845181101561038c5760008285838151811061030e5761030e610e99565b602002602001015160646103229190610eaf565b61032c9190610ecc565b90508084600801600088858151811061034757610347610e99565b60200260200101516001600160a01b03166001600160a01b03168152602001908152602001600020600082825461037e9190610eee565b9091555050506001016102f0565b508160030154826002015410156103ab576103a68561063b565b6103c8565b6103b4856106b9565b60078201805462ff00001916620100001790555b7f4eeaaf26e92f2c1dd158d49e5c5a5ffa5ea6fe06bb1e237680b960b5ffb6497f8583600201548460060160008154811061040557610405610e99565b60009182526020918290206004909102015460408051948552918401929092526001600160a01b039091169082015260600160405180910390a15050505050565b6000838152600160205260409020600781015460ff1661049f5760405162461bcd60e51b815260206004820152601460248201527315185cdac81b9bdd081a5b9a5d1a585b1a5e995960621b6044820152606401610260565b60018101546005820154106104ed5760405162461bcd60e51b815260206004820152601460248201527315185cdac81a5cc8185b1c9958591e48199d5b1b60621b6044820152606401610260565b604080516060810182526001600160a01b038581168252600060208084018281529484018790526005860180546001810182559083529120835160029283029091018054919093166001600160a01b03198216811784559451939492939284926001600160a81b03199092161790600160a01b90849081111561057257610572610d4e565b02179055506040820151600182019061058b9082610f8c565b50505060018101546005820154036105b75760078101805461ff0019166101001790556105b78461063b565b7f143c3536e28d56a1fac3d14af6dfd6931ab7363840dd200d22b6b16b266465598484846040516105ea9392919061104c565b60405180910390a150505050565b6000818152600160205260408120600681018054839061061a5761061a610e99565b60009182526020909120600490910201546001600160a01b03169392505050565b60008181526001602052604090206007810154610100900460ff166106955760405162461bcd60e51b815260206004820152601060248201526f15185cdac81a5cc81b9bdd08199d5b1b60821b6044820152606401610260565b61069e82610786565b6002810180549060006106b083610e80565b91905055505050565b6000818152600160205260408120600481015490915b60058301548110156107805760008360050182815481106106f2576106f2610e99565b600091825260208083206002909202909101546001600160a01b031680835260088701909152604082205490925090606461072d8387610eaf565b6107379190610ecc565b6040519091506001600160a01b0384169082156108fc029083906000818181858888f19350505050158015610770573d6000803e3d6000fd5b5050600190920191506106cf9050565b50505050565b6000818152600160205260408120600581015490915b8181101561094e57826006016040518060a001604052808560050184815481106107c8576107c8610e99565b600091825260208083206002909202909101546001600160a01b0316835291909101908152602001600081526020016000815260200185600501848154811061081357610813610e99565b9060005260206000209060020201600101805461082f90610f01565b80601f016020809104026020016040519081016040528092919081815260200182805461085b90610f01565b80156108a85780601f1061087d576101008083540402835291602001916108a8565b820191906000526020600020905b81548152906001019060200180831161088b57829003601f168201915b50505091909252505081546001810183556000928352602092839020825160049092020180546001600160a01b031981166001600160a01b03909316928317825593830151929390929183916001600160a81b03191617600160a01b83600281111561091657610916610d4e565b02179055506040820151600182015560608201516002820155608082015160038201906109439082610f8c565b50505060010161079c565b5060005b81811015610ad557806000036109b357600283600601828154811061097957610979610e99565b60009182526020909120600490910201805460ff60a01b1916600160a01b8360028111156109a9576109a9610d4e565b0217905550610a11565b6109be600283610ecc565b8111610a115760018360060182815481106109db576109db610e99565b60009182526020909120600490910201805460ff60a01b1916600160a01b836002811115610a0b57610a0b610d4e565b02179055505b81610a1d826002610eaf565b610a28906001610eee565b1015610a6f57610a39816002610eaf565b610a44906001610eee565b836006018281548110610a5957610a59610e99565b9060005260206000209060040201600101819055505b81610a7b826002610eaf565b610a86906002610eee565b1015610acd57610a97816002610eaf565b610aa2906002610eee565b836006018281548110610ab757610ab7610e99565b9060005260206000209060040201600201819055505b600101610952565b507f225f612d2fd23b30464f71d0492483dc746eb7b3024d1025f78aed00eea3e7978383600601600081548110610b0e57610b0e610e99565b6000918252602090912060049091020154604051610b3b92916001600160a01b03169060068701906110b2565b60405180910390a1505050565b600080600060608486031215610b5d57600080fd5b505081359360208301359350604090920135919050565b634e487b7160e01b600052604160045260246000fd5b604051601f8201601f1916810167ffffffffffffffff81118282101715610bb357610bb3610b74565b604052919050565b600067ffffffffffffffff821115610bd557610bd5610b74565b5060051b60200190565b80356001600160a01b0381168114610bf657600080fd5b919050565b600082601f830112610c0c57600080fd5b81356020610c21610c1c83610bbb565b610b8a565b8083825260208201915060208460051b870101935086841115610c4357600080fd5b602086015b84811015610c5f5780358352918301918301610c48565b509695505050505050565b600080600060608486031215610c7f57600080fd5b8335925060208085013567ffffffffffffffff80821115610c9f57600080fd5b818701915087601f830112610cb357600080fd5b8135610cc1610c1c82610bbb565b81815260059190911b8301840190848101908a831115610ce057600080fd5b938501935b82851015610d0557610cf685610bdf565b82529385019390850190610ce5565b965050506040870135925080831115610d1d57600080fd5b5050610d2b86828701610bfb565b9150509250925092565b600060208284031215610d4757600080fd5b5035919050565b634e487b7160e01b600052602160045260246000fd5b60006101008201905089825288602083015287604083015286606083015285608083015284151560a083015283151560c083015260028310610da857610da8610d4e565b8260e08301529998505050505050505050565b600080600060608486031215610dd057600080fd5b833592506020610de1818601610bdf565b9250604085013567ffffffffffffffff80821115610dfe57600080fd5b818701915087601f830112610e1257600080fd5b813581811115610e2457610e24610b74565b610e36601f8201601f19168501610b8a565b91508082528884828501011115610e4c57600080fd5b80848401858401376000848284010152508093505050509250925092565b634e487b7160e01b600052601160045260246000fd5b600060018201610e9257610e92610e6a565b5060010190565b634e487b7160e01b600052603260045260246000fd5b8082028115828204841417610ec657610ec6610e6a565b92915050565b600082610ee957634e487b7160e01b600052601260045260246000fd5b500490565b80820180821115610ec657610ec6610e6a565b600181811c90821680610f1557607f821691505b602082108103610f3557634e487b7160e01b600052602260045260246000fd5b50919050565b601f821115610f87576000816000526020600020601f850160051c81016020861015610f645750805b601f850160051c820191505b81811015610f8357828155600101610f70565b5050505b505050565b815167ffffffffffffffff811115610fa657610fa6610b74565b610fba81610fb48454610f01565b84610f3b565b602080601f831160018114610fef5760008415610fd75750858301515b600019600386901b1c1916600185901b178555610f83565b600085815260208120601f198616915b8281101561101e57888601518255948401946001909101908401610fff565b508582101561103c5787850151600019600388901b60f8161c191681555b5050505050600190811b01905550565b8381526000602060018060a01b038516602084015260606040840152835180606085015260005b8181101561108f57858101830151858201608001528201611073565b506000608082860101526080601f19601f83011685010192505050949350505050565b60006060820185835260018060a01b0380861660208501526060604085015281855480845260808601915060808160051b870101935086600052602060002060005b828110156111e057878603607f190184528154858116875260a01c60ff166003811061112257611122610d4e565b6020870152600182015460408701526002820154606087015260a0608087015260038201805460009061115481610f01565b8060a08b01526001821660008114611173576001811461118f576111c3565b60ff19831660c08c015260c082151560051b8c010193506111c3565b84600052602060002060005b838110156111ba5781548d820160c0015260019091019060200161119b565b8c0160c0019450505b5091985050506020949094019350600491909101906001016110f4565b5093999850505050505050505056fea26469706673582212200cac5ce824d45cecb652757cd57acc1175d2bd24448e5f0d050493afb9d0ad2664736f6c63430008170033",
  "bytecodeSha1": "6907d419b8178b8a61905f3f7162bbc796883858",
  "compiler": {
    "evm_version": "istanbul",
    "optimizer": {
      "enabled": true,
      "runs": 200
    },
    "version": "0.8.23+commit.f704f362"
  },
  "contractName": "MainContract",
  "language": "Solidity",
  "natspec": {
    "kind": "dev",
    "methods": {},
    "version": 1
  },
  "opcodes": "PUSH1 0x80 PUSH1 0x40 MSTORE CALLVALUE DUP1 ISZERO PUSH2 0x10 JUMPI PUSH1 0x0 DUP1 REVERT JUMPDEST POP PUSH1 0x4 CALLDATASIZE LT PUSH2 0x62 JUMPI PUSH1 0x0 CALLDATALOAD PUSH1 0xE0 SHR DUP1 PUSH4 0x5A232DFD EQ PUSH2 0x67 JUMPI DUP1 PUSH4 0x7C9C9007 EQ PUSH2 0x8D JUMPI DUP1 PUSH4 0x8D977672 EQ PUSH2 0xA2 JUMPI DUP1 PUSH4 0xDF886BCF EQ PUSH2 0x110 JUMPI DUP1 PUSH4 0xFDC3D8D7 EQ PUSH2 0x123 JUMPI DUP1 PUSH4 0xFE2FC83C EQ PUSH2 0x12C JUMPI JUMPDEST PUSH1 0x0 DUP1 REVERT JUMPDEST PUSH2 0x7A PUSH2 0x75 CALLDATASIZE PUSH1 0x4 PUSH2 0xB48 JUMP JUMPDEST PUSH2 0x157 JUMP JUMPDEST PUSH1 0x40 MLOAD SWAP1 DUP2 MSTORE PUSH1 0x20 ADD JUMPDEST PUSH1 0x40 MLOAD DUP1 SWAP2 SUB SWAP1 RETURN JUMPDEST PUSH2 0xA0 PUSH2 0x9B CALLDATASIZE PUSH1 0x4 PUSH2 0xC6A JUMP JUMPDEST PUSH2 0x1FE JUMP JUMPDEST STOP JUMPDEST PUSH2 0xFC PUSH2 0xB0 CALLDATASIZE PUSH1 0x4 PUSH2 0xD35 JUMP JUMPDEST PUSH1 0x1 PUSH1 0x20 DUP2 SWAP1 MSTORE PUSH1 0x0 SWAP2 DUP3 MSTORE PUSH1 0x40 SWAP1 SWAP2 KECCAK256 DUP1 SLOAD SWAP2 DUP2 ADD SLOAD PUSH1 0x2 DUP3 ADD SLOAD PUSH1 0x3 DUP4 ADD SLOAD PUSH1 0x4 DUP5 ADD SLOAD PUSH1 0x7 SWAP1 SWAP5 ADD SLOAD SWAP3 SWAP4 SWAP2 SWAP3 SWAP1 SWAP2 SWAP1 PUSH1 0xFF DUP1 DUP3 AND SWAP2 PUSH2 0x100 DUP2 DIV DUP3 AND SWAP2 PUSH3 0x10000 SWAP1 SWAP2 DIV AND DUP9 JUMP JUMPDEST PUSH1 0x40 MLOAD PUSH2 0x84 SWAP9 SWAP8 SWAP7 SWAP6 SWAP5 SWAP4 SWAP3 SWAP2 SWAP1 PUSH2 0xD64 JUMP JUMPDEST PUSH2 0xA0 PUSH2 0x11E CALLDATASIZE PUSH1 0x4 PUSH2 0xDBB JUMP JUMPDEST PUSH2 0x446 JUMP JUMPDEST PUSH2 0x7A PUSH1 0x0 SLOAD DUP2 JUMP JUMPDEST PUSH2 0x13F PUSH2 0x13A CALLDATASIZE PUSH1 0x4 PUSH2 0xD35 JUMP JUMPDEST PUSH2 0x5F8 JUMP JUMPDEST PUSH1 0x40 MLOAD PUSH1 0x1 PUSH1 0x1 PUSH1 0xA0 SHL SUB SWAP1 SWAP2 AND DUP2 MSTORE PUSH1 0x20 ADD PUSH2 0x84 JUMP JUMPDEST PUSH1 0x0 DUP1 SLOAD DUP1 DUP3 MSTORE PUSH1 0x1 PUSH1 0x20 DUP2 DUP2 MSTORE PUSH1 0x40 DUP1 DUP6 KECCAK256 SWAP4 DUP5 SSTORE DUP4 DUP4 ADD DUP9 SWAP1 SSTORE PUSH1 0x3 DUP5 ADD DUP8 SWAP1 SSTORE PUSH1 0x4 DUP5 ADD DUP7 SWAP1 SSTORE PUSH1 0x7 DUP5 ADD DUP1 SLOAD PUSH1 0x2 DUP7 ADD DUP8 SWAP1 SSTORE PUSH3 0xFFFFFF NOT AND SWAP1 SWAP4 OR SWAP1 SWAP3 SSTORE DUP4 SLOAD DUP3 MLOAD SWAP1 DUP2 MSTORE SWAP1 DUP2 ADD DUP8 SWAP1 MSTORE SWAP1 DUP2 ADD DUP6 SWAP1 MSTORE PUSH1 0x60 DUP2 ADD DUP5 SWAP1 MSTORE PUSH32 0x4763FC6C5DFEE67F966A1C46C5A30319897C10D0F43E5922A75A24CC223A3431 SWAP1 PUSH1 0x80 ADD PUSH1 0x40 MLOAD DUP1 SWAP2 SUB SWAP1 LOG1 PUSH1 0x0 DUP1 SLOAD SWAP1 DUP1 PUSH2 0x1F0 DUP4 PUSH2 0xE80 JUMP JUMPDEST SWAP1 SWAP2 SSTORE POP POP SLOAD SWAP5 SWAP4 POP POP POP POP JUMP JUMPDEST PUSH1 0x0 DUP4 DUP2 MSTORE PUSH1 0x1 PUSH1 0x20 MSTORE PUSH1 0x40 SWAP1 KECCAK256 PUSH1 0x3 DUP2 ADD SLOAD PUSH1 0x2 DUP3 ADD SLOAD GT ISZERO PUSH2 0x269 JUMPI PUSH1 0x40 MLOAD PUSH3 0x461BCD PUSH1 0xE5 SHL DUP2 MSTORE PUSH1 0x20 PUSH1 0x4 DUP3 ADD MSTORE PUSH1 0x18 PUSH1 0x24 DUP3 ADD MSTORE PUSH32 0x416C6C20697465726174696F6E7320636F6D706C657465640000000000000000 PUSH1 0x44 DUP3 ADD MSTORE PUSH1 0x64 ADD JUMPDEST PUSH1 0x40 MLOAD DUP1 SWAP2 SUB SWAP1 REVERT JUMPDEST PUSH2 0x272 DUP5 PUSH2 0x5F8 JUMP JUMPDEST PUSH1 0x1 PUSH1 0x1 PUSH1 0xA0 SHL SUB AND CALLER PUSH1 0x1 PUSH1 0x1 PUSH1 0xA0 SHL SUB AND EQ PUSH2 0x2EA JUMPI PUSH1 0x40 MLOAD PUSH3 0x461BCD PUSH1 0xE5 SHL DUP2 MSTORE PUSH1 0x20 PUSH1 0x4 DUP3 ADD MSTORE PUSH1 0x2F PUSH1 0x24 DUP3 ADD MSTORE PUSH32 0x4F6E6C7920526F6F742041676772656761746F722063616E20636F6D706C6574 PUSH1 0x44 DUP3 ADD MSTORE PUSH15 0x32903A34329034BA32B930BA34B7B7 PUSH1 0x89 SHL PUSH1 0x64 DUP3 ADD MSTORE PUSH1 0x84 ADD PUSH2 0x260 JUMP JUMPDEST PUSH2 0x3E8 PUSH1 0x0 JUMPDEST DUP5 MLOAD DUP2 LT ISZERO PUSH2 0x38C JUMPI PUSH1 0x0 DUP3 DUP6 DUP4 DUP2 MLOAD DUP2 LT PUSH2 0x30E JUMPI PUSH2 0x30E PUSH2 0xE99 JUMP JUMPDEST PUSH1 0x20 MUL PUSH1 0x20 ADD ADD MLOAD PUSH1 0x64 PUSH2 0x322 SWAP2 SWAP1 PUSH2 0xEAF JUMP JUMPDEST PUSH2 0x32C SWAP2 SWAP1 PUSH2 0xECC JUMP JUMPDEST SWAP1 POP DUP1 DUP5 PUSH1 0x8 ADD PUSH1 0x0 DUP9 DUP6 DUP2 MLOAD DUP2 LT PUSH2 0x347 JUMPI PUSH2 0x347 PUSH2 0xE99 JUMP JUMPDEST PUSH1 0x20 MUL PUSH1 0x20 ADD ADD MLOAD PUSH1 0x1 PUSH1 0x1 PUSH1 0xA0 SHL SUB AND PUSH1 0x1 PUSH1 0x1 PUSH1 0xA0 SHL SUB AND DUP2 MSTORE PUSH1 0x20 ADD SWAP1 DUP2 MSTORE PUSH1 0x20 ADD PUSH1 0x0 KECCAK256 PUSH1 0x0 DUP3 DUP3 SLOAD PUSH2 0x37E SWAP2 SWAP1 PUSH2 0xEEE JUMP JUMPDEST SWAP1 SWAP2 SSTORE POP POP POP PUSH1 0x1 ADD PUSH2 0x2F0 JUMP JUMPDEST POP DUP2 PUSH1 0x3 ADD SLOAD DUP3 PUSH1 0x2 ADD SLOAD LT ISZERO PUSH2 0x3AB JUMPI PUSH2 0x3A6 DUP6 PUSH2 0x63B JUMP JUMPDEST PUSH2 0x3C8 JUMP JUMPDEST PUSH2 0x3B4 DUP6 PUSH2 0x6B9 JUMP JUMPDEST PUSH1 0x7 DUP3 ADD DUP1 SLOAD PUSH3 0xFF0000 NOT AND PUSH3 0x10000 OR SWAP1 SSTORE JUMPDEST PUSH32 0x4EEAAF26E92F2C1DD158D49E5C5A5FFA5EA6FE06BB1E237680B960B5FFB6497F DUP6 DUP4 PUSH1 0x2 ADD SLOAD DUP5 PUSH1 0x6 ADD PUSH1 0x0 DUP2 SLOAD DUP2 LT PUSH2 0x405 JUMPI PUSH2 0x405 PUSH2 0xE99 JUMP JUMPDEST PUSH1 0x0 SWAP2 DUP3 MSTORE PUSH1 0x20 SWAP2 DUP3 SWAP1 KECCAK256 PUSH1 0x4 SWAP1 SWAP2 MUL ADD SLOAD PUSH1 0x40 DUP1 MLOAD SWAP5 DUP6 MSTORE SWAP2 DUP5 ADD SWAP3 SWAP1 SWAP3 MSTORE PUSH1 0x1 PUSH1 0x1 PUSH1 0xA0 SHL SUB SWAP1 SWAP2 AND SWAP1 DUP3 ADD MSTORE PUSH1 0x60 ADD PUSH1 0x40 MLOAD DUP1 SWAP2 SUB SWAP1 LOG1 POP POP POP POP POP JUMP JUMPDEST PUSH1 0x0 DUP4 DUP2 MSTORE PUSH1 0x1 PUSH1 0x20 MSTORE PUSH1 0x40 SWAP1 KECCAK256 PUSH1 0x7 DUP2 ADD SLOAD PUSH1 0xFF AND PUSH2 0x49F JUMPI PUSH1 0x40 MLOAD PUSH3 0x461BCD PUSH1 0xE5 SHL DUP2 MSTORE PUSH1 0x20 PUSH1 0x4 DUP3 ADD MSTORE PUSH1 0x14 PUSH1 0x24 DUP3 ADD MSTORE PUSH20 0x15185CDAC81B9BDD081A5B9A5D1A585B1A5E9959 PUSH1 0x62 SHL PUSH1 0x44 DUP3 ADD MSTORE PUSH1 0x64 ADD PUSH2 0x260 JUMP JUMPDEST PUSH1 0x1 DUP2 ADD SLOAD PUSH1 0x5 DUP3 ADD SLOAD LT PUSH2 0x4ED JUMPI PUSH1 0x40 MLOAD PUSH3 0x461BCD PUSH1 0xE5 SHL DUP2 MSTORE PUSH1 0x20 PUSH1 0x4 DUP3 ADD MSTORE PUSH1 0x14 PUSH1 0x24 DUP3 ADD MSTORE PUSH20 0x15185CDAC81A5CC8185B1C9958591E48199D5B1B PUSH1 0x62 SHL PUSH1 0x44 DUP3 ADD MSTORE PUSH1 0x64 ADD PUSH2 0x260 JUMP JUMPDEST PUSH1 0x40 DUP1 MLOAD PUSH1 0x60 DUP2 ADD DUP3 MSTORE PUSH1 0x1 PUSH1 0x1 PUSH1 0xA0 SHL SUB DUP6 DUP2 AND DUP3 MSTORE PUSH1 0x0 PUSH1 0x20 DUP1 DUP5 ADD DUP3 DUP2 MSTORE SWAP5 DUP5 ADD DUP8 SWAP1 MSTORE PUSH1 0x5 DUP7 ADD DUP1 SLOAD PUSH1 0x1 DUP2 ADD DUP3 SSTORE SWAP1 DUP4 MSTORE SWAP2 KECCAK256 DUP4 MLOAD PUSH1 0x2 SWAP3 DUP4 MUL SWAP1 SWAP2 ADD DUP1 SLOAD SWAP2 SWAP1 SWAP4 AND PUSH1 0x1 PUSH1 0x1 PUSH1 0xA0 SHL SUB NOT DUP3 AND DUP2 OR DUP5 SSTORE SWAP5 MLOAD SWAP4 SWAP5 SWAP3 SWAP4 SWAP3 DUP5 SWAP3 PUSH1 0x1 PUSH1 0x1 PUSH1 0xA8 SHL SUB NOT SWAP1 SWAP3 AND OR SWAP1 PUSH1 0x1 PUSH1 0xA0 SHL SWAP1 DUP5 SWAP1 DUP2 GT ISZERO PUSH2 0x572 JUMPI PUSH2 0x572 PUSH2 0xD4E JUMP JUMPDEST MUL OR SWAP1 SSTORE POP PUSH1 0x40 DUP3 ADD MLOAD PUSH1 0x1 DUP3 ADD SWAP1 PUSH2 0x58B SWAP1 DUP3 PUSH2 0xF8C JUMP JUMPDEST POP POP POP PUSH1 0x1 DUP2 ADD SLOAD PUSH1 0x5 DUP3 ADD SLOAD SUB PUSH2 0x5B7 JUMPI PUSH1 0x7 DUP2 ADD DUP1 SLOAD PUSH2 0xFF00 NOT AND PUSH2 0x100 OR SWAP1 SSTORE PUSH2 0x5B7 DUP5 PUSH2 0x63B JUMP JUMPDEST PUSH32 0x143C3536E28D56A1FAC3D14AF6DFD6931AB7363840DD200D22B6B16B26646559 DUP5 DUP5 DUP5 PUSH1 0x40 MLOAD PUSH2 0x5EA SWAP4 SWAP3 SWAP2 SWAP1 PUSH2 0x104C JUMP JUMPDEST PUSH1 0x40 MLOAD DUP1 SWAP2 SUB SWAP1 LOG1 POP POP POP POP JUMP JUMPDEST PUSH1 0x0 DUP2 DUP2 MSTORE PUSH1 0x1 PUSH1 0x20 MSTORE PUSH1 0x40 DUP2 KECCAK256 PUSH1 0x6 DUP2 ADD DUP1 SLOAD DUP4 SWAP1 PUSH2 0x61A JUMPI PUSH2 0x61A PUSH2 0xE99 JUMP JUMPDEST PUSH1 0x0 SWAP2 DUP3 MSTORE PUSH1 0x20 SWAP1 SWAP2 KECCAK256 PUSH1 0x4 SWAP1 SWAP2 MUL ADD SLOAD PUSH1 0x1 PUSH1 0x1 PUSH1 0xA0 SHL SUB AND SWAP4 SWAP3 POP POP POP JUMP JUMPDEST PUSH1 0x0 DUP2 DUP2 MSTORE PUSH1 0x1 PUSH1 0x20 MSTORE PUSH1 0x40 SWAP1 KECCAK256 PUSH1 0x7 DUP2 ADD SLOAD PUSH2 0x100 SWAP1 DIV PUSH1 0xFF AND PUSH2 0x695 JUMPI PUSH1 0x40 MLOAD PUSH3 0x461BCD PUSH1 0xE5 SHL DUP2 MSTORE PUSH1 0x20 PUSH1 0x4 DUP3 ADD MSTORE PUSH1 0x10 PUSH1 0x24 DUP3 ADD MSTORE PUSH16 0x15185CDAC81A5CC81B9BDD08199D5B1B PUSH1 0x82 SHL PUSH1 0x44 DUP3 ADD MSTORE PUSH1 0x64 ADD PUSH2 0x260 JUMP JUMPDEST PUSH2 0x69E DUP3 PUSH2 0x786 JUMP JUMPDEST PUSH1 0x2 DUP2 ADD DUP1 SLOAD SWAP1 PUSH1 0x0 PUSH2 0x6B0 DUP4 PUSH2 0xE80 JUMP JUMPDEST SWAP2 SWAP1 POP SSTORE POP POP POP JUMP JUMPDEST PUSH1 0x0 DUP2 DUP2 MSTORE PUSH1 0x1 PUSH1 0x20 MSTORE PUSH1 0x40 DUP2 KECCAK256 PUSH1 0x4 DUP2 ADD SLOAD SWAP1 SWAP2 JUMPDEST PUSH1 0x5 DUP4 ADD SLOAD DUP2 LT ISZERO PUSH2 0x780 JUMPI PUSH1 0x0 DUP4 PUSH1 0x5 ADD DUP3 DUP2 SLOAD DUP2 LT PUSH2 0x6F2 JUMPI PUSH2 0x6F2 PUSH2 0xE99 JUMP JUMPDEST PUSH1 0x0 SWAP2 DUP3 MSTORE PUSH1 0x20 DUP1 DUP4 KECCAK256 PUSH1 0x2 SWAP1 SWAP3 MUL SWAP1 SWAP2 ADD SLOAD PUSH1 0x1 PUSH1 0x1 PUSH1 0xA0 SHL SUB AND DUP1 DUP4 MSTORE PUSH1 0x8 DUP8 ADD SWAP1 SWAP2 MSTORE PUSH1 0x40 DUP3 KECCAK256 SLOAD SWAP1 SWAP3 POP SWAP1 PUSH1 0x64 PUSH2 0x72D DUP4 DUP8 PUSH2 0xEAF JUMP JUMPDEST PUSH2 0x737 SWAP2 SWAP1 PUSH2 0xECC JUMP JUMPDEST PUSH1 0x40 MLOAD SWAP1 SWAP2 POP PUSH1 0x1 PUSH1 0x1 PUSH1 0xA0 SHL SUB DUP5 AND SWAP1 DUP3 ISZERO PUSH2 0x8FC MUL SWAP1 DUP4 SWAP1 PUSH1 0x0 DUP2 DUP2 DUP2 DUP6 DUP9 DUP9 CALL SWAP4 POP POP POP POP ISZERO DUP1 ISZERO PUSH2 0x770 JUMPI RETURNDATASIZE PUSH1 0x0 DUP1 RETURNDATACOPY RETURNDATASIZE PUSH1 0x0 REVERT JUMPDEST POP POP PUSH1 0x1 SWAP1 SWAP3 ADD SWAP2 POP PUSH2 0x6CF SWAP1 POP JUMP JUMPDEST POP POP POP POP JUMP JUMPDEST PUSH1 0x0 DUP2 DUP2 MSTORE PUSH1 0x1 PUSH1 0x20 MSTORE PUSH1 0x40 DUP2 KECCAK256 PUSH1 0x5 DUP2 ADD SLOAD SWAP1 SWAP2 JUMPDEST DUP2 DUP2 LT ISZERO PUSH2 0x94E JUMPI DUP3 PUSH1 0x6 ADD PUSH1 0x40 MLOAD DUP1 PUSH1 0xA0 ADD PUSH1 0x40 MSTORE DUP1 DUP6 PUSH1 0x5 ADD DUP5 DUP2 SLOAD DUP2 LT PUSH2 0x7C8 JUMPI PUSH2 0x7C8 PUSH2 0xE99 JUMP JUMPDEST PUSH1 0x0 SWAP2 DUP3 MSTORE PUSH1 0x20 DUP1 DUP4 KECCAK256 PUSH1 0x2 SWAP1 SWAP3 MUL SWAP1 SWAP2 ADD SLOAD PUSH1 0x1 PUSH1 0x1 PUSH1 0xA0 SHL SUB AND DUP4 MSTORE SWAP2 SWAP1 SWAP2 ADD SWAP1 DUP2 MSTORE PUSH1 0x20 ADD PUSH1 0x0 DUP2 MSTORE PUSH1 0x20 ADD PUSH1 0x0 DUP2 MSTORE PUSH1 0x20 ADD DUP6 PUSH1 0x5 ADD DUP5 DUP2 SLOAD DUP2 LT PUSH2 0x813 JUMPI PUSH2 0x813 PUSH2 0xE99 JUMP JUMPDEST SWAP1 PUSH1 0x0 MSTORE PUSH1 0x20 PUSH1 0x0 KECCAK256 SWAP1 PUSH1 0x2 MUL ADD PUSH1 0x1 ADD DUP1 SLOAD PUSH2 0x82F SWAP1 PUSH2 0xF01 JUMP JUMPDEST DUP1 PUSH1 0x1F ADD PUSH1 0x20 DUP1 SWAP2 DIV MUL PUSH1 0x20 ADD PUSH1 0x40 MLOAD SWAP1 DUP2 ADD PUSH1 0x40 MSTORE DUP1 SWAP3 SWAP2 SWAP1 DUP2 DUP2 MSTORE PUSH1 0x20 ADD DUP3 DUP1 SLOAD PUSH2 0x85B SWAP1 PUSH2 0xF01 JUMP JUMPDEST DUP1 ISZERO PUSH2 0x8A8 JUMPI DUP1 PUSH1 0x1F LT PUSH2 0x87D JUMPI PUSH2 0x100 DUP1 DUP4 SLOAD DIV MUL DUP4 MSTORE SWAP2 PUSH1 0x20 ADD SWAP2 PUSH2 0x8A8 JUMP JUMPDEST DUP3 ADD SWAP2 SWAP1 PUSH1 0x0 MSTORE PUSH1 0x20 PUSH1 0x0 KECCAK256 SWAP1 JUMPDEST DUP2 SLOAD DUP2 MSTORE SWAP1 PUSH1 0x1 ADD SWAP1 PUSH1 0x20 ADD DUP1 DUP4 GT PUSH2 0x88B JUMPI DUP3 SWAP1 SUB PUSH1 0x1F AND DUP3 ADD SWAP2 JUMPDEST POP POP POP SWAP2 SWAP1 SWAP3 MSTORE POP POP DUP2 SLOAD PUSH1 0x1 DUP2 ADD DUP4 SSTORE PUSH1 0x0 SWAP3 DUP4 MSTORE PUSH1 0x20 SWAP3 DUP4 SWAP1 KECCAK256 DUP3 MLOAD PUSH1 0x4 SWAP1 SWAP3 MUL ADD DUP1 SLOAD PUSH1 0x1 PUSH1 0x1 PUSH1 0xA0 SHL SUB NOT DUP2 AND PUSH1 0x1 PUSH1 0x1 PUSH1 0xA0 SHL SUB SWAP1 SWAP4 AND SWAP3 DUP4 OR DUP3 SSTORE SWAP4 DUP4 ADD MLOAD SWAP3 SWAP4 SWAP1 SWAP3 SWAP2 DUP4 SWAP2 PUSH1 0x1 PUSH1 0x1 PUSH1 0xA8 SHL SUB NOT AND OR PUSH1 0x1 PUSH1 0xA0 SHL DUP4 PUSH1 0x2 DUP2 GT ISZERO PUSH2 0x916 JUMPI PUSH2 0x916 PUSH2 0xD4E JUMP JUMPDEST MUL OR SWAP1 SSTORE POP PUSH1 0x40 DUP3 ADD MLOAD PUSH1 0x1 DUP3 ADD SSTORE PUSH1 0x60 DUP3 ADD MLOAD PUSH1 0x2 DUP3 ADD SSTORE PUSH1 0x80 DUP3 ADD MLOAD PUSH1 0x3 DUP3 ADD SWAP1 PUSH2 0x943 SWAP1 DUP3 PUSH2 0xF8C JUMP JUMPDEST POP POP POP PUSH1 0x1 ADD PUSH2 0x79C JUMP JUMPDEST POP PUSH1 0x0 JUMPDEST DUP2 DUP2 LT ISZERO PUSH2 0xAD5 JUMPI DUP1 PUSH1 0x0 SUB PUSH2 0x9B3 JUMPI PUSH1 0x2 DUP4 PUSH1 0x6 ADD DUP3 DUP2 SLOAD DUP2 LT PUSH2 0x979 JUMPI PUSH2 0x979 PUSH2 0xE99 JUMP JUMPDEST PUSH1 0x0 SWAP2 DUP3 MSTORE PUSH1 0x20 SWAP1 SWAP2 KECCAK256 PUSH1 0x4 SWAP1 SWAP2 MUL ADD DUP1 SLOAD PUSH1 0xFF PUSH1 0xA0 SHL NOT AND PUSH1 0x1 PUSH1 0xA0 SHL DUP4 PUSH1 0x2 DUP2 GT ISZERO PUSH2 0x9A9 JUMPI PUSH2 0x9A9 PUSH2 0xD4E JUMP JUMPDEST MUL OR SWAP1 SSTORE POP PUSH2 0xA11 JUMP JUMPDEST PUSH2 0x9BE PUSH1 0x2 DUP4 PUSH2 0xECC JUMP JUMPDEST DUP2 GT PUSH2 0xA11 JUMPI PUSH1 0x1 DUP4 PUSH1 0x6 ADD DUP3 DUP2 SLOAD DUP2 LT PUSH2 0x9DB JUMPI PUSH2 0x9DB PUSH2 0xE99 JUMP JUMPDEST PUSH1 0x0 SWAP2 DUP3 MSTORE PUSH1 0x20 SWAP1 SWAP2 KECCAK256 PUSH1 0x4 SWAP1 SWAP2 MUL ADD DUP1 SLOAD PUSH1 0xFF PUSH1 0xA0 SHL NOT AND PUSH1 0x1 PUSH1 0xA0 SHL DUP4 PUSH1 0x2 DUP2 GT ISZERO PUSH2 0xA0B JUMPI PUSH2 0xA0B PUSH2 0xD4E JUMP JUMPDEST MUL OR SWAP1 SSTORE POP JUMPDEST DUP2 PUSH2 0xA1D DUP3 PUSH1 0x2 PUSH2 0xEAF JUMP JUMPDEST PUSH2 0xA28 SWAP1 PUSH1 0x1 PUSH2 0xEEE JUMP JUMPDEST LT ISZERO PUSH2 0xA6F JUMPI PUSH2 0xA39 DUP2 PUSH1 0x2 PUSH2 0xEAF JUMP JUMPDEST PUSH2 0xA44 SWAP1 PUSH1 0x1 PUSH2 0xEEE JUMP JUMPDEST DUP4 PUSH1 0x6 ADD DUP3 DUP2 SLOAD DUP2 LT PUSH2 0xA59 JUMPI PUSH2 0xA59 PUSH2 0xE99 JUMP JUMPDEST SWAP1 PUSH1 0x0 MSTORE PUSH1 0x20 PUSH1 0x0 KECCAK256 SWAP1 PUSH1 0x4 MUL ADD PUSH1 0x1 ADD DUP2 SWAP1 SSTORE POP JUMPDEST DUP2 PUSH2 0xA7B DUP3 PUSH1 0x2 PUSH2 0xEAF JUMP JUMPDEST PUSH2 0xA86 SWAP1 PUSH1 0x2 PUSH2 0xEEE JUMP JUMPDEST LT ISZERO PUSH2 0xACD JUMPI PUSH2 0xA97 DUP2 PUSH1 0x2 PUSH2 0xEAF JUMP JUMPDEST PUSH2 0xAA2 SWAP1 PUSH1 0x2 PUSH2 0xEEE JUMP JUMPDEST DUP4 PUSH1 0x6 ADD DUP3 DUP2 SLOAD DUP2 LT PUSH2 0xAB7 JUMPI PUSH2 0xAB7 PUSH2 0xE99 JUMP JUMPDEST SWAP1 PUSH1 0x0 MSTORE PUSH1 0x20 PUSH1 0x0 KECCAK256 SWAP1 PUSH1 0x4 MUL ADD PUSH1 0x2 ADD DUP2 SWAP1 SSTORE POP JUMPDEST PUSH1 0x1 ADD PUSH2 0x952 JUMP JUMPDEST POP PUSH32 0x225F612D2FD23B30464F71D0492483DC746EB7B3024D1025F78AED00EEA3E797 DUP4 DUP4 PUSH1 0x6 ADD PUSH1 0x0 DUP2 SLOAD DUP2 LT PUSH2 0xB0E JUMPI PUSH2 0xB0E PUSH2 0xE99 JUMP JUMPDEST PUSH1 0x0 SWAP2 DUP3 MSTORE PUSH1 0x20 SWAP1 SWAP2 KECCAK256 PUSH1 0x4 SWAP1 SWAP2 MUL ADD SLOAD PUSH1 0x40 MLOAD PUSH2 0xB3B SWAP3 SWAP2 PUSH1 0x1 PUSH1 0x1 PUSH1 0xA0 SHL SUB AND SWAP1 PUSH1 0x6 DUP8 ADD SWAP1 PUSH2 0x10B2 JUMP JUMPDEST PUSH1 0x40 MLOAD DUP1 SWAP2 SUB SWAP1 LOG1 POP POP POP JUMP JUMPDEST PUSH1 0x0 DUP1 PUSH1 0x0 PUSH1 0x60 DUP5 DUP7 SUB SLT ISZERO PUSH2 0xB5D JUMPI PUSH1 0x0 DUP1 REVERT JUMPDEST POP POP DUP2 CALLDATALOAD SWAP4 PUSH1 0x20 DUP4 ADD CALLDATALOAD SWAP4 POP PUSH1 0x40 SWAP1 SWAP3 ADD CALLDATALOAD SWAP2 SWAP1 POP JUMP JUMPDEST PUSH4 0x4E487B71 PUSH1 0xE0 SHL PUSH1 0x0 MSTORE PUSH1 0x41 PUSH1 0x4 MSTORE PUSH1 0x24 PUSH1 0x0 REVERT JUMPDEST PUSH1 0x40 MLOAD PUSH1 0x1F DUP3 ADD PUSH1 0x1F NOT AND DUP2 ADD PUSH8 0xFFFFFFFFFFFFFFFF DUP2 GT DUP3 DUP3 LT OR ISZERO PUSH2 0xBB3 JUMPI PUSH2 0xBB3 PUSH2 0xB74 JUMP JUMPDEST PUSH1 0x40 MSTORE SWAP2 SWAP1 POP JUMP JUMPDEST PUSH1 0x0 PUSH8 0xFFFFFFFFFFFFFFFF DUP3 GT ISZERO PUSH2 0xBD5 JUMPI PUSH2 0xBD5 PUSH2 0xB74 JUMP JUMPDEST POP PUSH1 0x5 SHL PUSH1 0x20 ADD SWAP1 JUMP JUMPDEST DUP1 CALLDATALOAD PUSH1 0x1 PUSH1 0x1 PUSH1 0xA0 SHL SUB DUP2 AND DUP2 EQ PUSH2 0xBF6 JUMPI PUSH1 0x0 DUP1 REVERT JUMPDEST SWAP2 SWAP1 POP JUMP JUMPDEST PUSH1 0x0 DUP3 PUSH1 0x1F DUP4 ADD SLT PUSH2 0xC0C JUMPI PUSH1 0x0 DUP1 REVERT JUMPDEST DUP2 CALLDATALOAD PUSH1 0x20 PUSH2 0xC21 PUSH2 0xC1C DUP4 PUSH2 0xBBB JUMP JUMPDEST PUSH2 0xB8A JUMP JUMPDEST DUP1 DUP4 DUP3 MSTORE PUSH1 0x20 DUP3 ADD SWAP2 POP PUSH1 0x20 DUP5 PUSH1 0x5 SHL DUP8 ADD ADD SWAP4 POP DUP7 DUP5 GT ISZERO PUSH2 0xC43 JUMPI PUSH1 0x0 DUP1 REVERT JUMPDEST PUSH1 0x20 DUP7 ADD JUMPDEST DUP5 DUP2 LT ISZERO PUSH2 0xC5F JUMPI DUP1 CALLDATALOAD DUP4 MSTORE SWAP2 DUP4 ADD SWAP2 DUP4 ADD PUSH2 0xC48 JUMP JUMPDEST POP SWAP7 SWAP6 POP POP POP POP POP POP JUMP JUMPDEST PUSH1 0x0 DUP1 PUSH1 0x0 PUSH1 0x60 DUP5 DUP7 SUB SLT ISZERO PUSH2 0xC7F JUMPI PUSH1 0x0 DUP1 REVERT JUMPDEST DUP4 CALLDATALOAD SWAP3 POP PUSH1 0x20 DUP1 DUP6 ADD CALLDATALOAD PUSH8 0xFFFFFFFFFFFFFFFF DUP1 DUP3 GT ISZERO PUSH2 0xC9F JUMPI PUSH1 0x0 DUP1 REVERT JUMPDEST DUP2 DUP8 ADD SWAP2 POP DUP8 PUSH1 0x1F DUP4 ADD SLT PUSH2 0xCB3 JUMPI PUSH1 0x0 DUP1 REVERT JUMPDEST DUP2 CALLDATALOAD PUSH2 0xCC1 PUSH2 0xC1C DUP3 PUSH2 0xBBB JUMP JUMPDEST DUP2 DUP2 MSTORE PUSH1 0x5 SWAP2 SWAP1 SWAP2 SHL DUP4 ADD DUP5 ADD SWAP1 DUP5 DUP2 ADD SWAP1 DUP11 DUP4 GT ISZERO PUSH2 0xCE0 JUMPI PUSH1 0x0 DUP1 REVERT JUMPDEST SWAP4 DUP6 ADD SWAP4 JUMPDEST DUP3 DUP6 LT ISZERO PUSH2 0xD05 JUMPI PUSH2 0xCF6 DUP6 PUSH2 0xBDF JUMP JUMPDEST DUP3 MSTORE SWAP4 DUP6 ADD SWAP4 SWAP1 DUP6 ADD SWAP1 PUSH2 0xCE5 JUMP JUMPDEST SWAP7 POP POP POP PUSH1 0x40 DUP8 ADD CALLDATALOAD SWAP3 POP DUP1 DUP4 GT ISZERO PUSH2 0xD1D JUMPI PUSH1 0x0 DUP1 REVERT JUMPDEST POP POP PUSH2 0xD2B DUP7 DUP3 DUP8 ADD PUSH2 0xBFB JUMP JUMPDEST SWAP2 POP POP SWAP3 POP SWAP3 POP SWAP3 JUMP JUMPDEST PUSH1 0x0 PUSH1 0x20 DUP3 DUP5 SUB SLT ISZERO PUSH2 0xD47 JUMPI PUSH1 0x0 DUP1 REVERT JUMPDEST POP CALLDATALOAD SWAP2 SWAP1 POP JUMP JUMPDEST PUSH4 0x4E487B71 PUSH1 0xE0 SHL PUSH1 0x0 MSTORE PUSH1 0x21 PUSH1 0x4 MSTORE PUSH1 0x24 PUSH1 0x0 REVERT JUMPDEST PUSH1 0x0 PUSH2 0x100 DUP3 ADD SWAP1 POP DUP10 DUP3 MSTORE DUP9 PUSH1 0x20 DUP4 ADD MSTORE DUP8 PUSH1 0x40 DUP4 ADD MSTORE DUP7 PUSH1 0x60 DUP4 ADD MSTORE DUP6 PUSH1 0x80 DUP4 ADD MSTORE DUP5 ISZERO ISZERO PUSH1 0xA0 DUP4 ADD MSTORE DUP4 ISZERO ISZERO PUSH1 0xC0 DUP4 ADD MSTORE PUSH1 0x2 DUP4 LT PUSH2 0xDA8 JUMPI PUSH2 0xDA8 PUSH2 0xD4E JUMP JUMPDEST DUP3 PUSH1 0xE0 DUP4 ADD MSTORE SWAP10 SWAP9 POP POP POP POP POP POP POP POP POP JUMP JUMPDEST PUSH1 0x0 DUP1 PUSH1 0x0 PUSH1 0x60 DUP5 DUP7 SUB SLT ISZERO PUSH2 0xDD0 JUMPI PUSH1 0x0 DUP1 REVERT JUMPDEST DUP4 CALLDATALOAD SWAP3 POP PUSH1 0x20 PUSH2 0xDE1 DUP2 DUP7 ADD PUSH2 0xBDF JUMP JUMPDEST SWAP3 POP PUSH1 0x40 DUP6 ADD CALLDATALOAD PUSH8 0xFFFFFFFFFFFFFFFF DUP1 DUP3 GT ISZERO PUSH2 0xDFE JUMPI PUSH1 0x0 DUP1 REVERT JUMPDEST DUP2 DUP8 ADD SWAP2 POP DUP8 PUSH1 0x1F DUP4 ADD SLT PUSH2 0xE12 JUMPI PUSH1 0x0 DUP1 REVERT JUMPDEST DUP2 CALLDATALOAD DUP2 DUP2 GT ISZERO PUSH2 0xE24 JUMPI PUSH2 0xE24 PUSH2 0xB74 JUMP JUMPDEST PUSH2 0xE36 PUSH1 0x1F DUP3 ADD PUSH1 0x1F NOT AND DUP6 ADD PUSH2 0xB8A JUMP JUMPDEST SWAP2 POP DUP1 DUP3 MSTORE DUP9 DUP5 DUP3 DUP6 ADD ADD GT ISZERO PUSH2 0xE4C JUMPI PUSH1 0x0 DUP1 REVERT JUMPDEST DUP1 DUP5 DUP5 ADD DUP6 DUP5 ADD CALLDATACOPY PUSH1 0x0 DUP5 DUP3 DUP5 ADD ADD MSTORE POP DUP1 SWAP4 POP POP POP POP SWAP3 POP SWAP3 POP SWAP3 JUMP JUMPDEST PUSH4 0x4E487B71 PUSH1 0xE0 SHL PUSH1 0x0 MSTORE PUSH1 0x11 PUSH1 0x4 MSTORE PUSH1 0x24 PUSH1 0x0 REVERT JUMPDEST PUSH1 0x0 PUSH1 0x1 DUP3 ADD PUSH2 0xE92 JUMPI PUSH2 0xE92 PUSH2 0xE6A JUMP JUMPDEST POP PUSH1 0x1 ADD SWAP1 JUMP JUMPDEST PUSH4 0x4E487B71 PUSH1 0xE0 SHL PUSH1 0x0 MSTORE PUSH1 0x32 PUSH1 0x4 MSTORE PUSH1 0x24 PUSH1 0x0 REVERT JUMPDEST DUP1 DUP3 MUL DUP2 ISZERO DUP3 DUP3 DIV DUP5 EQ OR PUSH2 0xEC6 JUMPI PUSH2 0xEC6 PUSH2 0xE6A JUMP JUMPDEST SWAP3 SWAP2 POP POP JUMP JUMPDEST PUSH1 0x0 DUP3 PUSH2 0xEE9 JUMPI PUSH4 0x4E487B71 PUSH1 0xE0 SHL PUSH1 0x0 MSTORE PUSH1 0x12 PUSH1 0x4 MSTORE PUSH1 0x24 PUSH1 0x0 REVERT JUMPDEST POP DIV SWAP1 JUMP JUMPDEST DUP1 DUP3 ADD DUP1 DUP3 GT ISZERO PUSH2 0xEC6 JUMPI PUSH2 0xEC6 PUSH2 0xE6A JUMP JUMPDEST PUSH1 0x1 DUP2 DUP2 SHR SWAP1 DUP3 AND DUP1 PUSH2 0xF15 JUMPI PUSH1 0x7F DUP3 AND SWAP2 POP JUMPDEST PUSH1 0x20 DUP3 LT DUP2 SUB PUSH2 0xF35 JUMPI PUSH4 0x4E487B71 PUSH1 0xE0 SHL PUSH1 0x0 MSTORE PUSH1 0x22 PUSH1 0x4 MSTORE PUSH1 0x24 PUSH1 0x0 REVERT JUMPDEST POP SWAP2 SWAP1 POP JUMP JUMPDEST PUSH1 0x1F DUP3 GT ISZERO PUSH2 0xF87 JUMPI PUSH1 0x0 DUP2 PUSH1 0x0 MSTORE PUSH1 0x20 PUSH1 0x0 KECCAK256 PUSH1 0x1F DUP6 ADD PUSH1 0x5 SHR DUP2 ADD PUSH1 0x20 DUP7 LT ISZERO PUSH2 0xF64 JUMPI POP DUP1 JUMPDEST PUSH1 0x1F DUP6 ADD PUSH1 0x5 SHR DUP3 ADD SWAP2 POP JUMPDEST DUP2 DUP2 LT ISZERO PUSH2 0xF83 JUMPI DUP3 DUP2 SSTORE PUSH1 0x1 ADD PUSH2 0xF70 JUMP JUMPDEST POP POP POP JUMPDEST POP POP POP JUMP JUMPDEST DUP2 MLOAD PUSH8 0xFFFFFFFFFFFFFFFF DUP2 GT ISZERO PUSH2 0xFA6 JUMPI PUSH2 0xFA6 PUSH2 0xB74 JUMP JUMPDEST PUSH2 0xFBA DUP2 PUSH2 0xFB4 DUP5 SLOAD PUSH2 0xF01 JUMP JUMPDEST DUP5 PUSH2 0xF3B JUMP JUMPDEST PUSH1 0x20 DUP1 PUSH1 0x1F DUP4 GT PUSH1 0x1 DUP2 EQ PUSH2 0xFEF JUMPI PUSH1 0x0 DUP5 ISZERO PUSH2 0xFD7 JUMPI POP DUP6 DUP4 ADD MLOAD JUMPDEST PUSH1 0x0 NOT PUSH1 0x3 DUP7 SWAP1 SHL SHR NOT AND PUSH1 0x1 DUP6 SWAP1 SHL OR DUP6 SSTORE PUSH2 0xF83 JUMP JUMPDEST PUSH1 0x0 DUP6 DUP2 MSTORE PUSH1 0x20 DUP2 KECCAK256 PUSH1 0x1F NOT DUP7 AND SWAP2 JUMPDEST DUP3 DUP2 LT ISZERO PUSH2 0x101E JUMPI DUP9 DUP7 ADD MLOAD DUP3 SSTORE SWAP5 DUP5 ADD SWAP5 PUSH1 0x1 SWAP1 SWAP2 ADD SWAP1 DUP5 ADD PUSH2 0xFFF JUMP JUMPDEST POP DUP6 DUP3 LT ISZERO PUSH2 0x103C JUMPI DUP8 DUP6 ADD MLOAD PUSH1 0x0 NOT PUSH1 0x3 DUP9 SWAP1 SHL PUSH1 0xF8 AND SHR NOT AND DUP2 SSTORE JUMPDEST POP POP POP POP POP PUSH1 0x1 SWAP1 DUP2 SHL ADD SWAP1 SSTORE POP JUMP JUMPDEST DUP4 DUP2 MSTORE PUSH1 0x0 PUSH1 0x20 PUSH1 0x1 DUP1 PUSH1 0xA0 SHL SUB DUP6 AND PUSH1 0x20 DUP5 ADD MSTORE PUSH1 0x60 PUSH1 0x40 DUP5 ADD MSTORE DUP4 MLOAD DUP1 PUSH1 0x60 DUP6 ADD MSTORE PUSH1 0x0 JUMPDEST DUP2 DUP2 LT ISZERO PUSH2 0x108F JUMPI DUP6 DUP2 ADD DUP4 ADD MLOAD DUP6 DUP3 ADD PUSH1 0x80 ADD MSTORE DUP3 ADD PUSH2 0x1073 JUMP JUMPDEST POP PUSH1 0x0 PUSH1 0x80 DUP3 DUP7 ADD ADD MSTORE PUSH1 0x80 PUSH1 0x1F NOT PUSH1 0x1F DUP4 ADD AND DUP6 ADD ADD SWAP3 POP POP POP SWAP5 SWAP4 POP POP POP POP JUMP JUMPDEST PUSH1 0x0 PUSH1 0x60 DUP3 ADD DUP6 DUP4 MSTORE PUSH1 0x1 DUP1 PUSH1 0xA0 SHL SUB DUP1 DUP7 AND PUSH1 0x20 DUP6 ADD MSTORE PUSH1 0x60 PUSH1 0x40 DUP6 ADD MSTORE DUP2 DUP6 SLOAD DUP1 DUP5 MSTORE PUSH1 0x80 DUP7 ADD SWAP2 POP PUSH1 0x80 DUP2 PUSH1 0x5 SHL DUP8 ADD ADD SWAP4 POP DUP7 PUSH1 0x0 MSTORE PUSH1 0x20 PUSH1 0x0 KECCAK256 PUSH1 0x0 JUMPDEST DUP3 DUP2 LT ISZERO PUSH2 0x11E0 JUMPI DUP8 DUP7 SUB PUSH1 0x7F NOT ADD DUP5 MSTORE DUP2 SLOAD DUP6 DUP2 AND DUP8 MSTORE PUSH1 0xA0 SHR PUSH1 0xFF AND PUSH1 0x3 DUP2 LT PUSH2 0x1122 JUMPI PUSH2 0x1122 PUSH2 0xD4E JUMP JUMPDEST PUSH1 0x20 DUP8 ADD MSTORE PUSH1 0x1 DUP3 ADD SLOAD PUSH1 0x40 DUP8 ADD MSTORE PUSH1 0x2 DUP3 ADD SLOAD PUSH1 0x60 DUP8 ADD MSTORE PUSH1 0xA0 PUSH1 0x80 DUP8 ADD MSTORE PUSH1 0x3 DUP3 ADD DUP1 SLOAD PUSH1 0x0 SWAP1 PUSH2 0x1154 DUP2 PUSH2 0xF01 JUMP JUMPDEST DUP1 PUSH1 0xA0 DUP12 ADD MSTORE PUSH1 0x1 DUP3 AND PUSH1 0x0 DUP2 EQ PUSH2 0x1173 JUMPI PUSH1 0x1 DUP2 EQ PUSH2 0x118F JUMPI PUSH2 0x11C3 JUMP JUMPDEST PUSH1 0xFF NOT DUP4 AND PUSH1 0xC0 DUP13 ADD MSTORE PUSH1 0xC0 DUP3 ISZERO ISZERO PUSH1 0x5 SHL DUP13 ADD ADD SWAP4 POP PUSH2 0x11C3 JUMP JUMPDEST DUP5 PUSH1 0x0 MSTORE PUSH1 0x20 PUSH1 0x0 KECCAK256 PUSH1 0x0 JUMPDEST DUP4 DUP2 LT ISZERO PUSH2 0x11BA JUMPI DUP2 SLOAD DUP14 DUP3 ADD PUSH1 0xC0 ADD MSTORE PUSH1 0x1 SWAP1 SWAP2 ADD SWAP1 PUSH1 0x20 ADD PUSH2 0x119B JUMP JUMPDEST DUP13 ADD PUSH1 0xC0 ADD SWAP5 POP POP JUMPDEST POP SWAP2 SWAP9 POP POP POP PUSH1 0x20 SWAP5 SWAP1 SWAP5 ADD SWAP4 POP PUSH1 0x4 SWAP2 SWAP1 SWAP2 ADD SWAP1 PUSH1 0x1 ADD PUSH2 0x10F4 JUMP JUMPDEST POP SWAP4 SWAP10 SWAP9 POP POP POP POP POP POP POP POP POP JUMP INVALID LOG2 PUSH5 0x6970667358 0x22 SLT KECCAK256 0xC 0xAC 0x5C 0xE8 0x24 0xD4 0x5C 0xEC 0xB6 MSTORE PUSH22 0x7CD57ACC1175D2BD24448E5F0D050493AFB9D0AD2664 PUSH20 0x6F6C634300081700330000000000000000000000 ",
  "sha1": "7b447e3df96e081de4196d33369cb689bc03e776",
  "source": "// SPDX-License-Identifier: MIT\npragma solidity ^0.8.9;\n\ncontract MainContract {\n    enum Role { Worker, SubAggregator, RootAggregator }\n    enum TaskStatus { Pending, Completed }\n\n    struct User {\n        address userAddress;\n        Role role;\n        string ip;\n    }\n\n    struct TreeNode {\n        address userAddress;\n        Role role;\n        uint256 leftChild;\n        uint256 rightChild;\n        string ip;\n    }\n\n    struct Task {\n        uint256 id;\n        uint256 requiredUsers;\n        uint256 currentIteration;\n        uint256 totalIterations;\n        uint256 fundingAmount;\n        User[] users;\n        TreeNode[] tree;\n        bool isInitialized;\n        bool isFull; \n        TaskStatus status;\n        mapping(address => uint256) contributions;\n    }\n\n    uint256 public nextTaskId;\n    mapping(uint256 => Task) public tasks;\n\n    event TaskInitialized(uint256 taskId, uint256 requiredUsers, uint256 totalIterations, uint256 fundingAmount);\n    event UserAdded(uint256 taskId, address user, string ip);\n    event IterationComplete(uint256 taskId, uint256 iteration, address rootAggregator);\n    event TreeStructureGenerated(uint256 taskId, address rootAggregator, TreeNode[] tree);\n\n    function initTask(uint256 requiredUsers, uint256 totalIterations, uint256 fundingAmount) public returns (uint256) {\n        Task storage newTask = tasks[nextTaskId];\n        newTask.id = nextTaskId;\n        newTask.requiredUsers = requiredUsers;\n        newTask.totalIterations = totalIterations;\n        newTask.fundingAmount = fundingAmount;\n        newTask.isInitialized = true;\n        newTask.isFull = false;\n        newTask.currentIteration = 0;\n        newTask.status = TaskStatus.Pending;\n\n        emit TaskInitialized(nextTaskId, requiredUsers, totalIterations, fundingAmount);\n        nextTaskId++;\n        return newTask.id;\n    }\n\n    function addUser(uint256 taskId, address userAddress, string memory ip) public {\n        Task storage task = tasks[taskId];\n        require(task.isInitialized, \"Task not initialized\");\n        require(task.users.length < task.requiredUsers, \"Task is already full\");\n\n        task.users.push(User({ userAddress: userAddress, role: Role.Worker, ip: ip}));\n        if (task.users.length == task.requiredUsers) {\n            task.isFull = true;\n            startIteration(taskId);\n        }\n\n        emit UserAdded(taskId, userAddress, ip);\n    }\n\n    function startIteration(uint256 taskId) internal {\n        Task storage task = tasks[taskId];\n        require(task.isFull, \"Task is not full\");\n        generateTreeStructure(taskId);\n        task.currentIteration++;\n    }\n\n    function completeIteration(uint256 taskId, address[] memory contributors, uint256[] memory values) public {\n        Task storage task = tasks[taskId];\n        require(task.currentIteration <= task.totalIterations, \"All iterations completed\");\n        require(msg.sender == getRootAggregatorAddress(taskId), \"Only Root Aggregator can complete the iteration\");\n\n        uint256 totalContributionForIteration = 1000;\n        for (uint256 i = 0; i < contributors.length; i++) {\n            uint256 contributionPercentage = (values[i] * 100) / totalContributionForIteration;\n            task.contributions[contributors[i]] += contributionPercentage;\n        }\n\n        if (task.currentIteration < task.totalIterations) {\n            startIteration(taskId);\n        } else {\n            distributeFunds(taskId);\n            task.status = TaskStatus.Completed;\n        }\n\n        emit IterationComplete(taskId, task.currentIteration, task.tree[0].userAddress);\n    }\n\n    function distributeFunds(uint256 taskId) internal {\n        Task storage task = tasks[taskId];\n        uint256 totalFund = task.fundingAmount;\n\n        for (uint256 i = 0; i < task.users.length; i++) {\n            address userAddress = task.users[i].userAddress;\n            uint256 userContributionPercentage = task.contributions[userAddress];\n            uint256 userShare = (totalFund * userContributionPercentage) / 100;\n            payable(userAddress).transfer(userShare);\n        }\n    }\n\n    function generateTreeStructure(uint256 taskId) internal {\n        Task storage task = tasks[taskId];\n        uint256 numUsers = task.users.length;\n\n        for (uint256 i = 0; i < numUsers; i++) {\n            task.tree.push(TreeNode({\n                userAddress: task.users[i].userAddress,\n                role: Role.Worker,\n                leftChild: 0,\n                rightChild: 0,\n                ip: task.users[i].ip\n            }));\n        }\n\n        for (uint256 i = 0; i < numUsers; i++) {\n            if (i == 0) {\n                task.tree[i].role = Role.RootAggregator;\n            } else if (i <= numUsers / 2) {\n                task.tree[i].role = Role.SubAggregator;\n            }\n\n            if (2 * i + 1 < numUsers) {\n                task.tree[i].leftChild = 2 * i + 1;\n            }\n            if (2 * i + 2 < numUsers) {\n                task.tree[i].rightChild = 2 * i + 2;\n            }\n        }\n\n        emit TreeStructureGenerated(taskId, task.tree[0].userAddress, task.tree);\n    }\n\n    function getRootAggregatorAddress(uint256 taskId) public view returns (address) {\n        Task storage task = tasks[taskId];\n        return task.tree[0].userAddress;\n    }\n}\n",
  "sourcePath": "contracts/MainContract.sol",
  "type": "contract"
}