{"abi":[{"anonymous":false,"inputs":[{"indexed":false,"internalType":"uint256","name":"taskId","type":"uint256"},{"indexed":false,"internalType":"uint256","name":"iteration","type":"uint256"},{"indexed":false,"internalType":"address","name":"rootAggregator","type":"address"}],"name":"IterationComplete","type":"event"},{"anonymous":false,"inputs":[{"indexed":false,"internalType":"uint256","name":"taskId","type":"uint256"},{"indexed":false,"internalType":"uint256","name":"requiredUsers","type":"uint256"},{"indexed":false,"internalType":"uint256","name":"totalIterations","type":"uint256"},{"indexed":false,"internalType":"uint256","name":"fundingAmount","type":"uint256"}],"name":"TaskInitialized","type":"event"},{"anonymous":false,"inputs":[{"indexed":false,"internalType":"uint256","name":"taskId","type":"uint256"},{"indexed":false,"internalType":"address","name":"rootAggregator","type":"address"},{"components":[{"internalType":"address","name":"userAddress","type":"address"},{"internalType":"enum MainContract.Role","name":"role","type":"uint8"},{"internalType":"string","name":"ip","type":"string"}],"indexed":false,"internalType":"struct MainContract.TreeNode[]","name":"tree","type":"tuple[]"}],"name":"TreeStructureGenerated","type":"event"},{"anonymous":false,"inputs":[{"indexed":false,"internalType":"uint256","name":"taskId","type":"uint256"},{"indexed":false,"internalType":"address","name":"user","type":"address"},{"indexed":false,"internalType":"string","name":"ip","type":"string"}],"name":"UserAdded","type":"event"},{"inputs":[{"internalType":"uint256","name":"taskId","type":"uint256"},{"internalType":"address","name":"userAddress","type":"address"},{"internalType":"string","name":"ip","type":"string"}],"name":"addUser","outputs":[],"stateMutability":"nonpayable","type":"function"},{"inputs":[{"internalType":"uint256","name":"taskId","type":"uint256"},{"internalType":"address[]","name":"contributors","type":"address[]"},{"internalType":"uint256[]","name":"values","type":"uint256[]"}],"name":"completeIteration","outputs":[],"stateMutability":"nonpayable","type":"function"},{"inputs":[],"name":"entropy","outputs":[{"internalType":"uint256","name":"","type":"uint256"}],"stateMutability":"view","type":"function"},{"inputs":[{"internalType":"uint256","name":"taskId","type":"uint256"}],"name":"getRootAggregatorAddress","outputs":[{"internalType":"address","name":"","type":"address"}],"stateMutability":"view","type":"function"},{"inputs":[{"internalType":"uint256","name":"requiredUsers","type":"uint256"},{"internalType":"uint256","name":"totalIterations","type":"uint256"},{"internalType":"uint256","name":"fundingAmount","type":"uint256"}],"name":"initTask","outputs":[],"stateMutability":"nonpayable","type":"function"},{"inputs":[],"name":"nextTaskId","outputs":[{"internalType":"uint256","name":"","type":"uint256"}],"stateMutability":"view","type":"function"},{"inputs":[{"internalType":"uint256","name":"","type":"uint256"}],"name":"tasks","outputs":[{"internalType":"uint256","name":"id","type":"uint256"},{"internalType":"uint256","name":"requiredUsers","type":"uint256"},{"internalType":"uint256","name":"currentIteration","type":"uint256"},{"internalType":"uint256","name":"totalIterations","type":"uint256"},{"internalType":"uint256","name":"fundingAmount","type":"uint256"},{"internalType":"bool","name":"isInitialized","type":"bool"},{"internalType":"bool","name":"isFull","type":"bool"},{"internalType":"enum MainContract.TaskStatus","name":"status","type":"uint8"}],"stateMutability":"view","type":"function"}],"bytecode":"60806040524260025534801561001457600080fd5b50611486806100246000396000f3fe608060405234801561001057600080fd5b506004361061007d5760003560e01c80638d9776721161005b5780638d977672146100c6578063df886bcf14610134578063fdc3d8d714610147578063fe2fc83c1461015057600080fd5b806347ce07cc146100825780635a232dfd1461009e5780637c9c9007146100b3575b600080fd5b61008b60025481565b6040519081526020015b60405180910390f35b6100b16100ac366004610ca1565b61017b565b005b6100b16100c1366004610dc3565b61021f565b6101206100d4366004610e8e565b60016020819052600091825260409091208054918101546002820154600383015460048401546007909401549293919290919060ff808216916101008104821691620100009091041688565b604051610095989796959493929190610ebd565b6100b1610142366004610f14565b610467565b61008b60005481565b61016361015e366004610e8e565b610619565b6040516001600160a01b039091168152602001610095565b6000805480825260016020818152604080852093845583830188905560038401879055600484018690556007840180546002860187905562ffffff191690931790925592548151908152928301869052820184905260608201839052907f4763fc6c5dfee67f966a1c46c5a30319897c10d0f43e5922a75a24cc223a34319060800160405180910390a160008054908061021483610fd9565b919050555050505050565b600083815260016020526040902060038101546002820154111561028a5760405162461bcd60e51b815260206004820152601860248201527f416c6c20697465726174696f6e7320636f6d706c65746564000000000000000060448201526064015b60405180910390fd5b61029384610619565b6001600160a01b0316336001600160a01b03161461030b5760405162461bcd60e51b815260206004820152602f60248201527f4f6e6c7920526f6f742041676772656761746f722063616e20636f6d706c657460448201526e32903a34329034ba32b930ba34b7b760891b6064820152608401610281565b6103e860005b84518110156103ad5760008285838151811061032f5761032f610ff2565b602002602001015160646103439190611008565b61034d919061103b565b90508084600801600088858151811061036857610368610ff2565b60200260200101516001600160a01b03166001600160a01b03168152602001908152602001600020600082825461039f919061104f565b909155505050600101610311565b508160030154826002015410156103cc576103c78561065c565b6103e9565b6103d5856106da565b60078201805462ff00001916620100001790555b7f4eeaaf26e92f2c1dd158d49e5c5a5ffa5ea6fe06bb1e237680b960b5ffb6497f8583600201548460060160008154811061042657610426610ff2565b60009182526020918290206002909102015460408051948552918401929092526001600160a01b039091169082015260600160405180910390a15050505050565b6000838152600160205260409020600781015460ff166104c05760405162461bcd60e51b815260206004820152601460248201527315185cdac81b9bdd081a5b9a5d1a585b1a5e995960621b6044820152606401610281565b600181015460058201541061050e5760405162461bcd60e51b815260206004820152601460248201527315185cdac81a5cc8185b1c9958591e48199d5b1b60621b6044820152606401610281565b604080516060810182526001600160a01b038581168252600060208084018281529484018790526005860180546001810182559083529120835160029283029091018054919093166001600160a01b03198216811784559451939492939284926001600160a81b03199092161790600160a01b90849081111561059357610593610ea7565b0217905550604082015160018201906105ac90826110ed565b50505060018101546005820154036105d85760078101805461ff0019166101001790556105d88461065c565b7f143c3536e28d56a1fac3d14af6dfd6931ab7363840dd200d22b6b16b2664655984848460405161060b939291906111ad565b60405180910390a150505050565b6000818152600160205260408120600681018054839061063b5761063b610ff2565b60009182526020909120600290910201546001600160a01b03169392505050565b60008181526001602052604090206007810154610100900460ff166106b65760405162461bcd60e51b815260206004820152601060248201526f15185cdac81a5cc81b9bdd08199d5b1b60821b6044820152606401610281565b6106bf826107a7565b6002810180549060006106d183610fd9565b91905055505050565b6000818152600160205260408120600481015490915b60058301548110156107a157600083600501828154811061071357610713610ff2565b600091825260208083206002909202909101546001600160a01b031680835260088701909152604082205490925090606461074e8387611008565b610758919061103b565b6040519091506001600160a01b0384169082156108fc029083906000818181858888f19350505050158015610791573d6000803e3d6000fd5b5050600190920191506106f09050565b50505050565b6000818152600160205260408120600581015490915b81811015610951578260060160405180606001604052808560050184815481106107e9576107e9610ff2565b600091825260208083206002909202909101546001600160a01b031683529190910190815260200185600501848154811061082657610826610ff2565b9060005260206000209060020201600101805461084290611062565b80601f016020809104026020016040519081016040528092919081815260200182805461086e90611062565b80156108bb5780601f10610890576101008083540402835291602001916108bb565b820191906000526020600020905b81548152906001019060200180831161089e57829003601f168201915b505050919092525050815460018101835560009283526020928390208251600292830290910180546001600160a01b039092166001600160a01b031983168117825594840151939490939284926001600160a81b03191690911790600160a01b90849081111561092d5761092d610ea7565b02179055506040820151600182019061094690826110ed565b5050506001016107bd565b50600682015460009061096690600190611213565b90505b8015610c2e576006830154600090610982908390611213565b60025461098f9190611226565b9050600060405180606001604052808660060185815481106109b3576109b3610ff2565b6000918252602091829020600290910201546001600160a01b031682526006880180549290910191869081106109eb576109eb610ff2565b6000918252602090912060029182020154600160a01b900460ff1690811115610a1657610a16610ea7565b8152602001866006018581548110610a3057610a30610ff2565b90600052602060002090600202016001018054610a4c90611062565b80601f0160208091040260200160405190810160405280929190818152602001828054610a7890611062565b8015610ac55780601f10610a9a57610100808354040283529160200191610ac5565b820191906000526020600020905b815481529060010190602001808311610aa857829003601f168201915b50505050508152509050846006018281548110610ae457610ae4610ff2565b9060005260206000209060020201856006018481548110610b0757610b07610ff2565b600091825260209091208254600292830290910180546001600160a01b031981166001600160a01b0390931692831782558454919360ff600160a01b93849004169385936001600160a81b03199093161791908490811115610b6b57610b6b610ea7565b0217905550600181810190610b829084018261123a565b5090505080856006018381548110610b9c57610b9c610ff2565b60009182526020918290208351600292830290910180546001600160a01b039092166001600160a01b0319831681178255938501519093909284926001600160a81b03191690911790600160a01b908490811115610bfc57610bfc610ea7565b021790555060408201516001820190610c1590826110ed565b5090505050508080610c2690611315565b915050610969565b507f63a35d37247ff97e2bf84c9f8658f07329e2f1379712f021e2a795d414e1a6f58383600601600081548110610c6757610c67610ff2565b6000918252602090912060029091020154604051610c9492916001600160a01b031690600687019061132c565b60405180910390a1505050565b600080600060608486031215610cb657600080fd5b505081359360208301359350604090920135919050565b634e487b7160e01b600052604160045260246000fd5b604051601f8201601f1916810167ffffffffffffffff81118282101715610d0c57610d0c610ccd565b604052919050565b600067ffffffffffffffff821115610d2e57610d2e610ccd565b5060051b60200190565b80356001600160a01b0381168114610d4f57600080fd5b919050565b600082601f830112610d6557600080fd5b81356020610d7a610d7583610d14565b610ce3565b8083825260208201915060208460051b870101935086841115610d9c57600080fd5b602086015b84811015610db85780358352918301918301610da1565b509695505050505050565b600080600060608486031215610dd857600080fd5b8335925060208085013567ffffffffffffffff80821115610df857600080fd5b818701915087601f830112610e0c57600080fd5b8135610e1a610d7582610d14565b81815260059190911b8301840190848101908a831115610e3957600080fd5b938501935b82851015610e5e57610e4f85610d38565b82529385019390850190610e3e565b965050506040870135925080831115610e7657600080fd5b5050610e8486828701610d54565b9150509250925092565b600060208284031215610ea057600080fd5b5035919050565b634e487b7160e01b600052602160045260246000fd5b60006101008201905089825288602083015287604083015286606083015285608083015284151560a083015283151560c083015260028310610f0157610f01610ea7565b8260e08301529998505050505050505050565b600080600060608486031215610f2957600080fd5b833592506020610f3a818601610d38565b9250604085013567ffffffffffffffff80821115610f5757600080fd5b818701915087601f830112610f6b57600080fd5b813581811115610f7d57610f7d610ccd565b610f8f601f8201601f19168501610ce3565b91508082528884828501011115610fa557600080fd5b80848401858401376000848284010152508093505050509250925092565b634e487b7160e01b600052601160045260246000fd5b600060018201610feb57610feb610fc3565b5060010190565b634e487b7160e01b600052603260045260246000fd5b808202811582820484141761101f5761101f610fc3565b92915050565b634e487b7160e01b600052601260045260246000fd5b60008261104a5761104a611025565b500490565b8082018082111561101f5761101f610fc3565b600181811c9082168061107657607f821691505b60208210810361109657634e487b7160e01b600052602260045260246000fd5b50919050565b601f8211156110e8576000816000526020600020601f850160051c810160208610156110c55750805b601f850160051c820191505b818110156110e4578281556001016110d1565b5050505b505050565b815167ffffffffffffffff81111561110757611107610ccd565b61111b816111158454611062565b8461109c565b602080601f83116001811461115057600084156111385750858301515b600019600386901b1c1916600185901b1785556110e4565b600085815260208120601f198616915b8281101561117f57888601518255948401946001909101908401611160565b508582101561119d5787850151600019600388901b60f8161c191681555b5050505050600190811b01905550565b8381526000602060018060a01b038516602084015260606040840152835180606085015260005b818110156111f0578581018301518582016080015282016111d4565b506000608082860101526080601f19601f83011685010192505050949350505050565b8181038181111561101f5761101f610fc3565b60008261123557611235611025565b500690565b818103611245575050565b61124f8254611062565b67ffffffffffffffff81111561126757611267610ccd565b611275816111158454611062565b6000601f8211600181146112a957600083156112915750848201545b600019600385901b1c1916600184901b17845561130e565b600085815260209020601f19841690600086815260209020845b838110156112e357828601548255600195860195909101906020016112c3565b50858310156113015781850154600019600388901b60f8161c191681555b50505060018360011b0184555b5050505050565b60008161132457611324610fc3565b506000190190565b60006060820185835260018060a01b03808616602085015260606040850152818554808452608093508386019150838160051b870101600088815260208120815b8481101561143f57898403607f190186528154878116855260a01c60ff166003811061139b5761139b610ea7565b60208501526060604085015260018201805484906113b881611062565b80606089015260018216600081146113d757600181146113f157611423565b60ff198316898e015281151560051b89018d019350611423565b84885260208820885b8381101561141b5781548f828d0101526001820191506020810190506113fa565b8a018e019450505b505050602097909701969450506002919091019060010161136d565b50919b9a505050505050505050505056fea26469706673582212206782e2e80fc2f60fec6d899fb37042cb4923291d95973d2d4af36ebdf40524d564736f6c63430008170033","bytecodeSha1":"e5df837babe8ab4196d7c3d35eebc8d64bd837f7","compiler":{"evm_version":"istanbul","optimizer":{"enabled":true,"runs":200},"version":"0.8.23+commit.f704f362"},"contractName":"MainContract","language":"Solidity","natspec":{"kind":"dev","methods":{},"version":1},"opcodes":"PUSH1 0x80 PUSH1 0x40 MSTORE CALLVALUE DUP1 ISZERO PUSH2 0x10 JUMPI PUSH1 0x0 DUP1 REVERT JUMPDEST POP PUSH1 0x4 CALLDATASIZE LT PUSH2 0x7D JUMPI PUSH1 0x0 CALLDATALOAD PUSH1 0xE0 SHR DUP1 PUSH4 0x8D977672 GT PUSH2 0x5B JUMPI DUP1 PUSH4 0x8D977672 EQ PUSH2 0xC6 JUMPI DUP1 PUSH4 0xDF886BCF EQ PUSH2 0x134 JUMPI DUP1 PUSH4 0xFDC3D8D7 EQ PUSH2 0x147 JUMPI DUP1 PUSH4 0xFE2FC83C EQ PUSH2 0x150 JUMPI PUSH1 0x0 DUP1 REVERT JUMPDEST DUP1 PUSH4 0x47CE07CC EQ PUSH2 0x82 JUMPI DUP1 PUSH4 0x5A232DFD EQ PUSH2 0x9E JUMPI DUP1 PUSH4 0x7C9C9007 EQ PUSH2 0xB3 JUMPI JUMPDEST PUSH1 0x0 DUP1 REVERT JUMPDEST PUSH2 0x8B PUSH1 0x2 SLOAD DUP2 JUMP JUMPDEST PUSH1 0x40 MLOAD SWAP1 DUP2 MSTORE PUSH1 0x20 ADD JUMPDEST PUSH1 0x40 MLOAD DUP1 SWAP2 SUB SWAP1 RETURN JUMPDEST PUSH2 0xB1 PUSH2 0xAC CALLDATASIZE PUSH1 0x4 PUSH2 0xCA1 JUMP JUMPDEST PUSH2 0x17B JUMP JUMPDEST STOP JUMPDEST PUSH2 0xB1 PUSH2 0xC1 CALLDATASIZE PUSH1 0x4 PUSH2 0xDC3 JUMP JUMPDEST PUSH2 0x21F JUMP JUMPDEST PUSH2 0x120 PUSH2 0xD4 CALLDATASIZE PUSH1 0x4 PUSH2 0xE8E JUMP JUMPDEST PUSH1 0x1 PUSH1 0x20 DUP2 SWAP1 MSTORE PUSH1 0x0 SWAP2 DUP3 MSTORE PUSH1 0x40 SWAP1 SWAP2 KECCAK256 DUP1 SLOAD SWAP2 DUP2 ADD SLOAD PUSH1 0x2 DUP3 ADD SLOAD PUSH1 0x3 DUP4 ADD SLOAD PUSH1 0x4 DUP5 ADD SLOAD PUSH1 0x7 SWAP1 SWAP5 ADD SLOAD SWAP3 SWAP4 SWAP2 SWAP3 SWAP1 SWAP2 SWAP1 PUSH1 0xFF DUP1 DUP3 AND SWAP2 PUSH2 0x100 DUP2 DIV DUP3 AND SWAP2 PUSH3 0x10000 SWAP1 SWAP2 DIV AND DUP9 JUMP JUMPDEST PUSH1 0x40 MLOAD PUSH2 0x95 SWAP9 SWAP8 SWAP7 SWAP6 SWAP5 SWAP4 SWAP3 SWAP2 SWAP1 PUSH2 0xEBD JUMP JUMPDEST PUSH2 0xB1 PUSH2 0x142 CALLDATASIZE PUSH1 0x4 PUSH2 0xF14 JUMP JUMPDEST PUSH2 0x467 JUMP JUMPDEST PUSH2 0x8B PUSH1 0x0 SLOAD DUP2 JUMP JUMPDEST PUSH2 0x163 PUSH2 0x15E CALLDATASIZE PUSH1 0x4 PUSH2 0xE8E JUMP JUMPDEST PUSH2 0x619 JUMP JUMPDEST PUSH1 0x40 MLOAD PUSH1 0x1 PUSH1 0x1 PUSH1 0xA0 SHL SUB SWAP1 SWAP2 AND DUP2 MSTORE PUSH1 0x20 ADD PUSH2 0x95 JUMP JUMPDEST PUSH1 0x0 DUP1 SLOAD DUP1 DUP3 MSTORE PUSH1 0x1 PUSH1 0x20 DUP2 DUP2 MSTORE PUSH1 0x40 DUP1 DUP6 KECCAK256 SWAP4 DUP5 SSTORE DUP4 DUP4 ADD DUP9 SWAP1 SSTORE PUSH1 0x3 DUP5 ADD DUP8 SWAP1 SSTORE PUSH1 0x4 DUP5 ADD DUP7 SWAP1 SSTORE PUSH1 0x7 DUP5 ADD DUP1 SLOAD PUSH1 0x2 DUP7 ADD DUP8 SWAP1 SSTORE PUSH3 0xFFFFFF NOT AND SWAP1 SWAP4 OR SWAP1 SWAP3 SSTORE SWAP3 SLOAD DUP2 MLOAD SWAP1 DUP2 MSTORE SWAP3 DUP4 ADD DUP7 SWAP1 MSTORE DUP3 ADD DUP5 SWAP1 MSTORE PUSH1 0x60 DUP3 ADD DUP4 SWAP1 MSTORE SWAP1 PUSH32 0x4763FC6C5DFEE67F966A1C46C5A30319897C10D0F43E5922A75A24CC223A3431 SWAP1 PUSH1 0x80 ADD PUSH1 0x40 MLOAD DUP1 SWAP2 SUB SWAP1 LOG1 PUSH1 0x0 DUP1 SLOAD SWAP1 DUP1 PUSH2 0x214 DUP4 PUSH2 0xFD9 JUMP JUMPDEST SWAP2 SWAP1 POP SSTORE POP POP POP POP POP JUMP JUMPDEST PUSH1 0x0 DUP4 DUP2 MSTORE PUSH1 0x1 PUSH1 0x20 MSTORE PUSH1 0x40 SWAP1 KECCAK256 PUSH1 0x3 DUP2 ADD SLOAD PUSH1 0x2 DUP3 ADD SLOAD GT ISZERO PUSH2 0x28A JUMPI PUSH1 0x40 MLOAD PUSH3 0x461BCD PUSH1 0xE5 SHL DUP2 MSTORE PUSH1 0x20 PUSH1 0x4 DUP3 ADD MSTORE PUSH1 0x18 PUSH1 0x24 DUP3 ADD MSTORE PUSH32 0x416C6C20697465726174696F6E7320636F6D706C657465640000000000000000 PUSH1 0x44 DUP3 ADD MSTORE PUSH1 0x64 ADD JUMPDEST PUSH1 0x40 MLOAD DUP1 SWAP2 SUB SWAP1 REVERT JUMPDEST PUSH2 0x293 DUP5 PUSH2 0x619 JUMP JUMPDEST PUSH1 0x1 PUSH1 0x1 PUSH1 0xA0 SHL SUB AND CALLER PUSH1 0x1 PUSH1 0x1 PUSH1 0xA0 SHL SUB AND EQ PUSH2 0x30B JUMPI PUSH1 0x40 MLOAD PUSH3 0x461BCD PUSH1 0xE5 SHL DUP2 MSTORE PUSH1 0x20 PUSH1 0x4 DUP3 ADD MSTORE PUSH1 0x2F PUSH1 0x24 DUP3 ADD MSTORE PUSH32 0x4F6E6C7920526F6F742041676772656761746F722063616E20636F6D706C6574 PUSH1 0x44 DUP3 ADD MSTORE PUSH15 0x32903A34329034BA32B930BA34B7B7 PUSH1 0x89 SHL PUSH1 0x64 DUP3 ADD MSTORE PUSH1 0x84 ADD PUSH2 0x281 JUMP JUMPDEST PUSH2 0x3E8 PUSH1 0x0 JUMPDEST DUP5 MLOAD DUP2 LT ISZERO PUSH2 0x3AD JUMPI PUSH1 0x0 DUP3 DUP6 DUP4 DUP2 MLOAD DUP2 LT PUSH2 0x32F JUMPI PUSH2 0x32F PUSH2 0xFF2 JUMP JUMPDEST PUSH1 0x20 MUL PUSH1 0x20 ADD ADD MLOAD PUSH1 0x64 PUSH2 0x343 SWAP2 SWAP1 PUSH2 0x1008 JUMP JUMPDEST PUSH2 0x34D SWAP2 SWAP1 PUSH2 0x103B JUMP JUMPDEST SWAP1 POP DUP1 DUP5 PUSH1 0x8 ADD PUSH1 0x0 DUP9 DUP6 DUP2 MLOAD DUP2 LT PUSH2 0x368 JUMPI PUSH2 0x368 PUSH2 0xFF2 JUMP JUMPDEST PUSH1 0x20 MUL PUSH1 0x20 ADD ADD MLOAD PUSH1 0x1 PUSH1 0x1 PUSH1 0xA0 SHL SUB AND PUSH1 0x1 PUSH1 0x1 PUSH1 0xA0 SHL SUB AND DUP2 MSTORE PUSH1 0x20 ADD SWAP1 DUP2 MSTORE PUSH1 0x20 ADD PUSH1 0x0 KECCAK256 PUSH1 0x0 DUP3 DUP3 SLOAD PUSH2 0x39F SWAP2 SWAP1 PUSH2 0x104F JUMP JUMPDEST SWAP1 SWAP2 SSTORE POP POP POP PUSH1 0x1 ADD PUSH2 0x311 JUMP JUMPDEST POP DUP2 PUSH1 0x3 ADD SLOAD DUP3 PUSH1 0x2 ADD SLOAD LT ISZERO PUSH2 0x3CC JUMPI PUSH2 0x3C7 DUP6 PUSH2 0x65C JUMP JUMPDEST PUSH2 0x3E9 JUMP JUMPDEST PUSH2 0x3D5 DUP6 PUSH2 0x6DA JUMP JUMPDEST PUSH1 0x7 DUP3 ADD DUP1 SLOAD PUSH3 0xFF0000 NOT AND PUSH3 0x10000 OR SWAP1 SSTORE JUMPDEST PUSH32 0x4EEAAF26E92F2C1DD158D49E5C5A5FFA5EA6FE06BB1E237680B960B5FFB6497F DUP6 DUP4 PUSH1 0x2 ADD SLOAD DUP5 PUSH1 0x6 ADD PUSH1 0x0 DUP2 SLOAD DUP2 LT PUSH2 0x426 JUMPI PUSH2 0x426 PUSH2 0xFF2 JUMP JUMPDEST PUSH1 0x0 SWAP2 DUP3 MSTORE PUSH1 0x20 SWAP2 DUP3 SWAP1 KECCAK256 PUSH1 0x2 SWAP1 SWAP2 MUL ADD SLOAD PUSH1 0x40 DUP1 MLOAD SWAP5 DUP6 MSTORE SWAP2 DUP5 ADD SWAP3 SWAP1 SWAP3 MSTORE PUSH1 0x1 PUSH1 0x1 PUSH1 0xA0 SHL SUB SWAP1 SWAP2 AND SWAP1 DUP3 ADD MSTORE PUSH1 0x60 ADD PUSH1 0x40 MLOAD DUP1 SWAP2 SUB SWAP1 LOG1 POP POP POP POP POP JUMP JUMPDEST PUSH1 0x0 DUP4 DUP2 MSTORE PUSH1 0x1 PUSH1 0x20 MSTORE PUSH1 0x40 SWAP1 KECCAK256 PUSH1 0x7 DUP2 ADD SLOAD PUSH1 0xFF AND PUSH2 0x4C0 JUMPI PUSH1 0x40 MLOAD PUSH3 0x461BCD PUSH1 0xE5 SHL DUP2 MSTORE PUSH1 0x20 PUSH1 0x4 DUP3 ADD MSTORE PUSH1 0x14 PUSH1 0x24 DUP3 ADD MSTORE PUSH20 0x15185CDAC81B9BDD081A5B9A5D1A585B1A5E9959 PUSH1 0x62 SHL PUSH1 0x44 DUP3 ADD MSTORE PUSH1 0x64 ADD PUSH2 0x281 JUMP JUMPDEST PUSH1 0x1 DUP2 ADD SLOAD PUSH1 0x5 DUP3 ADD SLOAD LT PUSH2 0x50E JUMPI PUSH1 0x40 MLOAD PUSH3 0x461BCD PUSH1 0xE5 SHL DUP2 MSTORE PUSH1 0x20 PUSH1 0x4 DUP3 ADD MSTORE PUSH1 0x14 PUSH1 0x24 DUP3 ADD MSTORE PUSH20 0x15185CDAC81A5CC8185B1C9958591E48199D5B1B PUSH1 0x62 SHL PUSH1 0x44 DUP3 ADD MSTORE PUSH1 0x64 ADD PUSH2 0x281 JUMP JUMPDEST PUSH1 0x40 DUP1 MLOAD PUSH1 0x60 DUP2 ADD DUP3 MSTORE PUSH1 0x1 PUSH1 0x1 PUSH1 0xA0 SHL SUB DUP6 DUP2 AND DUP3 MSTORE PUSH1 0x0 PUSH1 0x20 DUP1 DUP5 ADD DUP3 DUP2 MSTORE SWAP5 DUP5 ADD DUP8 SWAP1 MSTORE PUSH1 0x5 DUP7 ADD DUP1 SLOAD PUSH1 0x1 DUP2 ADD DUP3 SSTORE SWAP1 DUP4 MSTORE SWAP2 KECCAK256 DUP4 MLOAD PUSH1 0x2 SWAP3 DUP4 MUL SWAP1 SWAP2 ADD DUP1 SLOAD SWAP2 SWAP1 SWAP4 AND PUSH1 0x1 PUSH1 0x1 PUSH1 0xA0 SHL SUB NOT DUP3 AND DUP2 OR DUP5 SSTORE SWAP5 MLOAD SWAP4 SWAP5 SWAP3 SWAP4 SWAP3 DUP5 SWAP3 PUSH1 0x1 PUSH1 0x1 PUSH1 0xA8 SHL SUB NOT SWAP1 SWAP3 AND OR SWAP1 PUSH1 0x1 PUSH1 0xA0 SHL SWAP1 DUP5 SWAP1 DUP2 GT ISZERO PUSH2 0x593 JUMPI PUSH2 0x593 PUSH2 0xEA7 JUMP JUMPDEST MUL OR SWAP1 SSTORE POP PUSH1 0x40 DUP3 ADD MLOAD PUSH1 0x1 DUP3 ADD SWAP1 PUSH2 0x5AC SWAP1 DUP3 PUSH2 0x10ED JUMP JUMPDEST POP POP POP PUSH1 0x1 DUP2 ADD SLOAD PUSH1 0x5 DUP3 ADD SLOAD SUB PUSH2 0x5D8 JUMPI PUSH1 0x7 DUP2 ADD DUP1 SLOAD PUSH2 0xFF00 NOT AND PUSH2 0x100 OR SWAP1 SSTORE PUSH2 0x5D8 DUP5 PUSH2 0x65C JUMP JUMPDEST PUSH32 0x143C3536E28D56A1FAC3D14AF6DFD6931AB7363840DD200D22B6B16B26646559 DUP5 DUP5 DUP5 PUSH1 0x40 MLOAD PUSH2 0x60B SWAP4 SWAP3 SWAP2 SWAP1 PUSH2 0x11AD JUMP JUMPDEST PUSH1 0x40 MLOAD DUP1 SWAP2 SUB SWAP1 LOG1 POP POP POP POP JUMP JUMPDEST PUSH1 0x0 DUP2 DUP2 MSTORE PUSH1 0x1 PUSH1 0x20 MSTORE PUSH1 0x40 DUP2 KECCAK256 PUSH1 0x6 DUP2 ADD DUP1 SLOAD DUP4 SWAP1 PUSH2 0x63B JUMPI PUSH2 0x63B PUSH2 0xFF2 JUMP JUMPDEST PUSH1 0x0 SWAP2 DUP3 MSTORE PUSH1 0x20 SWAP1 SWAP2 KECCAK256 PUSH1 0x2 SWAP1 SWAP2 MUL ADD SLOAD PUSH1 0x1 PUSH1 0x1 PUSH1 0xA0 SHL SUB AND SWAP4 SWAP3 POP POP POP JUMP JUMPDEST PUSH1 0x0 DUP2 DUP2 MSTORE PUSH1 0x1 PUSH1 0x20 MSTORE PUSH1 0x40 SWAP1 KECCAK256 PUSH1 0x7 DUP2 ADD SLOAD PUSH2 0x100 SWAP1 DIV PUSH1 0xFF AND PUSH2 0x6B6 JUMPI PUSH1 0x40 MLOAD PUSH3 0x461BCD PUSH1 0xE5 SHL DUP2 MSTORE PUSH1 0x20 PUSH1 0x4 DUP3 ADD MSTORE PUSH1 0x10 PUSH1 0x24 DUP3 ADD MSTORE PUSH16 0x15185CDAC81A5CC81B9BDD08199D5B1B PUSH1 0x82 SHL PUSH1 0x44 DUP3 ADD MSTORE PUSH1 0x64 ADD PUSH2 0x281 JUMP JUMPDEST PUSH2 0x6BF DUP3 PUSH2 0x7A7 JUMP JUMPDEST PUSH1 0x2 DUP2 ADD DUP1 SLOAD SWAP1 PUSH1 0x0 PUSH2 0x6D1 DUP4 PUSH2 0xFD9 JUMP JUMPDEST SWAP2 SWAP1 POP SSTORE POP POP POP JUMP JUMPDEST PUSH1 0x0 DUP2 DUP2 MSTORE PUSH1 0x1 PUSH1 0x20 MSTORE PUSH1 0x40 DUP2 KECCAK256 PUSH1 0x4 DUP2 ADD SLOAD SWAP1 SWAP2 JUMPDEST PUSH1 0x5 DUP4 ADD SLOAD DUP2 LT ISZERO PUSH2 0x7A1 JUMPI PUSH1 0x0 DUP4 PUSH1 0x5 ADD DUP3 DUP2 SLOAD DUP2 LT PUSH2 0x713 JUMPI PUSH2 0x713 PUSH2 0xFF2 JUMP JUMPDEST PUSH1 0x0 SWAP2 DUP3 MSTORE PUSH1 0x20 DUP1 DUP4 KECCAK256 PUSH1 0x2 SWAP1 SWAP3 MUL SWAP1 SWAP2 ADD SLOAD PUSH1 0x1 PUSH1 0x1 PUSH1 0xA0 SHL SUB AND DUP1 DUP4 MSTORE PUSH1 0x8 DUP8 ADD SWAP1 SWAP2 MSTORE PUSH1 0x40 DUP3 KECCAK256 SLOAD SWAP1 SWAP3 POP SWAP1 PUSH1 0x64 PUSH2 0x74E DUP4 DUP8 PUSH2 0x1008 JUMP JUMPDEST PUSH2 0x758 SWAP2 SWAP1 PUSH2 0x103B JUMP JUMPDEST PUSH1 0x40 MLOAD SWAP1 SWAP2 POP PUSH1 0x1 PUSH1 0x1 PUSH1 0xA0 SHL SUB DUP5 AND SWAP1 DUP3 ISZERO PUSH2 0x8FC MUL SWAP1 DUP4 SWAP1 PUSH1 0x0 DUP2 DUP2 DUP2 DUP6 DUP9 DUP9 CALL SWAP4 POP POP POP POP ISZERO DUP1 ISZERO PUSH2 0x791 JUMPI RETURNDATASIZE PUSH1 0x0 DUP1 RETURNDATACOPY RETURNDATASIZE PUSH1 0x0 REVERT JUMPDEST POP POP PUSH1 0x1 SWAP1 SWAP3 ADD SWAP2 POP PUSH2 0x6F0 SWAP1 POP JUMP JUMPDEST POP POP POP POP JUMP JUMPDEST PUSH1 0x0 DUP2 DUP2 MSTORE PUSH1 0x1 PUSH1 0x20 MSTORE PUSH1 0x40 DUP2 KECCAK256 PUSH1 0x5 DUP2 ADD SLOAD SWAP1 SWAP2 JUMPDEST DUP2 DUP2 LT ISZERO PUSH2 0x951 JUMPI DUP3 PUSH1 0x6 ADD PUSH1 0x40 MLOAD DUP1 PUSH1 0x60 ADD PUSH1 0x40 MSTORE DUP1 DUP6 PUSH1 0x5 ADD DUP5 DUP2 SLOAD DUP2 LT PUSH2 0x7E9 JUMPI PUSH2 0x7E9 PUSH2 0xFF2 JUMP JUMPDEST PUSH1 0x0 SWAP2 DUP3 MSTORE PUSH1 0x20 DUP1 DUP4 KECCAK256 PUSH1 0x2 SWAP1 SWAP3 MUL SWAP1 SWAP2 ADD SLOAD PUSH1 0x1 PUSH1 0x1 PUSH1 0xA0 SHL SUB AND DUP4 MSTORE SWAP2 SWAP1 SWAP2 ADD SWAP1 DUP2 MSTORE PUSH1 0x20 ADD DUP6 PUSH1 0x5 ADD DUP5 DUP2 SLOAD DUP2 LT PUSH2 0x826 JUMPI PUSH2 0x826 PUSH2 0xFF2 JUMP JUMPDEST SWAP1 PUSH1 0x0 MSTORE PUSH1 0x20 PUSH1 0x0 KECCAK256 SWAP1 PUSH1 0x2 MUL ADD PUSH1 0x1 ADD DUP1 SLOAD PUSH2 0x842 SWAP1 PUSH2 0x1062 JUMP JUMPDEST DUP1 PUSH1 0x1F ADD PUSH1 0x20 DUP1 SWAP2 DIV MUL PUSH1 0x20 ADD PUSH1 0x40 MLOAD SWAP1 DUP2 ADD PUSH1 0x40 MSTORE DUP1 SWAP3 SWAP2 SWAP1 DUP2 DUP2 MSTORE PUSH1 0x20 ADD DUP3 DUP1 SLOAD PUSH2 0x86E SWAP1 PUSH2 0x1062 JUMP JUMPDEST DUP1 ISZERO PUSH2 0x8BB JUMPI DUP1 PUSH1 0x1F LT PUSH2 0x890 JUMPI PUSH2 0x100 DUP1 DUP4 SLOAD DIV MUL DUP4 MSTORE SWAP2 PUSH1 0x20 ADD SWAP2 PUSH2 0x8BB JUMP JUMPDEST DUP3 ADD SWAP2 SWAP1 PUSH1 0x0 MSTORE PUSH1 0x20 PUSH1 0x0 KECCAK256 SWAP1 JUMPDEST DUP2 SLOAD DUP2 MSTORE SWAP1 PUSH1 0x1 ADD SWAP1 PUSH1 0x20 ADD DUP1 DUP4 GT PUSH2 0x89E JUMPI DUP3 SWAP1 SUB PUSH1 0x1F AND DUP3 ADD SWAP2 JUMPDEST POP POP POP SWAP2 SWAP1 SWAP3 MSTORE POP POP DUP2 SLOAD PUSH1 0x1 DUP2 ADD DUP4 SSTORE PUSH1 0x0 SWAP3 DUP4 MSTORE PUSH1 0x20 SWAP3 DUP4 SWAP1 KECCAK256 DUP3 MLOAD PUSH1 0x2 SWAP3 DUP4 MUL SWAP1 SWAP2 ADD DUP1 SLOAD PUSH1 0x1 PUSH1 0x1 PUSH1 0xA0 SHL SUB SWAP1 SWAP3 AND PUSH1 0x1 PUSH1 0x1 PUSH1 0xA0 SHL SUB NOT DUP4 AND DUP2 OR DUP3 SSTORE SWAP5 DUP5 ADD MLOAD SWAP4 SWAP5 SWAP1 SWAP4 SWAP3 DUP5 SWAP3 PUSH1 0x1 PUSH1 0x1 PUSH1 0xA8 SHL SUB NOT AND SWAP1 SWAP2 OR SWAP1 PUSH1 0x1 PUSH1 0xA0 SHL SWAP1 DUP5 SWAP1 DUP2 GT ISZERO PUSH2 0x92D JUMPI PUSH2 0x92D PUSH2 0xEA7 JUMP JUMPDEST MUL OR SWAP1 SSTORE POP PUSH1 0x40 DUP3 ADD MLOAD PUSH1 0x1 DUP3 ADD SWAP1 PUSH2 0x946 SWAP1 DUP3 PUSH2 0x10ED JUMP JUMPDEST POP POP POP PUSH1 0x1 ADD PUSH2 0x7BD JUMP JUMPDEST POP PUSH1 0x6 DUP3 ADD SLOAD PUSH1 0x0 SWAP1 PUSH2 0x966 SWAP1 PUSH1 0x1 SWAP1 PUSH2 0x1213 JUMP JUMPDEST SWAP1 POP JUMPDEST DUP1 ISZERO PUSH2 0xC2E JUMPI PUSH1 0x6 DUP4 ADD SLOAD PUSH1 0x0 SWAP1 PUSH2 0x982 SWAP1 DUP4 SWAP1 PUSH2 0x1213 JUMP JUMPDEST PUSH1 0x2 SLOAD PUSH2 0x98F SWAP2 SWAP1 PUSH2 0x1226 JUMP JUMPDEST SWAP1 POP PUSH1 0x0 PUSH1 0x40 MLOAD DUP1 PUSH1 0x60 ADD PUSH1 0x40 MSTORE DUP1 DUP7 PUSH1 0x6 ADD DUP6 DUP2 SLOAD DUP2 LT PUSH2 0x9B3 JUMPI PUSH2 0x9B3 PUSH2 0xFF2 JUMP JUMPDEST PUSH1 0x0 SWAP2 DUP3 MSTORE PUSH1 0x20 SWAP2 DUP3 SWAP1 KECCAK256 PUSH1 0x2 SWAP1 SWAP2 MUL ADD SLOAD PUSH1 0x1 PUSH1 0x1 PUSH1 0xA0 SHL SUB AND DUP3 MSTORE PUSH1 0x6 DUP9 ADD DUP1 SLOAD SWAP3 SWAP1 SWAP2 ADD SWAP2 DUP7 SWAP1 DUP2 LT PUSH2 0x9EB JUMPI PUSH2 0x9EB PUSH2 0xFF2 JUMP JUMPDEST PUSH1 0x0 SWAP2 DUP3 MSTORE PUSH1 0x20 SWAP1 SWAP2 KECCAK256 PUSH1 0x2 SWAP2 DUP3 MUL ADD SLOAD PUSH1 0x1 PUSH1 0xA0 SHL SWAP1 DIV PUSH1 0xFF AND SWAP1 DUP2 GT ISZERO PUSH2 0xA16 JUMPI PUSH2 0xA16 PUSH2 0xEA7 JUMP JUMPDEST DUP2 MSTORE PUSH1 0x20 ADD DUP7 PUSH1 0x6 ADD DUP6 DUP2 SLOAD DUP2 LT PUSH2 0xA30 JUMPI PUSH2 0xA30 PUSH2 0xFF2 JUMP JUMPDEST SWAP1 PUSH1 0x0 MSTORE PUSH1 0x20 PUSH1 0x0 KECCAK256 SWAP1 PUSH1 0x2 MUL ADD PUSH1 0x1 ADD DUP1 SLOAD PUSH2 0xA4C SWAP1 PUSH2 0x1062 JUMP JUMPDEST DUP1 PUSH1 0x1F ADD PUSH1 0x20 DUP1 SWAP2 DIV MUL PUSH1 0x20 ADD PUSH1 0x40 MLOAD SWAP1 DUP2 ADD PUSH1 0x40 MSTORE DUP1 SWAP3 SWAP2 SWAP1 DUP2 DUP2 MSTORE PUSH1 0x20 ADD DUP3 DUP1 SLOAD PUSH2 0xA78 SWAP1 PUSH2 0x1062 JUMP JUMPDEST DUP1 ISZERO PUSH2 0xAC5 JUMPI DUP1 PUSH1 0x1F LT PUSH2 0xA9A JUMPI PUSH2 0x100 DUP1 DUP4 SLOAD DIV MUL DUP4 MSTORE SWAP2 PUSH1 0x20 ADD SWAP2 PUSH2 0xAC5 JUMP JUMPDEST DUP3 ADD SWAP2 SWAP1 PUSH1 0x0 MSTORE PUSH1 0x20 PUSH1 0x0 KECCAK256 SWAP1 JUMPDEST DUP2 SLOAD DUP2 MSTORE SWAP1 PUSH1 0x1 ADD SWAP1 PUSH1 0x20 ADD DUP1 DUP4 GT PUSH2 0xAA8 JUMPI DUP3 SWAP1 SUB PUSH1 0x1F AND DUP3 ADD SWAP2 JUMPDEST POP POP POP POP POP DUP2 MSTORE POP SWAP1 POP DUP5 PUSH1 0x6 ADD DUP3 DUP2 SLOAD DUP2 LT PUSH2 0xAE4 JUMPI PUSH2 0xAE4 PUSH2 0xFF2 JUMP JUMPDEST SWAP1 PUSH1 0x0 MSTORE PUSH1 0x20 PUSH1 0x0 KECCAK256 SWAP1 PUSH1 0x2 MUL ADD DUP6 PUSH1 0x6 ADD DUP5 DUP2 SLOAD DUP2 LT PUSH2 0xB07 JUMPI PUSH2 0xB07 PUSH2 0xFF2 JUMP JUMPDEST PUSH1 0x0 SWAP2 DUP3 MSTORE PUSH1 0x20 SWAP1 SWAP2 KECCAK256 DUP3 SLOAD PUSH1 0x2 SWAP3 DUP4 MUL SWAP1 SWAP2 ADD DUP1 SLOAD PUSH1 0x1 PUSH1 0x1 PUSH1 0xA0 SHL SUB NOT DUP2 AND PUSH1 0x1 PUSH1 0x1 PUSH1 0xA0 SHL SUB SWAP1 SWAP4 AND SWAP3 DUP4 OR DUP3 SSTORE DUP5 SLOAD SWAP2 SWAP4 PUSH1 0xFF PUSH1 0x1 PUSH1 0xA0 SHL SWAP4 DUP5 SWAP1 DIV AND SWAP4 DUP6 SWAP4 PUSH1 0x1 PUSH1 0x1 PUSH1 0xA8 SHL SUB NOT SWAP1 SWAP4 AND OR SWAP2 SWAP1 DUP5 SWAP1 DUP2 GT ISZERO PUSH2 0xB6B JUMPI PUSH2 0xB6B PUSH2 0xEA7 JUMP JUMPDEST MUL OR SWAP1 SSTORE POP PUSH1 0x1 DUP2 DUP2 ADD SWAP1 PUSH2 0xB82 SWAP1 DUP5 ADD DUP3 PUSH2 0x123A JUMP JUMPDEST POP SWAP1 POP POP DUP1 DUP6 PUSH1 0x6 ADD DUP4 DUP2 SLOAD DUP2 LT PUSH2 0xB9C JUMPI PUSH2 0xB9C PUSH2 0xFF2 JUMP JUMPDEST PUSH1 0x0 SWAP2 DUP3 MSTORE PUSH1 0x20 SWAP2 DUP3 SWAP1 KECCAK256 DUP4 MLOAD PUSH1 0x2 SWAP3 DUP4 MUL SWAP1 SWAP2 ADD DUP1 SLOAD PUSH1 0x1 PUSH1 0x1 PUSH1 0xA0 SHL SUB SWAP1 SWAP3 AND PUSH1 0x1 PUSH1 0x1 PUSH1 0xA0 SHL SUB NOT DUP4 AND DUP2 OR DUP3 SSTORE SWAP4 DUP6 ADD MLOAD SWAP1 SWAP4 SWAP1 SWAP3 DUP5 SWAP3 PUSH1 0x1 PUSH1 0x1 PUSH1 0xA8 SHL SUB NOT AND SWAP1 SWAP2 OR SWAP1 PUSH1 0x1 PUSH1 0xA0 SHL SWAP1 DUP5 SWAP1 DUP2 GT ISZERO PUSH2 0xBFC JUMPI PUSH2 0xBFC PUSH2 0xEA7 JUMP JUMPDEST MUL OR SWAP1 SSTORE POP PUSH1 0x40 DUP3 ADD MLOAD PUSH1 0x1 DUP3 ADD SWAP1 PUSH2 0xC15 SWAP1 DUP3 PUSH2 0x10ED JUMP JUMPDEST POP SWAP1 POP POP POP POP DUP1 DUP1 PUSH2 0xC26 SWAP1 PUSH2 0x1315 JUMP JUMPDEST SWAP2 POP POP PUSH2 0x969 JUMP JUMPDEST POP PUSH32 0x63A35D37247FF97E2BF84C9F8658F07329E2F1379712F021E2A795D414E1A6F5 DUP4 DUP4 PUSH1 0x6 ADD PUSH1 0x0 DUP2 SLOAD DUP2 LT PUSH2 0xC67 JUMPI PUSH2 0xC67 PUSH2 0xFF2 JUMP JUMPDEST PUSH1 0x0 SWAP2 DUP3 MSTORE PUSH1 0x20 SWAP1 SWAP2 KECCAK256 PUSH1 0x2 SWAP1 SWAP2 MUL ADD SLOAD PUSH1 0x40 MLOAD PUSH2 0xC94 SWAP3 SWAP2 PUSH1 0x1 PUSH1 0x1 PUSH1 0xA0 SHL SUB AND SWAP1 PUSH1 0x6 DUP8 ADD SWAP1 PUSH2 0x132C JUMP JUMPDEST PUSH1 0x40 MLOAD DUP1 SWAP2 SUB SWAP1 LOG1 POP POP POP JUMP JUMPDEST PUSH1 0x0 DUP1 PUSH1 0x0 PUSH1 0x60 DUP5 DUP7 SUB SLT ISZERO PUSH2 0xCB6 JUMPI PUSH1 0x0 DUP1 REVERT JUMPDEST POP POP DUP2 CALLDATALOAD SWAP4 PUSH1 0x20 DUP4 ADD CALLDATALOAD SWAP4 POP PUSH1 0x40 SWAP1 SWAP3 ADD CALLDATALOAD SWAP2 SWAP1 POP JUMP JUMPDEST PUSH4 0x4E487B71 PUSH1 0xE0 SHL PUSH1 0x0 MSTORE PUSH1 0x41 PUSH1 0x4 MSTORE PUSH1 0x24 PUSH1 0x0 REVERT JUMPDEST PUSH1 0x40 MLOAD PUSH1 0x1F DUP3 ADD PUSH1 0x1F NOT AND DUP2 ADD PUSH8 0xFFFFFFFFFFFFFFFF DUP2 GT DUP3 DUP3 LT OR ISZERO PUSH2 0xD0C JUMPI PUSH2 0xD0C PUSH2 0xCCD JUMP JUMPDEST PUSH1 0x40 MSTORE SWAP2 SWAP1 POP JUMP JUMPDEST PUSH1 0x0 PUSH8 0xFFFFFFFFFFFFFFFF DUP3 GT ISZERO PUSH2 0xD2E JUMPI PUSH2 0xD2E PUSH2 0xCCD JUMP JUMPDEST POP PUSH1 0x5 SHL PUSH1 0x20 ADD SWAP1 JUMP JUMPDEST DUP1 CALLDATALOAD PUSH1 0x1 PUSH1 0x1 PUSH1 0xA0 SHL SUB DUP2 AND DUP2 EQ PUSH2 0xD4F JUMPI PUSH1 0x0 DUP1 REVERT JUMPDEST SWAP2 SWAP1 POP JUMP JUMPDEST PUSH1 0x0 DUP3 PUSH1 0x1F DUP4 ADD SLT PUSH2 0xD65 JUMPI PUSH1 0x0 DUP1 REVERT JUMPDEST DUP2 CALLDATALOAD PUSH1 0x20 PUSH2 0xD7A PUSH2 0xD75 DUP4 PUSH2 0xD14 JUMP JUMPDEST PUSH2 0xCE3 JUMP JUMPDEST DUP1 DUP4 DUP3 MSTORE PUSH1 0x20 DUP3 ADD SWAP2 POP PUSH1 0x20 DUP5 PUSH1 0x5 SHL DUP8 ADD ADD SWAP4 POP DUP7 DUP5 GT ISZERO PUSH2 0xD9C JUMPI PUSH1 0x0 DUP1 REVERT JUMPDEST PUSH1 0x20 DUP7 ADD JUMPDEST DUP5 DUP2 LT ISZERO PUSH2 0xDB8 JUMPI DUP1 CALLDATALOAD DUP4 MSTORE SWAP2 DUP4 ADD SWAP2 DUP4 ADD PUSH2 0xDA1 JUMP JUMPDEST POP SWAP7 SWAP6 POP POP POP POP POP POP JUMP JUMPDEST PUSH1 0x0 DUP1 PUSH1 0x0 PUSH1 0x60 DUP5 DUP7 SUB SLT ISZERO PUSH2 0xDD8 JUMPI PUSH1 0x0 DUP1 REVERT JUMPDEST DUP4 CALLDATALOAD SWAP3 POP PUSH1 0x20 DUP1 DUP6 ADD CALLDATALOAD PUSH8 0xFFFFFFFFFFFFFFFF DUP1 DUP3 GT ISZERO PUSH2 0xDF8 JUMPI PUSH1 0x0 DUP1 REVERT JUMPDEST DUP2 DUP8 ADD SWAP2 POP DUP8 PUSH1 0x1F DUP4 ADD SLT PUSH2 0xE0C JUMPI PUSH1 0x0 DUP1 REVERT JUMPDEST DUP2 CALLDATALOAD PUSH2 0xE1A PUSH2 0xD75 DUP3 PUSH2 0xD14 JUMP JUMPDEST DUP2 DUP2 MSTORE PUSH1 0x5 SWAP2 SWAP1 SWAP2 SHL DUP4 ADD DUP5 ADD SWAP1 DUP5 DUP2 ADD SWAP1 DUP11 DUP4 GT ISZERO PUSH2 0xE39 JUMPI PUSH1 0x0 DUP1 REVERT JUMPDEST SWAP4 DUP6 ADD SWAP4 JUMPDEST DUP3 DUP6 LT ISZERO PUSH2 0xE5E JUMPI PUSH2 0xE4F DUP6 PUSH2 0xD38 JUMP JUMPDEST DUP3 MSTORE SWAP4 DUP6 ADD SWAP4 SWAP1 DUP6 ADD SWAP1 PUSH2 0xE3E JUMP JUMPDEST SWAP7 POP POP POP PUSH1 0x40 DUP8 ADD CALLDATALOAD SWAP3 POP DUP1 DUP4 GT ISZERO PUSH2 0xE76 JUMPI PUSH1 0x0 DUP1 REVERT JUMPDEST POP POP PUSH2 0xE84 DUP7 DUP3 DUP8 ADD PUSH2 0xD54 JUMP JUMPDEST SWAP2 POP POP SWAP3 POP SWAP3 POP SWAP3 JUMP JUMPDEST PUSH1 0x0 PUSH1 0x20 DUP3 DUP5 SUB SLT ISZERO PUSH2 0xEA0 JUMPI PUSH1 0x0 DUP1 REVERT JUMPDEST POP CALLDATALOAD SWAP2 SWAP1 POP JUMP JUMPDEST PUSH4 0x4E487B71 PUSH1 0xE0 SHL PUSH1 0x0 MSTORE PUSH1 0x21 PUSH1 0x4 MSTORE PUSH1 0x24 PUSH1 0x0 REVERT JUMPDEST PUSH1 0x0 PUSH2 0x100 DUP3 ADD SWAP1 POP DUP10 DUP3 MSTORE DUP9 PUSH1 0x20 DUP4 ADD MSTORE DUP8 PUSH1 0x40 DUP4 ADD MSTORE DUP7 PUSH1 0x60 DUP4 ADD MSTORE DUP6 PUSH1 0x80 DUP4 ADD MSTORE DUP5 ISZERO ISZERO PUSH1 0xA0 DUP4 ADD MSTORE DUP4 ISZERO ISZERO PUSH1 0xC0 DUP4 ADD MSTORE PUSH1 0x2 DUP4 LT PUSH2 0xF01 JUMPI PUSH2 0xF01 PUSH2 0xEA7 JUMP JUMPDEST DUP3 PUSH1 0xE0 DUP4 ADD MSTORE SWAP10 SWAP9 POP POP POP POP POP POP POP POP POP JUMP JUMPDEST PUSH1 0x0 DUP1 PUSH1 0x0 PUSH1 0x60 DUP5 DUP7 SUB SLT ISZERO PUSH2 0xF29 JUMPI PUSH1 0x0 DUP1 REVERT JUMPDEST DUP4 CALLDATALOAD SWAP3 POP PUSH1 0x20 PUSH2 0xF3A DUP2 DUP7 ADD PUSH2 0xD38 JUMP JUMPDEST SWAP3 POP PUSH1 0x40 DUP6 ADD CALLDATALOAD PUSH8 0xFFFFFFFFFFFFFFFF DUP1 DUP3 GT ISZERO PUSH2 0xF57 JUMPI PUSH1 0x0 DUP1 REVERT JUMPDEST DUP2 DUP8 ADD SWAP2 POP DUP8 PUSH1 0x1F DUP4 ADD SLT PUSH2 0xF6B JUMPI PUSH1 0x0 DUP1 REVERT JUMPDEST DUP2 CALLDATALOAD DUP2 DUP2 GT ISZERO PUSH2 0xF7D JUMPI PUSH2 0xF7D PUSH2 0xCCD JUMP JUMPDEST PUSH2 0xF8F PUSH1 0x1F DUP3 ADD PUSH1 0x1F NOT AND DUP6 ADD PUSH2 0xCE3 JUMP JUMPDEST SWAP2 POP DUP1 DUP3 MSTORE DUP9 DUP5 DUP3 DUP6 ADD ADD GT ISZERO PUSH2 0xFA5 JUMPI PUSH1 0x0 DUP1 REVERT JUMPDEST DUP1 DUP5 DUP5 ADD DUP6 DUP5 ADD CALLDATACOPY PUSH1 0x0 DUP5 DUP3 DUP5 ADD ADD MSTORE POP DUP1 SWAP4 POP POP POP POP SWAP3 POP SWAP3 POP SWAP3 JUMP JUMPDEST PUSH4 0x4E487B71 PUSH1 0xE0 SHL PUSH1 0x0 MSTORE PUSH1 0x11 PUSH1 0x4 MSTORE PUSH1 0x24 PUSH1 0x0 REVERT JUMPDEST PUSH1 0x0 PUSH1 0x1 DUP3 ADD PUSH2 0xFEB JUMPI PUSH2 0xFEB PUSH2 0xFC3 JUMP JUMPDEST POP PUSH1 0x1 ADD SWAP1 JUMP JUMPDEST PUSH4 0x4E487B71 PUSH1 0xE0 SHL PUSH1 0x0 MSTORE PUSH1 0x32 PUSH1 0x4 MSTORE PUSH1 0x24 PUSH1 0x0 REVERT JUMPDEST DUP1 DUP3 MUL DUP2 ISZERO DUP3 DUP3 DIV DUP5 EQ OR PUSH2 0x101F JUMPI PUSH2 0x101F PUSH2 0xFC3 JUMP JUMPDEST SWAP3 SWAP2 POP POP JUMP JUMPDEST PUSH4 0x4E487B71 PUSH1 0xE0 SHL PUSH1 0x0 MSTORE PUSH1 0x12 PUSH1 0x4 MSTORE PUSH1 0x24 PUSH1 0x0 REVERT JUMPDEST PUSH1 0x0 DUP3 PUSH2 0x104A JUMPI PUSH2 0x104A PUSH2 0x1025 JUMP JUMPDEST POP DIV SWAP1 JUMP JUMPDEST DUP1 DUP3 ADD DUP1 DUP3 GT ISZERO PUSH2 0x101F JUMPI PUSH2 0x101F PUSH2 0xFC3 JUMP JUMPDEST PUSH1 0x1 DUP2 DUP2 SHR SWAP1 DUP3 AND DUP1 PUSH2 0x1076 JUMPI PUSH1 0x7F DUP3 AND SWAP2 POP JUMPDEST PUSH1 0x20 DUP3 LT DUP2 SUB PUSH2 0x1096 JUMPI PUSH4 0x4E487B71 PUSH1 0xE0 SHL PUSH1 0x0 MSTORE PUSH1 0x22 PUSH1 0x4 MSTORE PUSH1 0x24 PUSH1 0x0 REVERT JUMPDEST POP SWAP2 SWAP1 POP JUMP JUMPDEST PUSH1 0x1F DUP3 GT ISZERO PUSH2 0x10E8 JUMPI PUSH1 0x0 DUP2 PUSH1 0x0 MSTORE PUSH1 0x20 PUSH1 0x0 KECCAK256 PUSH1 0x1F DUP6 ADD PUSH1 0x5 SHR DUP2 ADD PUSH1 0x20 DUP7 LT ISZERO PUSH2 0x10C5 JUMPI POP DUP1 JUMPDEST PUSH1 0x1F DUP6 ADD PUSH1 0x5 SHR DUP3 ADD SWAP2 POP JUMPDEST DUP2 DUP2 LT ISZERO PUSH2 0x10E4 JUMPI DUP3 DUP2 SSTORE PUSH1 0x1 ADD PUSH2 0x10D1 JUMP JUMPDEST POP POP POP JUMPDEST POP POP POP JUMP JUMPDEST DUP2 MLOAD PUSH8 0xFFFFFFFFFFFFFFFF DUP2 GT ISZERO PUSH2 0x1107 JUMPI PUSH2 0x1107 PUSH2 0xCCD JUMP JUMPDEST PUSH2 0x111B DUP2 PUSH2 0x1115 DUP5 SLOAD PUSH2 0x1062 JUMP JUMPDEST DUP5 PUSH2 0x109C JUMP JUMPDEST PUSH1 0x20 DUP1 PUSH1 0x1F DUP4 GT PUSH1 0x1 DUP2 EQ PUSH2 0x1150 JUMPI PUSH1 0x0 DUP5 ISZERO PUSH2 0x1138 JUMPI POP DUP6 DUP4 ADD MLOAD JUMPDEST PUSH1 0x0 NOT PUSH1 0x3 DUP7 SWAP1 SHL SHR NOT AND PUSH1 0x1 DUP6 SWAP1 SHL OR DUP6 SSTORE PUSH2 0x10E4 JUMP JUMPDEST PUSH1 0x0 DUP6 DUP2 MSTORE PUSH1 0x20 DUP2 KECCAK256 PUSH1 0x1F NOT DUP7 AND SWAP2 JUMPDEST DUP3 DUP2 LT ISZERO PUSH2 0x117F JUMPI DUP9 DUP7 ADD MLOAD DUP3 SSTORE SWAP5 DUP5 ADD SWAP5 PUSH1 0x1 SWAP1 SWAP2 ADD SWAP1 DUP5 ADD PUSH2 0x1160 JUMP JUMPDEST POP DUP6 DUP3 LT ISZERO PUSH2 0x119D JUMPI DUP8 DUP6 ADD MLOAD PUSH1 0x0 NOT PUSH1 0x3 DUP9 SWAP1 SHL PUSH1 0xF8 AND SHR NOT AND DUP2 SSTORE JUMPDEST POP POP POP POP POP PUSH1 0x1 SWAP1 DUP2 SHL ADD SWAP1 SSTORE POP JUMP JUMPDEST DUP4 DUP2 MSTORE PUSH1 0x0 PUSH1 0x20 PUSH1 0x1 DUP1 PUSH1 0xA0 SHL SUB DUP6 AND PUSH1 0x20 DUP5 ADD MSTORE PUSH1 0x60 PUSH1 0x40 DUP5 ADD MSTORE DUP4 MLOAD DUP1 PUSH1 0x60 DUP6 ADD MSTORE PUSH1 0x0 JUMPDEST DUP2 DUP2 LT ISZERO PUSH2 0x11F0 JUMPI DUP6 DUP2 ADD DUP4 ADD MLOAD DUP6 DUP3 ADD PUSH1 0x80 ADD MSTORE DUP3 ADD PUSH2 0x11D4 JUMP JUMPDEST POP PUSH1 0x0 PUSH1 0x80 DUP3 DUP7 ADD ADD MSTORE PUSH1 0x80 PUSH1 0x1F NOT PUSH1 0x1F DUP4 ADD AND DUP6 ADD ADD SWAP3 POP POP POP SWAP5 SWAP4 POP POP POP POP JUMP JUMPDEST DUP2 DUP2 SUB DUP2 DUP2 GT ISZERO PUSH2 0x101F JUMPI PUSH2 0x101F PUSH2 0xFC3 JUMP JUMPDEST PUSH1 0x0 DUP3 PUSH2 0x1235 JUMPI PUSH2 0x1235 PUSH2 0x1025 JUMP JUMPDEST POP MOD SWAP1 JUMP JUMPDEST DUP2 DUP2 SUB PUSH2 0x1245 JUMPI POP POP JUMP JUMPDEST PUSH2 0x124F DUP3 SLOAD PUSH2 0x1062 JUMP JUMPDEST PUSH8 0xFFFFFFFFFFFFFFFF DUP2 GT ISZERO PUSH2 0x1267 JUMPI PUSH2 0x1267 PUSH2 0xCCD JUMP JUMPDEST PUSH2 0x1275 DUP2 PUSH2 0x1115 DUP5 SLOAD PUSH2 0x1062 JUMP JUMPDEST PUSH1 0x0 PUSH1 0x1F DUP3 GT PUSH1 0x1 DUP2 EQ PUSH2 0x12A9 JUMPI PUSH1 0x0 DUP4 ISZERO PUSH2 0x1291 JUMPI POP DUP5 DUP3 ADD SLOAD JUMPDEST PUSH1 0x0 NOT PUSH1 0x3 DUP6 SWAP1 SHL SHR NOT AND PUSH1 0x1 DUP5 SWAP1 SHL OR DUP5 SSTORE PUSH2 0x130E JUMP JUMPDEST PUSH1 0x0 DUP6 DUP2 MSTORE PUSH1 0x20 SWAP1 KECCAK256 PUSH1 0x1F NOT DUP5 AND SWAP1 PUSH1 0x0 DUP7 DUP2 MSTORE PUSH1 0x20 SWAP1 KECCAK256 DUP5 JUMPDEST DUP4 DUP2 LT ISZERO PUSH2 0x12E3 JUMPI DUP3 DUP7 ADD SLOAD DUP3 SSTORE PUSH1 0x1 SWAP6 DUP7 ADD SWAP6 SWAP1 SWAP2 ADD SWAP1 PUSH1 0x20 ADD PUSH2 0x12C3 JUMP JUMPDEST POP DUP6 DUP4 LT ISZERO PUSH2 0x1301 JUMPI DUP2 DUP6 ADD SLOAD PUSH1 0x0 NOT PUSH1 0x3 DUP9 SWAP1 SHL PUSH1 0xF8 AND SHR NOT AND DUP2 SSTORE JUMPDEST POP POP POP PUSH1 0x1 DUP4 PUSH1 0x1 SHL ADD DUP5 SSTORE JUMPDEST POP POP POP POP POP JUMP JUMPDEST PUSH1 0x0 DUP2 PUSH2 0x1324 JUMPI PUSH2 0x1324 PUSH2 0xFC3 JUMP JUMPDEST POP PUSH1 0x0 NOT ADD SWAP1 JUMP JUMPDEST PUSH1 0x0 PUSH1 0x60 DUP3 ADD DUP6 DUP4 MSTORE PUSH1 0x1 DUP1 PUSH1 0xA0 SHL SUB DUP1 DUP7 AND PUSH1 0x20 DUP6 ADD MSTORE PUSH1 0x60 PUSH1 0x40 DUP6 ADD MSTORE DUP2 DUP6 SLOAD DUP1 DUP5 MSTORE PUSH1 0x80 SWAP4 POP DUP4 DUP7 ADD SWAP2 POP DUP4 DUP2 PUSH1 0x5 SHL DUP8 ADD ADD PUSH1 0x0 DUP9 DUP2 MSTORE PUSH1 0x20 DUP2 KECCAK256 DUP2 JUMPDEST DUP5 DUP2 LT ISZERO PUSH2 0x143F JUMPI DUP10 DUP5 SUB PUSH1 0x7F NOT ADD DUP7 MSTORE DUP2 SLOAD DUP8 DUP2 AND DUP6 MSTORE PUSH1 0xA0 SHR PUSH1 0xFF AND PUSH1 0x3 DUP2 LT PUSH2 0x139B JUMPI PUSH2 0x139B PUSH2 0xEA7 JUMP JUMPDEST PUSH1 0x20 DUP6 ADD MSTORE PUSH1 0x60 PUSH1 0x40 DUP6 ADD MSTORE PUSH1 0x1 DUP3 ADD DUP1 SLOAD DUP5 SWAP1 PUSH2 0x13B8 DUP2 PUSH2 0x1062 JUMP JUMPDEST DUP1 PUSH1 0x60 DUP10 ADD MSTORE PUSH1 0x1 DUP3 AND PUSH1 0x0 DUP2 EQ PUSH2 0x13D7 JUMPI PUSH1 0x1 DUP2 EQ PUSH2 0x13F1 JUMPI PUSH2 0x1423 JUMP JUMPDEST PUSH1 0xFF NOT DUP4 AND DUP10 DUP15 ADD MSTORE DUP2 ISZERO ISZERO PUSH1 0x5 SHL DUP10 ADD DUP14 ADD SWAP4 POP PUSH2 0x1423 JUMP JUMPDEST DUP5 DUP9 MSTORE PUSH1 0x20 DUP9 KECCAK256 DUP9 JUMPDEST DUP4 DUP2 LT ISZERO PUSH2 0x141B JUMPI DUP2 SLOAD DUP16 DUP3 DUP14 ADD ADD MSTORE PUSH1 0x1 DUP3 ADD SWAP2 POP PUSH1 0x20 DUP2 ADD SWAP1 POP PUSH2 0x13FA JUMP JUMPDEST DUP11 ADD DUP15 ADD SWAP5 POP POP JUMPDEST POP POP POP PUSH1 0x20 SWAP8 SWAP1 SWAP8 ADD SWAP7 SWAP5 POP POP PUSH1 0x2 SWAP2 SWAP1 SWAP2 ADD SWAP1 PUSH1 0x1 ADD PUSH2 0x136D JUMP JUMPDEST POP SWAP2 SWAP12 SWAP11 POP POP POP POP POP POP POP POP POP POP POP JUMP INVALID LOG2 PUSH5 0x6970667358 0x22 SLT KECCAK256 PUSH8 0x82E2E80FC2F60FEC PUSH14 0x899FB37042CB4923291D95973D2D 0x4A RETURN PUSH15 0xBDF40524D564736F6C634300081700 CALLER ","sha1":"7fc6ee87e1ee3a232d7696038b04b63d7fbce9ea","source":"// SPDX-License-Identifier: MIT\npragma solidity ^0.8.9;\n\ncontract MainContract {\n    enum Role { Worker, SubAggregator, RootAggregator }\n    enum TaskStatus { Pending, Completed }\n\n    struct User {\n        address userAddress;\n        Role role;\n        string ip;\n    }\n\n    struct TreeNode {\n        address userAddress;\n        Role role;\n        string ip;\n    }\n\n    struct Task {\n        uint256 id;\n        uint256 requiredUsers;\n        uint256 currentIteration;\n        uint256 totalIterations;\n        uint256 fundingAmount;\n        User[] users;\n        TreeNode[] tree;\n        bool isInitialized;\n        bool isFull; \n        TaskStatus status;\n        mapping(address => uint256) contributions;\n    }\n\n    uint256 public nextTaskId;\n    mapping(uint256 => Task) public tasks;\n\n    event TaskInitialized(uint256 taskId, uint256 requiredUsers, uint256 totalIterations, uint256 fundingAmount);\n    event UserAdded(uint256 taskId, address user, string ip);\n    event IterationComplete(uint256 taskId, uint256 iteration, address rootAggregator);\n    event TreeStructureGenerated(uint256 taskId, address rootAggregator, TreeNode[] tree);\n\n    function initTask(uint256 requiredUsers, uint256 totalIterations, uint256 fundingAmount) public {\n        Task storage newTask = tasks[nextTaskId];\n        newTask.id = nextTaskId;\n        newTask.requiredUsers = requiredUsers;\n        newTask.totalIterations = totalIterations;\n        newTask.fundingAmount = fundingAmount;\n        newTask.isInitialized = true;\n        newTask.isFull = false;\n        newTask.currentIteration = 0;\n        newTask.status = TaskStatus.Pending;\n\n        emit TaskInitialized(nextTaskId, requiredUsers, totalIterations, fundingAmount);\n        nextTaskId++;\n    }\n\n    function addUser(uint256 taskId, address userAddress, string memory ip) public {\n        Task storage task = tasks[taskId];\n        require(task.isInitialized, \"Task not initialized\");\n        require(task.users.length < task.requiredUsers, \"Task is already full\");\n\n        task.users.push(User({ userAddress: userAddress, role: Role.Worker, ip: ip}));\n        if (task.users.length == task.requiredUsers) {\n            task.isFull = true;\n            startIteration(taskId);\n        }\n\n        emit UserAdded(taskId, userAddress, ip);\n    }\n\n    function startIteration(uint256 taskId) internal {\n        Task storage task = tasks[taskId];\n        require(task.isFull, \"Task is not full\");\n        generateTreeStructure(taskId);\n        task.currentIteration++;\n    }\n\n    function completeIteration(uint256 taskId, address[] memory contributors, uint256[] memory values) public {\n        Task storage task = tasks[taskId];\n        require(task.currentIteration <= task.totalIterations, \"All iterations completed\");\n        require(msg.sender == getRootAggregatorAddress(taskId), \"Only Root Aggregator can complete the iteration\");\n\n        uint256 totalContributionForIteration = 1000;\n        for (uint256 i = 0; i < contributors.length; i++) {\n            uint256 contributionPercentage = (values[i] * 100) / totalContributionForIteration;\n            task.contributions[contributors[i]] += contributionPercentage;\n        }\n\n        if (task.currentIteration < task.totalIterations) {\n            startIteration(taskId);\n        } else {\n            distributeFunds(taskId);\n            task.status = TaskStatus.Completed;\n        }\n\n        emit IterationComplete(taskId, task.currentIteration, task.tree[0].userAddress);\n    }\n\n    function distributeFunds(uint256 taskId) internal {\n        Task storage task = tasks[taskId];\n        uint256 totalFund = task.fundingAmount;\n\n        for (uint256 i = 0; i < task.users.length; i++) {\n            address userAddress = task.users[i].userAddress;\n            uint256 userContributionPercentage = task.contributions[userAddress];\n            uint256 userShare = (totalFund * userContributionPercentage) / 100;\n            payable(userAddress).transfer(userShare);\n        }\n    }\n\n    uint256 public entropy = block.timestamp;\n\n    function generateTreeStructure(uint256 taskId) internal {\n        Task storage task = tasks[taskId];\n        uint256 numUsers = task.users.length;\n\n        for (uint256 i = 0; i < numUsers; i++) {\n            task.tree.push(TreeNode({\n                userAddress: task.users[i].userAddress,\n                role: Role.Worker,\n                ip: task.users[i].ip\n            }));\n        }\n\n        for(uint256 i = task.tree.length -1 ; i > 0; i--) {\n\n            uint256 swapIndex = entropy % (task.tree.length - i);\n\n            TreeNode memory temp = TreeNode({\n                userAddress: task.tree[i].userAddress,\n                role: task.tree[i].role,\n                ip: task.tree[i].ip\n            });\n\n            task.tree[i] = task.tree[swapIndex];\n            task.tree[swapIndex] = temp;\n        }\n\n        emit TreeStructureGenerated(taskId, task.tree[0].userAddress, task.tree);\n    }\n\n    function getRootAggregatorAddress(uint256 taskId) public view returns (address) {\n        Task storage task = tasks[taskId];\n        return task.tree[0].userAddress;\n    }\n}\n","sourcePath":"contracts/MainContract.sol","type":"contract"}